:020000040800F2
:10000000008001205D440008D13A0008D53A00087C
:10001000D93A0008DD3A0008E13A00080000000083
:10002000000000000000000000000000CD360008C5
:10003000E53A00080000000089360008C1350008D4
:10004000AD440008AD440008AD440008AD440008CC
:10005000AD440008AD440008AD440008AD440008BC
:10006000AD440008AD440008AD440008AD440008AC
:10007000AD440008AD440008AD440008AD4400089C
:10008000E93A0008AD440008AD4400080000000053
:10009000000000000000000000000000AD44000867
:1000A000AD440008AD440008AD440008AD4400086C
:1000B000AD440008AD440008AD440008AD4400085C
:1000C000AD440008AD440008AD440008AD4400084C
:1000D000AD440008AD440008AD4400080000000035
:1000E000AD440008AD440008AD4400080000000025
:1000F000000000000000000000000000AD44000807
:1001000000000000AD440008ED3A0008AD440008CE
:1001100000000000000000000000000000000000DF
:10012000AD440008AD440008AD440008AD440008EB
:10013000AD440008000000000000000000000000C6
:10014000000000000000000000000000AD440008B6
:10015000AD440008AD440008AD440008AD440008BB
:10016000AD440008AD44000800000000000000009D
:10017000000000000000000000000000000000007F
:1001800000000000AD440008000000000000000076
:04019000AD44000872
:1001980081F0004102E000BF83F0004330B54FEA30
:1001A80041044FEA430594EA050F08BF90EA020F9D
:1001B8001FBF54EA000C55EA020C7FEA645C7FEA30
:1001C800655C00F0E2804FEA5454D4EB5555B8BF53
:1001D8006D420CDD2C4480EA020281EA030382EAC4
:1001E800000083EA010180EA020281EA0303362D56
:1001F80088BF30BD11F0004F4FEA01314FF4801C29
:100208004CEA113102D0404261EB410113F0004F3A
:100218004FEA03334CEA133302D0524263EB4303F1
:1002280094EA050F00F0A780A4F10104D5F1200E8F
:100238000DDB02FA0EFC22FA05F2801841F10001EA
:1002480003FA0EF2801843FA05F359410EE0A5F1BE
:1002580020050EF1200E012A03FA0EFC28BF4CF0EF
:10026800020C43FA05F3C01851EBE37101F00045A5
:1002780007D54FF0000EDCF1000C7EEB00006EEBB2
:100288000101B1F5801F1BD3B1F5001F0CD349083C
:100298005FEA30004FEA3C0C04F101044FEA445293
:1002A80012F5800F80F09A80BCF1004F08BF5FEA1A
:1002B800500C50F1000041EB045141EA050130BDFA
:1002C8005FEA4C0C404141EB0101013C28BFB1F50C
:1002D800801FE9D291F0000F04BF01460020B1FA57
:1002E80081F308BF2033A3F10B03B3F120020CDA2A
:1002F8000C3208DD02F1140CC2F10C0201FA0CF008
:1003080021FA02F10CE002F11402D8BFC2F1200C6C
:1003180001FA02F120FA0CFCDCBF41EA0C01904022
:10032800E41AA2BF01EB0451294330BD6FEA04046B
:100338001F3C1CDA0C340EDC04F11404C4F1200256
:1003480020FA04F001FA02F340EA030021FA04F368
:1003580045EA030130BDC4F10C04C4F1200220FABF
:1003680002F001FA04F340EA0300294630BD21FAFD
:1003780004F0294630BD94F0000F83F4801306BFC3
:1003880081F480110134013D4EE77FEA645C18BFB7
:100398007FEA655C29D094EA050F08BF90EA020F4E
:1003A80005D054EA000C04BF1946104630BD91EA46
:1003B800030F1EBF0021002030BD5FEA545C05D149
:1003C8004000494128BF41F0004130BD14F5800488
:1003D8003CBF01F5801130BD01F0004545F0FE41FC
:1003E80041F470014FF0000030BD7FEA645C1ABF31
:1003F800194610467FEA655C1CBF0B46024650EA68
:10040800013406BF52EA033591EA030F41F4002193
:1004180030BD00BF90F0000F04BF0021704730B519
:100428004FF4806404F132044FF000054FF00001EE
:1004380050E700BF90F0000F04BF0021704730B5AF
:100448004FF4806404F1320410F0004548BF404284
:100458004FF000013EE700BF42004FEAE2014FEAD9
:1004680031014FEA02701FBF12F07F4393F07F4FB4
:1004780081F06051704732F07F4208BF704793F0B7
:100488007F4F04BF41F40021704730B54FF46074CA
:1004980001F0004521F000411CE700BF50EA0102CD
:1004A80008BF704730B54FF000050AE050EA010276
:1004B80008BF704730B511F0004502D5404261EBE6
:1004C80041014FF4806404F132045FEA915C3FF427
:1004D800D8AE4FF003025FEADC0C18BF03325FEAC4
:1004E800DC0C18BF033202EBDC02C2F1200300FA75
:1004F80003FC20FA02F001FA03FE40EA0E0021FA9A
:1005080002F11444BDE600BF70B54FF0FF0C4CF487
:10051800E06C1CEA11541DBF1CEA135594EA0C0F39
:1005280095EA0C0F00F0DEF82C4481EA030621EA74
:100538004C5123EA4C5350EA013518BF52EA0335AF
:1005480041F4801143F4801338D0A0FB02CE4FF061
:100558000005E1FB02E506F00042E0FB03E54FF091
:100568000006E1FB03569CF0000F18BF4EF0010E89
:10057800A4F1FF04B6F5007F64F5407404D25FEA85
:100588004E0E6D4146EB060642EAC62141EA555138
:100598004FEAC52040EA5E504FEACE2EB4F1FD0C7A
:1005A80088BFBCF5E06F1ED8BEF1004F08BF5FEAF8
:1005B800500E50F1000041EB045170BD06F00046AA
:1005C80046EA010140EA020081EA0301B4EB5C0457
:1005D800C2BFD4EB0C0541EA045170BD41F480114F
:1005E8004FF0000E013C00F3AB8014F1360FDEBF74
:1005F800002001F0004170BDC4F10004203C35DA50
:100608000C341BDC04F11404C4F1200500FA05F3D2
:1006180020FA04F001FA05F240EA020001F0004273
:1006280021F0004110EBD37021FA04F642EB0601E9
:100638005EEA430E08BF20EAD37070BDC4F10C0413
:10064800C4F1200500FA04F320FA05F001FA04F2D7
:1006580040EA020001F0004110EBD37041F10001C3
:100668005EEA430E08BF20EAD37070BDC4F12005CE
:1006780000FA05F24EEA020E20FA04F301FA05F236
:1006880043EA020321FA04F001F0004121FA04F2DE
:1006980020EA020000EBD3705EEA430E08BF20EAAE
:1006A800D37070BD94F0000F0FD101F000464000E8
:1006B80041EB010111F4801F08BF013CF7D041EA6A
:1006C800060195F0000F18BF704703F0004652006E
:1006D80043EB030313F4801F08BF013DF7D043EA3F
:1006E8000603704794EA0C0F0CEA135518BF95EAF5
:1006F8000C0F0CD050EA410618BF52EA4306D1D17C
:1007080081EA030101F000414FF0000070BD50EA9A
:10071800410606BF1046194652EA430619D094EA24
:100728000C0F02D150EA013613D195EA0C0F05D10E
:1007380052EA03361CBF104619460AD181EA030162
:1007480001F0004141F0FE4141F470014FF000001A
:1007580070BD41F0FE4141F4780170BD70B54FF0B5
:10076800FF0C4CF4E06C1CEA11541DBF1CEA135535
:1007780094EA0C0F95EA0C0F00F0A7F8A4EB050417
:1007880081EA030E52EA03354FEA013100F088800E
:100798004FEA03334FF0805545EA131343EA1263D7
:1007A8004FEA022245EA111545EA10654FEA00268C
:1007B8000EF000419D4208BF964244F1FD0404F545
:1007C800407402D25B084FEA3202B61A65EB0305A1
:1007D8005B084FEA32024FF480104FF4002CB6EB5E
:1007E800020E75EB030E22BFB61A754640EA0C00DE
:1007F8005B084FEA3202B6EB020E75EB030E22BF1E
:10080800B61A754640EA5C005B084FEA3202B6EB5E
:10081800020E75EB030E22BFB61A754640EA9C001D
:100828005B084FEA3202B6EB020E75EB030E22BFED
:10083800B61A754640EADC0055EA060E18D04FEAAB
:10084800051545EA16754FEA06164FEAC30343EA4B
:1008580052734FEAC2025FEA1C1CC0D111F4801F18
:100868000BD141EA00014FF000004FF0004CB6E711
:1008780011F4801F04BF01430020B4F1FD0C88BFB0
:10088800BCF5E06F3FF6AFAEB5EB030C04BFB6EBBB
:10089800020C5FEA500C50F1000041EB045170BDAE
:1008A8000EF0004E4EEA113114EB5C04C2BFD4EBDB
:1008B8000C0541EA045170BD41F480114FF0000E5F
:1008C800013C90E645EA060E8DE60CEA135594EADB
:1008D8000C0F08BF95EA0C0F3FF43BAF94EA0C0FDE
:1008E8000AD150EA01347FF434AF95EA0C0F7FF453
:1008F80025AF104619462CE795EA0C0F06D152EAA7
:1009080003353FF4FDAE1046194622E750EA41068A
:1009180018BF52EA43067FF4C5AE50EA41047FF49B
:100928000DAF52EA43057FF4EBAE12E74FF0FF3C00
:1009380006E000BF4FF0010C02E000BF4FF0010CD1
:100948004DF804CD4FEA410C7FEA6C5C4FEA430C4A
:1009580018BF7FEA6C5C1BD001B050EA410C0CBF99
:1009680052EA430C91EA030F02BF90EA020F0020FB
:10097800704710F1000F91EA030F58BF994208BF62
:1009880090422CBFD8176FEAE37040F0010070471F
:100998004FEA410C7FEA6C5C02D150EA013C07D176
:1009A8004FEA430C7FEA6C5CD6D152EA033CD3D0C1
:1009B8005DF8040B704700BF8446104662468C46BB
:1009C8001946634600E000BF01B5FFF7B7FF0028EE
:1009D80048BF10F1000F01BD4DF808EDFFF7F4FF17
:1009E8000CBF012000205DF808FB00BF4DF808EDA2
:1009F800FFF7EAFF34BF012000205DF808FB00BFC5
:100A08004DF808EDFFF7E0FF94BF012000205DF8E6
:100A180008FB00BF4DF808EDFFF7CEFF94BF01209B
:100A280000205DF808FB00BF4DF808EDFFF7C4FF94
:100A380034BF012000205DF808FB00BF4FEA410CDD
:100A48007FEA6C5C02D150EA013C0AD14FEA430CC0
:100A58007FEA6C5C02D152EA033C02D14FF00000FD
:100A680070474FF0010070474FEA410212F500123B
:100A780015D211D56FF47873B3EB625212D94FEADD
:100A8800C12343F0004343EA505311F0004F23FAC7
:100A980002F018BF404270474FF00000704750EA1C
:100AA800013005D111F0004008BF6FF000407047D9
:100AB8004FF00000704700BF4A0011D212F5001233
:100AC80011D20DD56FF47873B3EB62520ED44FEA9E
:100AD800C12343F0004343EA505323FA02F070471E
:100AE8004FF00000704750EA013002D14FF0FF305C
:100AF80070474FF0000070474FEA4102B2F1E043FF
:100B080024BFB3F5001CDCF1FE5C0DD901F0004CEC
:100B18004FEAC0024CEA5070B2F1004F40EB83003C
:100B280008BF20F00100704711F0804F21D113F168
:100B38003872BCBF01F00040704741F480114FEAA1
:100B48005252C2F11802C2F1200C10FA0CF320FA2A
:100B580002F018BF40F001004FEAC1234FEAD32347
:100B680003FA0CFC40EA0C0023FA02F34FEA4303B1
:100B7800CCE77FEA625307D150EA01331EBF4FF03A
:100B8800FE4040F44000704701F0004040F0FE4055
:100B980040F40000704700BF80F0004002E000BF52
:100BA80081F0004142001FBF5FEA410392EA030F50
:100BB8007FEA226C7FEA236C6AD04FEA1262D2EB9A
:100BC8001363C1BFD218414048404140B8BF5B429F
:100BD800192B88BF704710F0004F40F4000020F038
:100BE8007F4018BF404211F0004F41F4000121F04E
:100BF8007F4118BF494292EA030F3FD0A2F1010298
:100C080041FA03FC10EB0C00C3F1200301FA03F1D5
:100C180000F0004302D5494260EB4000B0F5000FF8
:100C280013D3B0F1807F06D340084FEA310102F1B7
:100C38000102FE2A51D2B1F1004F40EBC25008BF69
:100C480020F0010040EA03007047490040EB000033
:100C5800013A28BFB0F5000FEDD2B0FA80FCACF134
:100C6800080CB2EB0C0200FA0CF0AABF00EBC25061
:100C780052421843BCBFD0401843704792F0000F4F
:100C880081F4000106BF80F400000132013BB5E7A2
:100C98004FEA41037FEA226C18BF7FEA236C21D018
:100CA80092EA030F04D092F0000F08BF084670477D
:100CB80090EA010F1CBF0020704712F07F4F04D14B
:100CC800400028BF40F00040704712F100723CBF5E
:100CD80000F50000704700F0004343F0FE4040F488
:100CE800000070477FEA226216BF08467FEA236346
:100CF8000146420206BF5FEA412390EA010F40F431
:100D0800800070474FF0000304E000BF10F000437C
:100D180048BF40425FEA000C08BF704743F0964363
:100D280001464FF000001CE050EA010208BF70477E
:100D38004FF000030AE000BF50EA010208BF704705
:100D480011F0004302D5404261EB41015FEA010C1A
:100D580002BF84460146002043F0B64308BFA3F112
:100D68008053A3F50003BCFA8CF2083AA3EBC253F4
:100D780010DB01FA02FC634400FA02FCC2F1200213
:100D8800BCF1004F20FA02F243EB020008BF20F04A
:100D98000100704702F1200201FA02FCC2F12002B0
:100DA80050EA4C0021FA02F243EB020008BF20EAA5
:100DB800DC70704753B94AB9002908BF00281CBF26
:100DC8004FF0FF314FF0FF3000F00CB8ADF1080CD8
:100DD8006DE904CE04F032F9DDF804E0DDE9022320
:100DE80004B07047704700BF0348044B834202D0E9
:100DF800034B03B1184770475C0000205C000020DB
:100E0800000000000548064B1B1AD90F01EBA3018F
:100E1800491002D0034B03B1184770475C0000200B
:100E28005C0000200000000010B5064C237843B990
:100E3800FFF7DAFF044B13B10448AFF30080012336
:100E4800237010BD600000200000000098530008C7
:100E580008B5054B1BB105490548AFF30080BDE84F
:100E68000840FFF7CFBF00BF00000000640000206B
:100E780098530008000000000346084623B119B142
:100E8800554A1968914200D070472DE9F041534AFC
:100E980093F8464092F846C092F845E011604CEA53
:100EA800040C82F846C093F8444092F844C0D061DC
:100EB8004CEA040C93F8454082F844C04EEA040E0C
:100EC80093F8464082F845E0E50738D59FED407B2A
:100ED8009D6A956200261D6A15621CF0040F82ED5A
:100EE8000C7B82F8406061D11CF0100F27D093F87A
:100EF80054703B4E16F807C05E6882F8547006EBD3
:100F08000C08384FC8F80870C8F80C50D8F80470A6
:100F1800056956606FF30F073D43C8F8045056F84B
:100F28000C5045F0100546F80C504D6845F0010589
:100F38004D6056F80C1041F0010146F80C10A1075D
:100F48000FD59FED237BD96A5C6AD1621EF0200F12
:100F58004FF0000182ED0E7B5462916182F85610C9
:100F68000ED11D4902600B6803F44443B3F5004FEA
:100F780021D0194A136843F040031360BDE8F0819B
:100F88009968174D93F8553082F85530EB5C154E3B
:100F98009160CD18EC60AE60CC5844F01004CC5091
:100FA8000D494B6843F002034B60DAE74D6845F0A2
:100FB80040054D60C3E70B6803F48273B3F5827F85
:100FC800D7D10B6823F040030B60D7E7AFF300805D
:100FD80000000000000000000030014080000020F8
:100FE800B05300080C300140002800F0B08010B465
:100FF80000680144C2F3072C91F84E401CB1B0F8C8
:101008004C409C426BD0A0F84C30426100680468A8
:10101800640616D5046814F4444F56D0046804F4E2
:101028004444B4F5806F53D0046804F44444B4F5E0
:10103800004F4DD084682406FCD4046824F0400492
:101048000460002B2ED10368DC0703D5036823F066
:101058000103036003689C0703D4036843F0020399
:101068000360036803F400639A420AD00368BCF182
:10107800080F94BF0022012223F4006343EAC2232D
:101088000360036803F44443B3F5004F2BD00368AF
:1010980043F040030360012381F84E3000205DF8DF
:1010A800044B7047012B3FD0022B036844D0DC0768
:1010B80003D4036843F00103036003689B07D0D59A
:1010C800036823F002030360CBE784682406FCD49A
:1010D800046824F040040460002BE3D1B3E74469BA
:1010E800944290D1DAE7036803F48273B3F5827F00
:1010F800CDD103685C06CED5036813F4444F22D0E3
:10110800036803F44443B3F5806F08D0036803F41D
:101118004443B3F5004F02D083681B06FCD4036830
:1011280023F040030360B6E70368DB0792D4036843
:1011380043F0010303608DE7DB07BED5036823F0A6
:1011480001030360B9E783681A06FCD4E7E791F85E
:101158004E30FFDE2DE9F04F83B0CDE90021DDF8F8
:101168003080BDF834900E9F04461E4603F0E6F822
:10117800054604B1246823681A68B9F1000F08BF4E
:101188000027510603D41A6842F040021A6016F08C
:10119800FF066CD14FF0010BB146C145CA4654D386
:1011A80046453CD223689B680121284602F0BEF9D7
:1011B800B84200F2A88023689A68D00705D546454A
:1011C80003D2BBF1000F00F096800121284602F0FF
:1011D800ADF9B8422BD8C245DFD3B0454FF0010175
:1011E80028461CD923689B6802F0A0F903469F4251
:1011F8004FF001012846C0F0868023689A68D2071C
:1012080011D5BBF1000F0ED1009A1B7B93550E44EC
:10121800B6B2B0458B4628464FF00101E2D800200F
:1012280003B0BDE8F08F02F081F98742D5D2226879
:10123800136803F48273B3F5827F02D193681906A9
:10124800FCD4012003B0BDE8F08F23689A689207A8
:10125800AAD5BBF1000FA7D0019A12F809201A737A
:1012680009F101091FFA89F94FF0000BA3E7012ED4
:10127800D5D1B3460026B146C145CA4651D34645E5
:10128800CDD223689B680121284602F04FF9B84265
:1012980074D823689A68D00757D5464555D2BBF10C
:1012A800000F52D1009ADB6822F816300136B6B228
:1012B8004FF0010BC245DFD3B0454FF00101AED965
:1012C800236828469B6802F031F9874256D3236881
:1012D8009A68D2074BD5BBF1000F48D1009ADB685A
:1012E80022F816300136B6B2B0454FF0010B4FF078
:1012F8000101E5D893E7009A1B7B93550136B6B2F6
:101308004FF0010B67E72268136803F48273B3F5A3
:10131800827F96D193681C0693D593681C06F9D4EE
:101328008FE723689A689207ADD5BBF1000FAAD062
:10133800019A32F819209A819A6809F10109D007AF
:101348001FFA89F94FF0000BA7D40121284602F0B3
:10135800EDF8B842AED92268136803F48273B3F586
:10136800827F7FF46EAF93681906FCD469E7012188
:10137800284602F0DBF887429ED2ECE72268136821
:1013880003F48273B3F5827F7FF45BAF93681C0626
:101398007FF557AF93681C06F8D452E7704700BF33
:1013A8000020704770B5184E96ED300A02F0B4F878
:1013B80030B306F1C4050224B5EC010A02F0ACF81A
:1013C800C0B9124A052C02EB840292ED000A04F11E
:1013D80001030ED02F330E4A06EB8303F3EC017A98
:1013E800F4EE407AF1EE10FA48BFB0EE670A9A427E
:1013F800F4D170BD0134062CDED196ED300A70BDF3
:1014080096ED300A0223E5E7600100201C02002067
:101418003402002070B5184E96ED300A02F07CF8C0
:1014280030B306F1C4050224B5EC010A02F074F8E1
:10143800C0B9124A052C02EB840292ED000A04F1AD
:1014480001030ED02F330E4A06EB8303F3EC017A27
:10145800F4EE407AF1EE10FAC8BFB0EE670A9A428D
:10146800F4D170BD0134062CDED196ED300A70BD82
:1014780096ED300A0223E5E7600100201C020020F7
:1014880034020020000000002DE9F04FC24B2DED82
:101498000C8BD3ED228A03F18C04F9B0B0EE688A84
:1014A8002546B5EC010AF0EE480A03F051F9BB4BAA
:1014B800AB42B0EE408AF4D11E460FCE2AAD0FC51E
:1014C80033682B60B4EC010AF0EE680A03F05EF9A9
:1014D800B24BA342F0EE408AF4D1D3ED010AC03BEF
:1014E8001C4693ED300A03F033F9D4ED320A03F0C9
:1014F8002FF9D4ED330A03F02BF9D4ED340A03F0B5
:1015080027F9A74BD3ED427AB4EEE70AF1EE10FAC9
:1015180000F2508193ED437A30EE670A77EE677AEE
:10152800002580EE275A9E4B9E4C03F1040E0EF1C7
:10153800280A04F138080EF12C0905F109010EF109
:10154800D80C0EF1DC0BD3ED375AD3ED414AD3ED6D
:10155800403A93ED384A2DE077EEE57A34EE657A35
:101568002A4687EE876A8E4B03EB8203A04593EDEC
:10157800007A0EEB8203D3ED007A77EEC77A0AEB96
:10158800820367EE867A09EB820237EE277AD3ED7B
:10159800006AD2ED007A77EEE67A67EE867A77EE21
:1015A800A67A77EEC77A67EE857A77EE877A44ED82
:1015B800017A4CD0F4EC017AF4EEE57AF1EE10FA07
:1015C800CAD9F4EEE47AF1EE10FA22D500220A2004
:1015D8000523049414950CEB830494ED007AF4EE3F
:1015E800C77AD418F1EE10FAA3EB020700EB030652
:1015F800A0EB03054FEA540404D5012F11D918466E
:101608002346E8E7012D4FEA56041CD91A4623461B
:10161800E1E777EEE37A34EEE37A0A4687EE876A03
:10162800A1E7049C149D0CEB8203D3ED006A0BEB3D
:10163800820393ED007A77EEE67A37EE667A2A44EB
:1016480087EE876A8FE7049C149D1A46EBE7524B96
:10165800D3ED350A03F1D804B4EC010A03F078F8A5
:101668004445F0EE400AF7D14B4A92F89631002BE8
:1016780040F0C48040F20113A2F896314A4B14930B
:101688001A46012382F89030434BD3F89061771CB7
:101698001CBF0136C3F890613F4B93F89B31002B78
:1016A80000F0DC803C4B93F89C31022B01F0EE8279
:1016B800032B01F0CF80012B41F0BB80149B93F8E2
:1016C8009030002B01F0CC80334A042382F89C31FF
:1016D800149A002382F8913010EE900AFEF7BCFEAF
:1016E800044618EE100A0D46FEF7B6FE02460B46F3
:1016F80027A1D1E90001FEF74FFD22462B46FFF74F
:101708002DF8FFF7F9F909EE100A18EE900AFEF71E
:10171800A3FE264B0022FEF73FFD22462B46FFF78D
:101728001DF80B461C4991F89D410246012C1046B4
:1017380003F1004101F07A82022C0AD0B6F57A7FD3
:10174800C1F00083144A022382F89D31012382F8F4
:10175800A631114B93F89E31012B01F086820E4B76
:1017680093F89F31012B40F098800B4ADFED107AF7
:1017780092ED617AB4EEE77AF1EE10FA01F2AD82F9
:1017880082F8A631032382F89F3186E0AFF3008008
:10179800CDCCCCCCCCCC1040600100202002002065
:1017A800BC53000834020020080300200000084051
:1017B80000007D43AF4AD2ED467AB4EEE70AF1EE77
:1017C80010FA27D500250421022302F5847707EBB8
:1017D8008302D2ED007AB4EEE70AEA18F1EE10FAC5
:1017E800A3EB050603EB0104A1EB03004FEA520249
:1017F8001BD5012E1ED919461346E8E79E4B93F8D0
:101808009731012B02BF9C4A022382F897319B4BE8
:10181800149339E7974B93ED457A30EE470A77EE04
:10182800C77A212580EE275A7DE601284FEA54021F
:101838001D46E1D8924B07EB850703EB850397ED2F
:10184800007AD3ED007A30EE470A77EEC77A05EBD7
:10185800850380EE275A05EB430564E6864A14990A
:10186800D2ED447A92ED457A81F8913077EEC77AD5
:1018780082F8A631834BC2F89B31F0EEE77A012358
:101888001446C2ED627A82F89F31FFF7C3FD84EDFA
:10189800600AFFF787FD84ED610A774A7649D2F836
:1018A8008C315E1C1CBF0133C2F88C3191F8982131
:1018B80038EE487A002A40F00685734BC1F88C212F
:1018C8001A605A609A609A81012381F8A43140F223
:1018D800011381ED5F7AA1F89831674B6B4CD3E91E
:1018E8000E01FFF709F9149ADFED697A92F89D3035
:1018F800003B18BF01230C9392F89B30191E92F8F5
:101908009A3018BF01211D1E92F89930069118BF10
:1019180001251E1E92F898300A9518BF0126003B33
:1019280018BF0123089392F897301696191E92F85B
:10193800963018BF01211E1E92F895301F9118BFCE
:1019480001261D1E92F89430239618BF012508EE33
:10195800900A229528461D1E92F8933018BF01253B
:10196800B3F1000C92F89230129518BF4FF0010CA9
:10197800CDF840C0B3F1000C92F89C3018BF4FF07E
:10198800010C1A1E18BF01220E924AB2179272B2A7
:101998001C9242B218929DF94820CDF854C0199271
:1019A8009DF940201B929DF954201A920FCC34AF18
:1019B8000FC70FCC0FC70FCC0FC794E80F00A4F1C7
:1019C800700687E80F000FCE0DF5887C65460FC5B9
:1019D8000FCE0FC50FCE0FC596E80F004FF0000BC6
:1019E80085E80F004FF0000A0C9868EEA78ACDE949
:1019F80054ABCDE956ABCDE958ABCDE95AABCDE9FF
:101A08005CABCDE95EABFEF715FDCDE9600106984C
:101A1800CDE962ABFEF70EFDCDE964010A98CDE988
:101A280066ABFEF707FDCDE968011698CDE96AAB0C
:101A3800FEF700FDCDE96C010898CDE96EABFEF725
:101A4800F9FCCDE970010E98CDE972ABFEF7F2FC16
:101A580034AD00230127CDE976ABCDE904AB2E46A2
:101A68001D95CDE9740198463C46B9461D469B46EE
:101A78001CE000BFBC5300086001002008030020E0
:101A8800C8540008010401019A030020B855000851
:101A9800010E603878A9B1423B464FF00002474634
:101AA800A146A8461AD05D461C469346DDE90423A4
:101AB800F6E80201FEF790FFB0FA80F040094845C9
:101AC80087F0010388F00102E4D078A9B142D7B2C7
:101AD800DBB24FF00102A146A846E4D1DFF8A0C36B
:101AE8001E95CDE920241C46BCE80F000DF1D00856
:101AF800A8E80F00BCE80F00A8E80F00BCE80F003A
:101B08001D9DCDF874B0A8E80F009CE80F000CF1FB
:101B1800900E88E80F00BEE80F0044AE0FC6BEE87E
:101B28000F000FC6BEE80F000FC69EE80F0086E83C
:101B38000F001798FEF77EFCCDE958011C98FEF7B8
:101B480079FCCDE95C011898FEF774FCCDE96001D9
:101B58001998FEF76FFCCDE964011B98FEF76AFC43
:101B6800CDE968011A98FEF765FC9FEDBB7B002262
:101B780001260497CDE96C018DED707B8DED747BAA
:101B880092469046B346B14617460BE078AAAA4259
:101B980033464FF000014646D946D0461AD0BA46D9
:101BA8009B460F4600220023F5E80201FEF714FFCA
:101BB800B0FA80F04009484586F0010388F0010238
:101BC800E4D0D6B278AAAA42DBB24FF00101D946D6
:101BD800D046E4D1A248B0F89401013080B201386F
:101BE8003A46049F242801F26783DFE810F0240AAC
:101BF80025002500250025002500250025002500B5
:101C08002500250025002500250025002E0A250091
:101C18002500250025002500250025002500250094
:101C28002500250025002500250025002500250084
:101C38002500380A420ACC0724AD00232B602B71FB
:101C48002B798DF8A530864B2868CDF8A1000024A3
:101C58001D46D8688DF8A04001222146FFF7A0FB59
:101C6800E868214602234FF4E062FFF7BDF9002837
:101C780000F0AB847A4BB3F894516B1E0D2B2BD824
:101C8800784C9DF89C609DF89B30DFF8ECC104F11E
:101C9800BC07F60106EBC3360FCF0FC40FCF0FC436
:101CA8000FCF0FC497E8030084E80300A6FB0C01DC
:101CB800FFF73AF8DFED6C7A149A09EE100A29EE6C
:101CC800279A04F1900182ED239A04F18C003422C2
:101CD80003F012FB84ED309A644B624CD3ED506AEA
:101CE800D3ED585AD3ED574A93ED515A03F58E78F0
:101CF80008F11C0908F1240E19E077EEE67A35EEB2
:101D0800667A042387EE876A4246434492ED007A56
:101D1800D3ED007A564B77EEC77A9C4267EE867A07
:101D280077EE877A77EEE87AC4ED127A46D0F4EC4B
:101D3800017AF4EEE67AF1EE10FADED9F4EEE57AFD
:101D4800F1EE10FA31D50021082004230EEB8302AE
:101D580092ED007AF4EEC77ACA18F1EE10FAA3EB06
:101D6800010C00EB0307A0EB03064FEA520205D56E
:101D7800BCF1010F07D918461346E7E7012E4FEAD1
:101D880057021946F8D88A00131D0EEB810191ED10
:101D9800006A0EEB030191ED007A77EEC67A37EE12
:101DA800467A424487EE876AAFE777EEE47A35EE03
:101DB800E47A202387EE876A4A46A6E7AB1F032BFF
:101DC80060D90C2D5ED0202D00F0D3831F2D35D186
:101DD800149B93ED200B02F013FDB0EE409AF0EE49
:101DE800609A01F08DFB002800F08E869DF89D001A
:101DF800FEF710FB1F4B0022FEF786FB41EC100B91
:101E080002F0FEFC9DF89B309DF89C4051EC100BB5
:101E18001C44FEF751FE2318DBB2DB031649A3FB73
:101E28000101FEF781FF9FED157A0D4B07EE900A31
:101E380067EE877AB3F89451C3ED447A212D00F008
:101E48003284074BD3F80CA16B1E0D2B00F2B38321
:101E58004FF48032002380E0000000000000000002
:101E680060010020E801002000008025BC53000824
:101E7800200200200000903FDC82A5BA00008022EA
:101E880038550008C84C04F170060FCE0FC43368EB
:101E980023609DF89D00FEF7BDFA0022C34BFEF7B4
:101EA80033FB41EC100B02F0ABFC9DF89B409DF816
:101EB8009C3051EC100BE40304EBC314FEF7FCFD5B
:101EC800BB4904EB40139BB2A3FB0101FEF7E6FA02
:101ED800B84B0022FEF718FB06460F4632463B4633
:101EE800B5490020FEF758F902460B4630463946F8
:101EF800FEF734FC41EC100B02F00EFBA4A3D3E96F
:101F0800002351EC100BFEF7FFFAA3A3D3E900233B
:101F1800FEF744F902460B460020A849FEF71EFCCE
:101F2800FEF7EAFDA64A149BD2F80CA1C3F8880074
:101F3800D2F83431C2F83031D2F83831C2F83431FD
:101F4800D2F83C31C2F83831D2F84031C2F83C31CD
:101F5800C2F8400100234FF480329A49984C9DED15
:101F68002BBADDED2AAA0135A4F89451F0EE4B0AFC
:101F78008B61B0EE6A0A8A6102F0EAFB9DED2CAA39
:101F8800F0EE4A0A02F0E4FBDDED2D9AF0EE690A64
:101F980002F0DEFBDDED2E8AF0EE680A02F0D8FBD7
:101FA800F0EE4B0AB0EE409AB0EE6A0A02F0EEFB91
:101FB800F0EE400AB0EE4A0A02F0E8FBF0EE400A02
:101FC800B0EE690A02F0E2FBF0EE400AB0EE680AF1
:101FD80002F0DCFB94F8A33194ED49DAD4ED488A99
:101FE80094ED47BAD4ED46BAF0EE409A002B40F093
:101FF800B382012384F8A331149B93ED1CAB704A80
:1020080092ED127B8DED107B92ED107B92F8A23150
:10201800D2E914898DED127B002B40F05C820123FC
:1020280082F8A231149BD3E91667654A92ED1A7BB0
:102038008DED0A7B92ED187B8DED0C7B92ED167B76
:1020480092F8A131D2ED4ACA8DED0E7B002B40F0FB
:102058003382012382F8A131149BD3E90845584AF9
:1020680092ED207B8DED047B92ED1E7B8DED067B42
:1020780092ED1C7B92F8A03192ED4BCA8DED087B56
:10208800002B40F00982012382F8A031149BD3E988
:1020980002124D4BC3E91A12149AC3E91045D2E94A
:1020A8001845C3E90045D2E91A45C3E90245D2E912
:1020B8001E45C3E90645D2E91045C3E90845D2E9FA
:1020C8001245C3E90A45D2E91445C3E90C45D2E9EA
:1020D8000A45C3E91245D2E90C45C3E91445D2E9DA
:1020E8000E45C3E91645D2E90045C3E91845D2E9CA
:1020F8000445C3E91C45D2E9064583ED04ABC3E9B1
:102108001E45C3E90E675046FEF7A6F924A3D3E996
:102118000023FEF7F9F92A4C02460B46D4E90E01D2
:10212800FEF73CF8DFED297AB4EEE78AF1EE10FA13
:10213800C4E90E0140F26B81DFED257A9FED257A27
:102148007BEEA7BA3BEE27BA78EEA78AB4EEC78A29
:102158007DEE277AF1EE10FAC4ED46BA84ED47BA5F
:10216800C4ED488AC4ED497AC0F282810CA3D3E950
:102178000023DDE91201FEF711F8DFED177A104BA5
:10218800B4EEE78AF1EE10FA28E000BFAFF3008062
:1021980081D91E7E6597303F83DBB5DCE1796B3FE3
:1021A800FCA9F1D24D62503F200200200000903F70
:1021B800DC82A5BA0000D03C000014400000F03FCB
:1021C8006001002000040240E00000209A99594074
:1021D80000000000CDCC844066668640C3E910014B
:1021E800C0F24F81C4A3D3E90023DDE91001FDF754
:1021F800D5FFF1EE017AB4EEE78AF1EE10FA024665
:102208000B46C0F28B85BCA1D1E90001BE4CC4E9E4
:10221800122342464B46FDF7C1FFDFEDBC7AB4EE10
:10222800E79AF1EE10FAC4E91401DDE90E0180F233
:10223800B78000220023FDF7B1FFC4E9160100238F
:10224800DDE90C010022FDF7A9FFAF4BC3E9180136
:10225800DDE90A0100220023FDF7A0FFDFEDAC7ADB
:102268009FEDAC7AA84C77EEAC7AF4EEC79AF1EE13
:1022780010FAC4E91A01C4ED4A7ADDE908015AD90D
:1022880000220023FDF78AFFC4E91C010023DDE9D1
:1022980006010022FDF782FF9B4BC3E91E01DDE921
:1022A800040100220023FDF779FFDFED997A964BB0
:1022B80077EE8C7AC3E92001C3ED4B7A79B0BDEC97
:1022C8000C8BBDE8F08F904A92F89921012A00F012
:1022D800E384149A92F89120022A00F0EC848A4A46
:1022E80082ED5F7A92F89A21012A00F0FE8207EEC9
:1022F800903ADFED896AF8EE677AF4EEE67AF1EE65
:1023080010FAFFF6EAAADFED856AB4EEE67AF1EE96
:1023180010FA00F3B5859FED827AF4EEC77AF1EEF4
:1023280010FAFFF6DAAA14997E4A0023C1F892300F
:10233800754900F0C8BC70A3D3E90023FDF72EFF50
:10234800DFED797A704BF4EEE79AF1EE10FAC3E913
:102358001C019BD868A3D3E90023DDE90601FDF73A
:102368001DFFDFED727A684BF4EEE79AF1EE10FA92
:10237800C3E91E0193D860A3D3E90023DDE9040172
:10238800FDF70CFFDFED6A6ADFED6A7A9FED607A90
:10239800F4EEE69AF1EE10FA88BFF0EE477A86E797
:1023A80055A3D3E90023FDF7F9FEDFED637A564B19
:1023B800B4EEE79AF1EE10FAC3E91601FFF63FAF63
:1023C8004DA3D3E90023DDE90C01FDF7E7FEDFEDBE
:1023D8005B7A4D4BB4EEE79AF1EE10FAC3E91801B7
:1023E800FFF636AFDDE90A0143A3D3E90023FDF781
:1023F800D5FEDFED536ADFED4F7A9FED457AB4EEF7
:10240800E69AF1EE10FAB8BFF0EE477A28E7DFED6A
:10241800497A9FED4C7A3C4B7BEEA7BAB4EEC78A5B
:10242800F1EE10FAC3ED46BA00F27C849FED467ACD
:10243800354B3BEE27BAB4EEC78AF1EE10FA83EDBE
:1024480047BA00F22387B0EE087AB4EEC78AF1EEF5
:1024580010FA78EEA78A88BFDFED2D7AC3ED488A97
:102468008EBF7DEE277A7DEE277A274BC3ED497A1A
:102478000023DDE912010022FDF790FE224BC3E99B
:10248800100100220023DDE91001FDF787FE024656
:102498000B4600200021B9E6DFED2E7AB4EEE7CA3C
:1024A800F1EE10FAC0F2B480284B14990022C1E969
:1024B800022311461A46ECE5DFED267AF4EEE7CA68
:1024C800F1EE10FA4FF00004C0F2BD801F4D149BCE
:1024D800C3E90845C3E50AA3D3E9002340464946B2
:1024E800FEF798FA0026002800F0C580184F149BC4
:1024F800C3E9166799E500BFFCA9F1D24D62503FC8
:102508009A9999999999B93F6001002000009F43D1
:10251800000000000080884300401C460AD7233D85
:102528000060EA469A03002000808343000082434B
:1025380000007D436F12833A0080A1430080A643C8
:102548000080AB433333534066664640000010407A
:1025580000000840CDCCCC3D5FED027AB4EEE7DA5E
:10256800F1EE10FA3EDB9FEDCEAB149B83ED1CAB76
:1025780045E59DF89C309DF89B20CD49CD4CDB016D
:1025880003EBC233A3FB0101FEF7CEFB9FEDCA7A32
:1025980007EE900A67EE877A9DF89D00C4ED457AAC
:1025A800FDF738FFC54B0022FDF7AEFF149BD4F8AA
:1025B8000CA1C3E92001A5F11003112B94BF00233E
:1025C80001231A0482F48032C7E40122029206220F
:1025D80000920190034628A9E86826AAFEF7BAFDEA
:1025E800FFF748BBF0EE007AF4EEE78AF1EE10FA56
:1025F80080F27481F7EE007AB4EEE7BAF1EE10FAE1
:10260800C0F2D9839FEDA8AB149B83ED1CABF6E415
:102618000022DDE904014FF08043FEF7FBF90022B8
:10262800002840F03481DDE90601A54BFEF7F2F9F8
:10263800002800F0E8839FED9C7B149B52EC171B4D
:1026480083ED027B25E54FF08045DDE90A0122464E
:102658002B46FEF7DFF9002840F01281DDE90C0176
:10266800974B0022FEF7D6F9002800F0DE83149B72
:10267800C3E90845F3E44FF08047DDE9100132462D
:102688003B46FEF7C7F950B9DDE912018C4B002231
:10269800FEF7C0F90026002800F0C583884F149B78
:1026A800C3E91667C1E49DF89B10C8074908FDF700
:1026B800F5FE844B0022FDF727FF0F469DF89C107E
:1026C8000646C8074908FDF7E9FE7F4B0022FDF7DB
:1026D8001BFF02460B4630463946FDF75FFD0646AE
:1026E8009DF89D000F46FDF795FE744B0022FDF7FF
:1026F8000BFF02460B4630463946FDF74FFD41ECCD
:10270800100B02F07DF851EC100B02F061FC6F4ADF
:10271800A0FB0263002402FB0131A1424FDBB31985
:1027280044EB04029B1942F10002D20042EA5372C0
:10273800DB009B1942F1000296064A1820466441C4
:10274800521844F10004E40044EA5274D2005218CA
:1027580044F10001890646EA931641EA921192066D
:1027680094194FEA836341F100061946FEF7DCFA33
:10277800DFED577A08EE900A3146204678EEA78AB0
:10278800FEF7D2FAFDF768FE41EC100B402001F08D
:1027980005FF51EC100BFEF7AFF907EE900A77EE44
:1027A800A87A9FED4C7A434B67EE877A4FF48032D4
:1027B800C3ED437A17EE90AA0023FFF7CEBB76420B
:1027C80061EB4100B31944EB0402991942F100038B
:1027D800DB0043EA5173C900891943F10003021869
:1027E8004FEA836644EB0403121843F10003DB004D
:1027F80043EA5273D200121843F100039B0643EADE
:1028080092136FEA826846EA9116B8EB06006FEAFF
:10281800030767F1000389060CBF012222468018CE
:1028280043F1000350EA030240F0A38204461E4627
:102838009BE7149A92F89030002B00F0DB82012B72
:102848000ED11C49032381F89C31022382F8913070
:10285800FEF742BF149B93F89030012B7EF434AFFF
:10286800144B93F8A631002B3EF436AF114A0223DD
:1028780082F89C31149A032382F89130FEF72CBF1A
:10288800154D149B0024C3E90845FFF7E8BB124B1C
:102898001499C1E9022311461A46FFF7FABB00BF93
:1028A8000000000000001040000000000000004090
:1028B800026553AE60010020000080270000903FB1
:1028C8000000F03F0000A03E0000203EDC394159E6
:1028D800000000000000800A000008409FEDCAAB1D
:1028E800149B83ED1CABFFF78ABBCD4991F8A4314B
:1028F800002B40F0A682CA4BDFEDCA7AD3ED220A3C
:1029080093ED231AD3ED241A93ED252AD3ED262A25
:1029180093ED273A83F8A42170EEC80A31EE481ADD
:10292800F4EEE70A71EEC81A149AD3ED283A93ED3B
:10293800294AD3ED2A4A93ED2B5AD3ED2C5A93ED1D
:102948002D6AD3ED2E6A93ED2F7AF1EE10FA32EE5E
:10295800482AB4EEE71ACCBF0123002372EEC82A36
:10296800F1EE10FAF4EEE71A82F8923033EE483AB4
:10297800CCBF01230023F1EE10FAB4EEE72A82F867
:10298800933073EEC83ACCBF01230023F1EE10FA5E
:10299800F4EEE72A82F8943034EE484ACCBF01239B
:1029A8000023F1EE10FAB4EEE73A82F8953074EEAF
:1029B800C84ACCBF01230023F1EE10FAF4EEE73A3F
:1029C80082F8963035EE485ACCBF01230023F1EE49
:1029D80010FAB4EEE74A82F8973075EEC85ACCBFC1
:1029E80001230023F1EE10FAF4EEE74A82F898305A
:1029F80036EE486ACCBF01230023F1EE10FAB4EE9C
:102A0800E75A82F8993076EEC86ACCBF01230023D2
:102A1800F1EE10FAF4EEE75A82F89A3037EE487A77
:102A2800CCBF01230023F1EE10FAB4EEE76A82F876
:102A38009B30CCBF01230023F1EE10FAF4EEE76AD5
:102A480082F89C30CCBF01230023F1EE10FAB4EEDB
:102A5800E77A82F89D30CCBF01230023F1EE10FA0B
:102A6800F4EEE70A82F89E30CCBF01230023F1EE92
:102A780010FA82F89F3041DCB4EEE71AF1EE10FA52
:102A88003CDCF4EEE71AF1EE10FA37DCB4EEE72A94
:102A9800F1EE10FA32DCF4EEE72AF1EE10FA2DDC52
:102AA800B4EEE73AF1EE10FA28DCF4EEE73AF1EE8C
:102AB80010FA23DCB4EEE74AF1EE10FA1EDCF4EE6D
:102AC800E74AF1EE10FA19DCB4EEE75AF1EE10FA23
:102AD80014DCF4EEE75AF1EE10FA0FDCB4EEE76A14
:102AE800F1EE10FA0ADCF4EEE76AF1EE10FA05DC12
:102AF800B4EEE77AF1EE10FA7EF7EFAE484A00231B
:102B080082F8A431FEF7E9BEB0EE490AF0EE690A90
:102B180000F0D8FC00287FF469A9B0EE490AF0EE6D
:102B2800690A9FED3B1B01F0BFFC9DF89D0057EC27
:102B3800106BFDF76FFC00223B4BFDF7E5FC41EC09
:102B4800100B01F05DFE9DF89C309DF89B4051EC08
:102B5800100B1C44FDF7B0FF2318DBB2DC03002286
:102B6800002330463946FDF741FF002800F09B83DB
:102B7800304607F10041FDF79FFF43429BB204EB4B
:102B88004333FFF74BB90E9A219B169943EA820308
:102B980044EA4304069A0A9B43EA82021E9B47EAD8
:102BA800440741EA82021D9943EA470341EA430385
:102BB800089941EA82022099520041EA43030C999C
:102BC8004025CDE932239FED149BC223CDE92F3553
:102BD800490024AD31912FAC2E4654F8040BFDF773
:102BE80019FCB0EE491AF0EE691A41EC100B01F02D
:102BF8005BFC51EC100BFDF737FF34AB9C4206F839
:102C0800010BEAD1FFF71CB80000000000000840E3
:102C1800000000000000F0400000000000007040CC
:102C2800600100200AD7A33C0000903F8C4BD3EDF5
:102C3800439AFDF761FF07EE900AF4EEE79AF1EE8A
:102C480010FA05D4F4EEC99AF1EE10FA7EF781ADC8
:102C5800834A0023C2F89031032382F89D31804BC8
:102C680093F89E31012B7EF47AAD7D4ADFED7D7AB3
:102C780092ED627AB4EEE77AF1EE10FA3FDB82F871
:102C8800A631032382F89E31FEF769BD149A032307
:102C980082F89130FEF720BD714A92F8A5212AB139
:102CA800149A92F89120012A00F010826C4B83ED5F
:102CB8005F7AFEF712BE6A4914986B4A81ED5F7A13
:102CC8000023C0F89230C1F88C315360936093812F
:102CD8000123A1F89931FEF700BE614ADFED637A5E
:102CE80092ED607AB4EEE77AF1EE10FAC0F2CA819A
:102CF80082F8A631022382F89F31FEF7CEBDF0EEAE
:102D0800087AF4EEE78AF1EE10FA63D8544A82F8AA
:102D1800A631042382F89E31FEF721BD0020002150
:102D2800FFF774BADFED527A3BEE27BA78EEA78A3E
:102D38007DEE277A83ED47BAC3ED488AC3ED497A19
:102D4800FFF796BBFDF7D8FE454C07EE900AD4ED89
:102D5800439AF4EEE79AF1EE10FAFEF6FAACF4EEC6
:102D6800C99AF1EE10FA9CBF012384F89D31FEF751
:102D7800F0BC2046FDF7D8FFB6EB080607EE100AB0
:102D8800DFED3B7A67EB4701701E61F1000177EEDA
:102D9800C78AFDF7C9FFFDF75FFB41EC100B402028
:102DA80001F0FCFB51EC100BFDF7A6FE07EE900AB4
:102DB80078EEE77AF5E4F6EE007AF4EEE7BAF1EEAB
:102DC80010FA80F235819FED24AB149B83ED1CAB88
:102DD800FFF715B9DFED277AB4EEE78AF1EE10FABE
:102DE800C0F219811E4A82F8A631022382F89E3168
:102DF800FEF7B5BC1A4A012382F89C31149A82F86E
:102E08009130FEF769BCDDE908011B4B0022FDF794
:102E180001FE0021002840F0FC800022149BC3E939
:102E28000212FFF736B9002739E4DDE90E01124B2B
:102E38000022FDF7EFFD0024002800F0E7800F4D89
:102E480015E40023C1F88C31022381F89A31FEF78A
:102E580044BD00BFAFF30080000000000000000088
:102E6800600100200AD7A33C9A0300200080A643F3
:102E780000000000666686400000E03F0000F03F6A
:102E8800894ADFED8A7AD2ED220A92ED231AD2ED31
:102E9800241A92ED252AD2ED262A149992ED273A82
:102EA800D2ED283A92ED294AD2ED2A4A92ED2B5AD0
:102EB800D2ED2C5A92ED2D6AD2ED2E6A92ED2F7A30
:102EC80070EEC80A31EE481AF4EEE70A71EEC81A35
:102ED800F1EE10FA32EE482AB4EEE71ACCBF01231D
:102EE800002372EEC82AF1EE10FAF4EEE71A81F820
:102EF800923033EE483ACCBF01230023F1EE10FAAA
:102F0800B4EEE72A81F8933073EEC83ACCBF0123B8
:102F18000023F1EE10FAF4EEE72A81F8943034EE4B
:102F2800484ACCBF01230023F1EE10FAB4EEE73A89
:102F380081F8953074EEC84ACCBF01230023F1EE26
:102F480010FAF4EEE73A81F8963035EE485ACCBFDD
:102F580001230023F1EE10FAB4EEE74A81F8973026
:102F680075EEC85ACCBF01230023F1EE10FAF4EE37
:102F7800E74A81F8983036EE486ACCBF012300232F
:102F8800F1EE10FAB4EEE75A81F8993076EEC86A95
:102F9800CCBF01230023F1EE10FAF4EEE75A81F8D2
:102FA8009A30CCBF01230023F1EE10FAB4EEE76AA1
:102FB80081F89B3037EE487ACCBF01230023F1EE2D
:102FC80010FAF4EEE76A81F89C30CCBF01230023A5
:102FD800F1EE10FA81F89D30B4EEE77ACCBF012308
:102FE800002381F89E30F1EE10FA4FF00103F4EE61
:102FF800E70A82F89A3182F8A431D8BF0023F1EEAB
:1030080010FA81F89F307FF737AD77E50025FFF795
:103018002EBB274A02E7244BD3ED447A93ED457A39
:1030280077EEC77AF0EEE77AC3ED627AFEF797BBE0
:103038009FED1BABC9E61F4B24AD1B792B711E4BB3
:10304800D3F86E012860FEF7FBBD1C4B24AD1B793D
:103058002B71194BD3F873012860FEF7F1BD184B9B
:1030680024AD1B792B71144BD3F869012860FEF746
:10307800E7BD144B93E8030024AD28608DF8941045
:10308800FEF7DEBDFEF7C6F9074C84ED600AFEF7D1
:1030980089F984ED610AFEF700BC00BFAFF3008038
:1030A800000000000000F03F600100200AD7A33CA8
:1030B8000000F03F2A550008BC5300082F550008AF
:1030C800255500082055000800409C4507EE903A19
:1030D8005FED036AF8EE677AF4EEE67AF1EE10FA3D
:1030E800FFF6E4AD964BDFED977AD3ED5F6AF4EE29
:1030F800E76AF1EE10FA7FF7D9ADD3ED220A93ED26
:10310800231AD3ED241ADFED907A93ED252AD3ED17
:10311800262A93ED273A1499D3ED283A93ED294AB4
:10312800D3ED2A4A93ED2B5AD3ED2C5A93ED2D6A01
:10313800D3ED2E6A83F8A42170EEC80A31EE481A3E
:10314800F4EEE70A71EEC81AF1EE10FA32EE482AE8
:10315800B4EEE71A1A4683ED5F7A72EEC82ACCBF3E
:1031680001230023F1EE10FAF4EEE71A81F8923009
:1031780033EE483ACCBF01230023F1EE10FAB4EE47
:10318800E72A81F8933073EEC83ACCBF01230023B5
:10319800F1EE10FAF4EEE72A81F8943034EE484A5A
:1031A800CCBF01230023F1EE10FAB4EEE73A81F820
:1031B800953074EEC84ACCBF01230023F1EE10FA13
:1031C800F4EEE73A81F8963035EE485ACCBF012341
:1031D8000023F1EE10FAB4EEE74A81F8973075EE65
:1031E800C85ACCBF01230023F1EE10FAF4EEE74AE7
:1031F80081F8983036EE486ACCBF0123002392ED5F
:103208002F7A81F89930F1EE10FAB4EEE75ACCBF74
:103218000123002376EEC86AF1EE10FAF4EEE75ABD
:1032280081F89A3037EE487ACCBF01230023F1EEBB
:1032380010FAB4EEE76A81F89B30CCBF0123002373
:10324800F1EE10FAF4EEE76A81F89C30CCBF012366
:103258000023F1EE10FAB4EEE77A81F89D30CCBF86
:1032680001230023F1EE10FA81F89E30F4EEE70A0C
:10327800CCBF0123002381F89F30F1EE10FA4FF400
:103288008173A2F899317FF7F7AB37E4DFED2F7A36
:103298002B4B78EEA78A7DEE277AC3ED488AC3EDDB
:1032A800497AFFF7E5B830463946FDF705FC83B2A1
:1032B80004EB4333FEF7B2BD43EA4B0346EA430649
:1032C8001298109B1F9C43EA8003239840EA8404C9
:1032D80015984AEA460A40EA8300229B42EA4A02D3
:1032E80043EA840341EA4201C0005B009FED129B60
:1032F800CDE932014424319324ADC223CDE92F34E2
:103308002E462FAC54F8040BFDF784F8B0EE491A9A
:10331800F0EE691A41EC100B01F0C6F851EC100BF5
:10332800FDF7A2FB34ABA34206F8010BEAD1FEF786
:1033380087BC00BFAFF300800000000000007040B1
:10334800600100200AD7233D0AD7A33C00000000F3
:1033580070B51A4C1A4A96B00025012640F201238E
:1033680004F1100168460092ADF84430CDE90855E3
:10337800CDE90A55CDE90155C4E9045584F8A5619C
:103388002570257266608DF84650ADF85450A561D9
:1033980084F8246025772662FDF76EFD02234FF43A
:1033A800E0622946E060FDF71FFE267284F8285087
:1033B800E66284F8306016B070BD00BF600100207E
:1033C8000030014010B50E4C237882B023B96368F1
:1033D80001229342227007D094F8283013B90123B0
:1033E80084F8283002B010BD237A002BF4D04FF0B7
:1033F800FF330093E0681A461946FDF7CFFFEBE765
:103408006001002010B5094C23785A1C227023B1A2
:10341800074A23700121116010BD62B6FEF734F827
:1034280072B62378013BDBB2237010BDAA030020DB
:10343800AC030020F8B51F4C1F4D002727702F70D4
:1034480001DF00F055FF00F069F900F06DF800F0B9
:10345800A9FA00F0C3FA00F01BFA00F0CFF9174BF5
:103468001E683760FFF774FF72B69FED150A00F00B
:10347800ABF83368B3FA83F35B092B7062B662B6B4
:1034880006E03368003B18BF0123237023784BB94B
:103498002B7803F0FF07002BF3D1FFF793FF72B6E9
:1034A8003846F8BD4FF0E022136923F00103136199
:1034B800EEE700BFA9030020A8030020B8530008C6
:1034C8006F12833AF8B555EC104B25F000470B4BBB
:1034D8004FF0FF3220463946FDF7B0FA60B9074B86
:1034E800204639464FF0FF32FDF78AFA20B9002D01
:1034F800ACBF0120FF20F8BD0020F8BDFFFFEF7F23
:1035080008B553EC102B10461946FDF797FA00380A
:1035180018BF012008BD00BFB4EE400AF1EE10FA52
:103528006CBF012000207047704700BF30B50446CB
:1035380083B081B9114D6B6A019300F0FFFE0090D2
:103548006A6A019B9A4210D3009A019B4FF47A71E0
:1035580001FB023302E000F0F1FE0346181BA34210
:1035680038BF00F1FF3003B030BD00F0E7FE6B6AF2
:103578004FF47A7202FB0033F0E700BF000C004002
:1035880008B5BFF34F8FBFF36F8F094A0949136816
:1035980009688B4206D30123136072B6FFF732FF26
:1035A80062B608BD591C1160002BF6D008BD00BFDB
:1035B800B4030020B0030020024A536843F080534C
:1035C8005360704700ED00E0264BD3ED007AF8EE2B
:1035D800677A30B467EE807AFCEEE77A17EE903AB5
:1035E800B3F1807F1FD3F8EE676A9FED1F7A1F49FA
:1035F800C6EE877AFCEEE77A17EE902A0132B3FB23
:10360800F2F3013BB3F1807F0A601ED3184B194CCB
:1036180019491A480860F02200252560DA7783F8EE
:10362800222030BC70471149013B0022B3F1807F52
:103638000A60EBD24FF0E0210D484B61F0240723DC
:1036480080F823408A610B61E0E74FF0E0220848E8
:103658005361F0240021072380F82340916113610E
:10366800D4E700BF08000020FFFF7F4BB003002015
:1036780000ED00E0B4030020B803002089350008FD
:10368800EFF3008001B5EFF3118003B41EF0100FC3
:1036980008BFB0EE400A0A48006803B488B004A026
:1036A80006904FF0807007906FF0060086467047CE
:1036B80003BC8047BFF36F8F00DFFEE700BF000049
:1036C800B80300201EF0100F08BFB0EE400A1EF02D
:1036D800040F0CBFEFF30880EFF30980816911F83C
:1036E800020C10B101280DD00BE01EF0100F0CBF1A
:1036F8001AB008B003BC80F3118803BC80F30088BB
:103708000847FEE74EF61451CEF200010A6842F06F
:1037180001020A607047F4E700BF00BF324A13682D
:1037280023F0070343F0020310B51360136803F096
:103738000703022BFAD12D492D4B0A6822F4404287
:1037480042F400420A601A6822F0F80242F080024D
:103758001A601A6842F001021A601A689007FCD5CC
:1037680058682449224A014041F4A84141F0100117
:103778005960596821F4403141F480315960196821
:1037880041F08071196013689901FCD5174A536894
:103798005B04FCD5164CA36823F0F003A360A36870
:1037A80023F4E05343F48053A360A36823F46043F5
:1037B800A360A36823F0030343F00203A360A36894
:1037C80003F00C03082BFAD10B4800F0A5FC0020ED
:1037D80000F0ACF908B172B6FEE7D4F88C3023F0EB
:1037E8008073C4F88C3010BD003C0240007000406B
:1037F800003802400080BFFF00BD010530B593B01E
:1038080000242822002108A801F090FDCDE90544F4
:103818001C4B1D4D5A6C1D4842F480525A645A6C18
:1038280002F480520192019A1A6B42F001021A6363
:103838001B6B03F001030093E0220223CDE902236E
:1038480000990322052302A90492079300F036FB8E
:103858004FF482724FF40073CDE90842CDE90C436E
:1038680000220A2308A92846CDE91023CDE90A44F5
:103878000E940F9400F0CEFB6B6823F010036B607E
:1038880013B030BD00380240003001400000024053
:1038980070B5002490B0CDE90844CDE90A44CDE9DB
:1038A8000C44CDE904443B4B0E9406941A6C3A4DF3
:1038B80042F400321A641A6C02F400320192019A3E
:1038C8001A6B42F001021A631B6B0C2003F0010310
:1038D8000221CDE90201009302A907232F48009A8B
:1038E800079300F0EBFA2E4BD3F8882022F06062A1
:1038F80042F00062C3F88820D3F8882022F0C00282
:10390800C3F88820D3F8882022F44032C3F88820EE
:10391800D3F8882022F49072C3F88820D3F888203E
:1039280022F40072C3F88820D3F8882042F4806219
:10393800C3F88820D3F8882022F4C052C3F888201E
:10394800D3F8882022F4C042C3F88820D3F89C20FA
:1039580022F00402C3F89C204FF4E1360C22002325
:1039680008A92846CDE90C23CDE90864CDE90A4425
:103978000E9400F0E9FC2B6923F490432B616B69EA
:1039880023F02A036B61EB6843F40053EB6010B03B
:1039980070BD00BF003802400044004000000240F3
:1039A800006002400A4B0B481A6B0B4942F40012A4
:1039B8001A631B6B82B003F4001301930022019B6E
:1039C800C36881F810234FF480330B6002B070474E
:1039D8000038024000ED00E000E100E010B586B0DC
:1039E800314B3248002205921A6B42F004021A63E6
:1039F800196B01F0040103910399196B41F08001DF
:103A08001963196B01F0800102910299196B41F059
:103A180001011963196B01F0010101910199196BF9
:103A280041F0020119631B6B03F002030093009B32
:103A38004369F02223F0F00392FAA2F22AB1B2FA13
:103A480082F2022101FA02F21343184A4FF4005499
:103A5800536104A80122022304948DF814208DF8E0
:103A6800163000F05FFB94FAA4F4114BDA6834B115
:103A7800B4FA84F464000323A34022EA03020C4945
:103A8800CA604FF400530A6893FAA3F33BB1B3FA40
:103A980083F35B00032101FA03F322EA0302044BD8
:103AA8001A6006B010BD00BF00380240003801405F
:103AB80000080240034B02689A4200D0704700F0A9
:103AC80031BC00BF000C0040FEE700BFFEE700BFAE
:103AD800FEE700BFFEE700BFFEE700BF704700BF7C
:103AE800704700BF014800F049B900BFBC0300207F
:103AF80082B00D4B002100915A6C42F480425A6406
:103B08005A6C02F480420092009A01911A6C42F0B9
:103B180080521A641B6C03F080530193019B0720A9
:103B280002B000F089BB00BF0038024070B588B011
:103B3800234B002202921A6C42F008021A641B6C92
:103B480003F008030293054601A903A8029B00F0AD
:103B580051FB069BD3B900F03DFB0346194A1A4CAA
:103B68001A49A2FB03239B0C013B0022C4E9001362
:103B7800204640F2E7332261A260A261E36000F0D0
:103B88002BF8064630B1304608B070BD00F022FB75
:103B98004300E3E7204600F0B7F806460028F2D1D4
:103BA800322000F097FB0F2D01D90126EBE73246B2
:103BB8002946322000F052FB054B1D60E3E700BFA9
:103BC8000038024083DE1B43BC030020000C004089
:103BD80004000020704700BF00287DD038B590F859
:103BE8003D30044603F0FF02002B5CD022684449B4
:103BF800022384F83D308A42136859D0B2F1804FCD
:103C080020D0A1F57C418A421CD001F580618A420E
:103C180018D001F580618A4260D03A498A4215D0AD
:103C280001F580618A4211D001F580618A420DD088
:103C3800A5696168E06823F080032B431360D062B4
:103C4800916210E0A16823F070030B432069A16919
:103C580023F44073034323F08003E0680B43616857
:103C68001360D0629162012353611369DB0703D5A6
:103C7800136923F001031361012384F8463084F8A3
:103C88003E3084F83F3084F8403084F8413084F87E
:103C9800423084F8433084F8443084F8453084F85E
:103CA8003D30002038BD80F83C20FFF793FF9DE7AA
:103CB800A068216923F07003034323F440730B4386
:103CC800A16923F080030B431360E368D362636840
:103CD800936263691363C6E701207047A06821698E
:103CE80023F07003034323F440730B43A16923F0CB
:103CF80080030B431360E368D36263689362B2E79F
:103D0800000001400040014090F83D30012B27D1D0
:103D180003681449022280F83D20DA688B4242F099
:103D28000102DA6011D0B3F1804F0ED00E4A9342EF
:103D38000BD002F58062934207D002F5806293426D
:103D480003D002F59A32934204D19A6802F007022E
:103D5800062A03D01A6842F001021A600020704750
:103D6800012070470000014000040040704700BF78
:103D7800704700BF704700BF704700BF036870B549
:103D8800DE681D69A907044601D5B20751D4690741
:103D980001D572073AD42B0701D5300724D4EA0697
:103DA80001D5F30610D4E80701D5F10757D42A0640
:103DB80001D533065BD4680601D571065FD4AA061F
:103DC80001D5B30642D470BD23686FF010021A61A2
:103DD80008222277DB6913F4407F204663D0FFF77F
:103DE800C7FF00232377DEE723686FF008021A6114
:103DF80004222277DB699907204651D1FFF7B6FFE5
:103E08002046FFF7B7FF00232377C8E723686FF042
:103E180004021A61022222779B6913F4407F20462C
:103E28003BD1FFF7A3FF2046FFF7A4FF002323772A
:103E3800B1E76FF002021A61012202779B699B07C2
:103E480025D0FFF795FF00232377A0E723686FF0BD
:103E5800200220461A61BDE8704000F02BB82368A4
:103E68006FF001021A612046FFF724FE9FE72368DE
:103E78006FF080021A61204600F01EF89BE7236865
:103E88006FF040021A612046FFF776FF97E7FFF7C9
:103E98006DFF2046FFF76EFFD5E7FFF769FFC5E71F
:103EA800FFF766FFAFE7FFF761FF2046FFF762FF06
:103EB80097E700BF704700BF704700BF2DE9F04784
:103EC8000D6895FAA5F2002A7CD0B2FA82F235FA8A
:103ED80002F377D04FF0010C4FF0030E32E00F6978
:103EE800D0F80C8093FAA3F636B1B6FA86F67600C7
:103EF8000EFA06F628EA060893FAA3F6002E64D00E
:103F0800B6FA86F67600B74047EA0807022CC7607B
:103F180041D093FAA3F6076836B1B6FA86F676006A
:103F28000EFA06F627EA060793FAA3F3002B4ED0FB
:103F3800B3FA83F35B009C403C430460013235FADA
:103F480002F33FD00CFA02F32B40F7D04C68661E00
:103F5800012EC4D893FAA3F68F68D0F8088036B13A
:103F6800B6FA86F676000EFA06F628EA060893FAF6
:103F7800A3F6002E4AD0B6FA86F67600B74047EA8E
:103F8800080787604668CF6826EA030603FB07F739
:103F98003E434660A3E74F6993FAA3F6CEB1B6FA5B
:103FA80086F8B8F1070F14DC4FEA880807FA08F614
:103FB8004FF00F09076A09FA08F827EA08073E438D
:103FC8000662A6E70020BDE8F08740269BE740236D
:103FD800B1E71E0AD0F8248096FAA6F9B9F1000FC5
:103FE80009D0B9FA89F94FEA89094FF00F0A0AFA94
:103FF80009F928EA090896FAA6F64EB1B6FA86F63D
:10400800B600B74047EA0807476282E74026B5E7A7
:104018008026F6E703685B06024629D430B41468A4
:104028000B684D68486924F47F4C8C682B43234304
:10403800CC6823430C6923438C6903432343CC692D
:1040480023430C6A2CF0BF0C234343EA0C03136090
:10405800536823F0040343EA1043B4F5005F536048
:104068000CD0D36923F40063002030BCD3617047BF
:10407800D36923F400630120D36170478B8C1361EB
:10408800EFE700BF1F4A936803F00C03042B10B43A
:1040980035D0082B31D151681B4C1C4B11F4800FC3
:1040A800516808BF234601F03F01B3FBF1F35168A3
:1040B8005268C2F30142C1F38811013201FB03F3D4
:1040C8005200B3FBF2F30F4A03609168104CC1F33E
:1040D8000311615C0F4CCB4043609168C1F38221AE
:1040E800615C23FA01F181609268C2F34232A25CFA
:1040F8005DF8044BD340C3607047034BE3E7034BC1
:10410800E1E700BF003802400024F40000127A0002
:104118004056000838560008014B1860704700BF29
:1041280008000020027901680346CAB109B3427940
:10413800012A20D0022A29D032BB254A506820EA19
:104148000100506010680843106000209B7933B16B
:10415800022B34D0032B2AD0012B1FD0012070470B
:104168001B4B1A6822EA01021A605A6822EA010205
:104178005A6000207047164A106820EA0100106053
:10418800506808435060E0E70120DFE7104A1068F4
:1041980008431060506808435060D6E70C4BDA6853
:1041A80022EA0102DA609A680A439A607047084B6B
:1041B8009A680A439A60DA680A43DA607047044BDF
:1041C8009A6822EA01029A60DA680A43DA6070475C
:1041D800003C0140044B05499B68054A0868C3F345
:1041E8008223D35CD8407047003802400800002082
:1041F800385600080E4B0F2202609A6802F003023C
:1042080042609A6802F0F00282609A6802F4E05212
:10421800C2609B68DB0810B403F4E053054C0361EB
:1042280023685DF8044B03F007030B60704700BF79
:1042380000380240003C02400749CA6803024FF6B2
:10424800FF0003F4E0630240134343F0BF6343F409
:104258000033CB60704700BF00ED00E01B4BDB680C
:10426800C3F3022300B5C3F1070EBEF1040F03F137
:10427800040C28BF4FF0040EBCF1060F1CD9A3F1A3
:10428800030C4FF0FF3303FA0CF322EA03024FF05A
:10429800FF3303FA0EF321EA030303FA0CF3134383
:1042A8001B010028DBB20ADB00F1604000F5614029
:1042B80080F800335DF804FB00229446E7E7044ADF
:1042C80000F00F00024413765DF804FB00ED00E0F7
:1042D800FCEC00E0002807DB044A4109012300F058
:1042E8001F00834042F82130704700BF00E100E022
:1042F80008B50B4B1A6842F400721A601A6842F447
:1043080080621A601A6842F480721A600320FFF70C
:1043180093FF0020FFF70AFCFFF7EAFB002008BD27
:10432800003C0240034A044B11681B780B4413609D
:10433800704700BF0404002000000020014B1868EB
:10434800704700BF04040020C3689B0401D5012006
:10435800704730B54B68C2680D46C9680B43296978
:104368000B43A96922F4164222F00C020B431343B3
:10437800C3600369AA6823F4405313430361436984
:104388006A6923F44073134385B043610446684661
:10439800FFF778FE264B9C422BD0264B9C4205D03B
:1043A800254B9C4225D0012005B030BD029800283D
:1043B800F9D02B68002BF6D0AA691921B2F5004F65
:1043C800A0FB010117D09A009B0FFCF7F3FC1B49D7
:1043D800A1FB00325209642303FB12031B01323391
:1043E800A1FB0313120102EB53139BB2A36000203D
:1043F800DAE70398DBE7DA184FF000035B41FCF7D4
:10440800D9FC0E4AA2FB00314909642303FB1103BE
:10441800DB003233A2FB0323C3F342121B0902EB76
:10442800011203F4F87313449BB2A360DFE700BFE3
:104438000010014000440040001401401F85EB516A
:10444800034AD2F8883043F47003C2F888307047C2
:1044580000ED00E0DFF834D0FFF7F2FF0C480D491B
:104468000D4A002302E0D458C4500433C4188C42C7
:10447800F9D30A4A0A4C002301E013600432A2422D
:10448800FBD300F061FFFEF7D5FF704700800120E5
:10449800000000205C000020785600086000002022
:1044A80040050020FEE70000F8B52DED028B57EC23
:1044B800106B55EC114B00F027FA3046394622466E
:1044C8002B46B0EE408AF0EE608AFCF7B7FA30B9B6
:1044D8000022002320462946FCF77EFA30B9B0EEC8
:1044E800480AF0EE680ABDEC028BF8BD00F026FF22
:1044F800002200232121016010461946FCF72EF9FD
:1045080041EC180BB0EE480AF0EE680ABDEC028BDD
:10451800F8BD00BF0000000038B52DED028B55EC4A
:10452800104B00F079FB22462B4620462946B0EE78
:10453800408AF0EE608AFCF781FA98B900220023DD
:1045480020462946FCF770FA60B90022002320466D
:104558002946FCF741FA60B100F0F0FE9FED0C8BA4
:1045680022230360B0EE480AF0EE680ABDEC028B25
:1045780038BD00F0E3FEBDEC028B034621221A6031
:104588000548BDE8384000F0DBB800BFAFF3008055
:10459800000000000000F0FF5056000810B52DED97
:1045A800028BB0EE408AF0EE608A044600F030F8E4
:1045B80030B151EC180B00220023FCF70DFA30B192
:1045C800B0EE480AF0EE680ABDEC028B10BDB0EE02
:1045D800480AF0EE680A204600F026F8B0EE408A55
:1045E800F0EE608A00F014F838B151EC180B002294
:1045F8000023FCF7F1F90028E2D000F09FFEB0EEAE
:10460800480AF0EE680ABDEC028B2223036010BD55
:1046180082B08DED000B019840F0004000F580104D
:10462800C00F02B0704700BF70B555EC104BC5F312
:104638000A5206462B4672BB25F00043234329D075
:104648003B4B204629460022FBF75EFF394B9E4232
:1046580004460D4652DBC1F30A520B46363A4CF279
:1046680050318E4223DC164440F2FE7296421EDC24
:10467800002E34DC16F1350F38DB6FF31E53363657
:1046880043EA065520462C4B29460022FBF73CFFFF
:1046980041EC100B70BD40F2FF718A42DFD1224617
:1046A80020462946FBF77AFD41EC100B70BD002D22
:1046B80017A1D1E9000107DB15A3D3E90023FBF714
:1046C80023FF41EC100B70BD13A1D1E9000110A329
:1046D800D3E90023FBF718FF41EC100BF3E76FF366
:1046E8001E5343EA065545EC104B70BD002D0CA136
:1046F800D1E9000102DA0CA1D1E9000108A3D3E94C
:104708000023FBF701FF41EC100B70BDAFF30080F5
:104718009C7500883CE4377E9C7500883CE437FE35
:1047280059F3F8C21F6EA50159F3F8C21F6EA5818F
:1047380000005043B03CFFFF0000903C0000000028
:104748009FED010B704700BF000000000000F87FDC
:1047580008B52DED028BF0EE408AB0EE608A00F0CD
:1047680033F820B9B0EE480ABDEC028B08BDB0EEB4
:10477800480A00F029F820B1F4EEC88AF1EE10FAE0
:10478800F0DDB0EE680ABDEC028B08BD08B52DED72
:10479800028BF0EE408AB0EE608A00F015F820B97E
:1047A800B0EE480ABDEC028B08BDB0EE480A00F036
:1047B8000BF820B1F4EEC88AF1EE10FAF0D5B0EE9D
:1047C800680ABDEC028B08BD10EE103A33F00040C9
:1047D8000ED0A0F50003B3F1FE4F0DD3074B421ED8
:1047E8009A4207D9A0F1FF40B0FA80F0400970471B
:1047F800022070470320704704207047FEFF7F00A7
:1048080051EC100BC1F30A532DE9F041A3F2FF3527
:10481800132D0C46064632DC002D20DB384B43FABC
:1048280005F801EA080303430F462DD032A3D3E964
:104838000023FBF7B3FC00220023FCF7F5F840B196
:10484800002C03DA4FF480132B411F4427EA080495
:1048580000262346324643EC102BBDE8F08126A300
:10486800D3E90023FBF79AFC00220023FCF7DCF8CD
:104878000028EED0002C2ADB00263446E9E7332D49
:1048880006DDB5F5806F1BD041EC100BBDE8F0815B
:10489800A3F213434FF0FF37DF400742F4D016A3CB
:1048A800D3E90023FBF77AFC00220023FCF7BCF8CD
:1048B8000028CED0002C334610DB23EA0706C8E7D1
:1048C80002460B46FBF76AFC41EC100BDEE724F0CE
:1048D800004426430DD14FF00044BAE7142D06D00A
:1048E800C5F134050122AA401344B342E5D201348C
:1048F800E3E7044C0026ACE79C7500883CE4377E6F
:10490800FFFF0F000000F0BF53EC112B2DE9F0471B
:1049180023F0004852EA080155EC104B47D0B7493C
:1049280025F0004A8A45A94641D85042B44E40EA8B
:10493800020148EAD171B142964638D8C2451F46AD
:10494800214605F0004C3EDCC0F28480A24200F211
:10495800818000F0B580354245D1BAF1000F34D1DD
:10496800002C234640F32A81A64A5B00002B02F163
:10497800FF32FADCA24B3B40002B40F09380B8F1A9
:10498800000F40F0DF80BEF1000F73466DDC9D4ED6
:104998009D48801A1F2800F3F08002F21E4321FA76
:1049A80003F30AFA00FA43EA0A0381406AE0204660
:1049B8002946FBF7A9FD02460B46FBF7CFFE41EC63
:1049C800100BBDE8F08735420DD18F4A4FEACA2354
:1049D8005B00002B02F1FF32CCDD5B00002B02F103
:1049E800FF32F5DCC6E7864B4FEA2A523B40A2F27B
:1049F800FF3293B34FEA2850C9F31303A0F2FF36EE
:104A080043F48013A1EB0E00C7F3130545F480159A
:104A1800921B0BD163E0013858D4A1EB0E04E30FCD
:104A2800013A03EB40034FEA440156D07145A3EB2A
:104A38000500F0D30028A1EB0E0447DB50EA04037D
:104A4800EDD1724B4FEADC7C03EBCC0393ED000B0A
:104A5800BDE8F08745EC104BB3E7B8F1000F71D112
:104A6800BEF1000F734640F3B480664E5B00002B26
:104A780006F1FF36FADC644B9A4289DBC9F313036B
:104A880043F48013604CA41B1F2C4CDC06F21E451B
:104A98002EFA05F508FA04F00EFA04FE0543A1EB18
:104AA8000E00B5E7584CA41A4FEA28581F2CA8F254
:104AB800FF3672DD564B9B1A01FA03F30021A3E778
:104AC800524B03EB1C7393ED000B7AE7C80F013AC6
:104AD80000EB43034FEA4101A8D1A1EB0E005A1B9A
:104AE8008E4588BF02F1FF32002ABCBF08461A462D
:104AF80052EA000305D1A4E7C30F03EB42024000CA
:104B0800013EB2F5801FF7DB3F4B9E4223DBA2F547
:104B1800801242EA0C0106F2FF3641EA06530246C9
:104B280043EC102B4DE73A4D921BA5EB06050EFA08
:104B380005F518BF4FF0000E7FF478AF5A1B0846F2
:104B4800D2E7304A304E4FEAC8235B00002B06F10B
:104B5800FF36FADC8FE79B1B142B14DC06F21E4190
:104B6800D84002FA01F142FA03F3014343EA0C0C7C
:104B780063460A4643EC102B23E7254B9B1A01FAA0
:104B880003F300217EE71F2B13DC06F21E4120FAF7
:104B980003F302FA01F11943EAE702F21E4321FA8C
:104BA80003F30AFA04FA43EA0A03A140A1EB0E0050
:104BB8002AE71749891B42FA01F1D9E7104B3B4014
:104BC8007BB14FEA28500F4AA0F2FF36E30A61058D
:104BD800ECE7C9F313030B4E43F480130B2515249C
:104BE80056E7B8F1000FACD1BEF1000F054A734685
:104BF8003FF73BAF15201646CFE600BFFFFFEF7F1C
:104C08000000F07FEDFBFFFF02FCFFFF5856000895
:104C1800E2FBFFFF000000002DE9F04F51EC100B04
:104C2800B1F5801F87B00D4680F2828021F00043E5
:104C38000343024600F022810029C0F26981DA4B61
:104C48000022FBF761FCD94B0D469D426FF03502FF
:104C580073DC2C15C5F3130505F51523A4F2FF34F1
:104C680003F66473144403F4801304EB135483F0C1
:104C78007F5383F4401343EA05010022CC4BFBF732
:104C88008BFAAB1CC3F31303022B82468B464FF0FF
:104C980000025BDC0023FBF79FFE002840F0F98050
:104CA800ADA3D3E9002350465946FBF72DFC024635
:104CB8000B460020BF49FBF76FFA524606460F46DF
:104CC8005B4650465946FBF71FFC02460B463046EA
:104CD8003946FBF719FC06460F46002C00F00D81FB
:104CE8002046FBF7A7FB9EA3D3E90023804689460D
:104CF800FBF70AFC9CA3D3E9002304460D46404673
:104D08004946FBF701FC02460B4630463946FBF79D
:104D180043FA52465B46FBF73FFA02460B462046EB
:104D28002946FBF739FA41EC100B07B0BDE8F08FC4
:104D38009E4B9D424FF000028BDD02460B46FBF76F
:104D48002DFA41EC100B07B0BDE8F08F4FF080430F
:104D5800FBF724FA02460B4650465946FBF7FEFC81
:104D6800064620460F46FBF765FB3246CDE90401AF
:104D78003B4630463946CDE90267FBF7C5FB02469C
:104D88000B46CDE90023FBF7BFFB79A3D3E900234A
:104D980006460F46FBF7B8FB77A3D3E90023FBF7DA
:104DA800FDF932463B46FBF7AFFB75A3D3E9002379
:104DB800FBF7F4F932463B46FBF7A6FB72A3D3E9AF
:104DC8000023FBF7EBF9DDE90023FBF79DFB70A35C
:104DD800D3E90023CDE9000130463946FBF794FBBF
:104DE8006DA3D3E90023FBF7D9F932463B46FBF71D
:104DF8008BFB6BA3D3E90023FBF7D0F932463B4684
:104E0800FBF782FBA5F5C22802460B46C5F5D72558
:104E1800DDE90001FBF7C2F9A8F27A48513545EA05
:104E28000805002D06460F4652DD624B002250460B
:104E38005946FBF769FB52465B46FBF765FB804624
:104E480089463046394642464B46FBF7A7F9DDE925
:104E58000223FBF759FB06460F46002C62D1024697
:104E68000B4640464946FBF797F902460B46504623
:104E78005946FBF791F941EC100B64E70022002337
:104E88004D490020FBF76AFC41EC100B07B0BDE868
:104E9800F08F002C00F092802046FBF7CBFA30A36D
:104EA800D3E9002306460F46FBF72EFB2EA3D3E9D2
:104EB800002304460D4630463946FBF725FB0246DB
:104EC8000B4620462946FBF769F941EC100B3AE7F7
:104ED80002460B4650465946FBF75EF9DDE90223C8
:104EE800FBF712FB06460F463CB1DDE904891CA31B
:104EF800D3E9002340464946FAE632463B46504647
:104F08005946FBF749F941EC100B07B0BDE8F08FA3
:104F18000B46FBF741F900220023FBF71FFC41EC8D
:104F2800100B10E70EA3D3E90023DDE90401FBF71A
:104F3800EBFA0DA3D3E9002304460D46DDE904018D
:104F4800FBF7E2FA32463B46FBF728F902460B46E6
:104F580040464946DBE600BF555555555555D53FA2
:104F68000000E0FE422EE63F763C7935EF39EA3D17
:104F780044523EDF12F1C23FDE03CB966446C73F80
:104F8800599322942449D23F935555555555E53F99
:104F98009FC678D0099AC33FAF788E1DC571CC3FA4
:104FA80004FA97999999D93F00005043FFFFEF7F82
:104FB8000000F03F0000E03F000050C39FED020BEF
:104FC800C1E600BFAFF30080000000000000000051
:104FD80038B50022002304460D46FBF707FD28B923
:104FE80020462946BDE8384000F00AB8204605F1B9
:104FF800004100F005F8404261EB410138BD00BFB7
:10500800D0B50C4B002206460F46FBF77DFAFBF79E
:1050180053FD0446FBF7FEF9074B0022FBF774FA31
:1050280002460B4630463946FBF7B6F8FBF744FD17
:105038002146D0BD0000F03D0000F0412DE9F047C9
:10504800089D0E4604460F46002B4AD194468C45CF
:10505800B2FA82F260D942B1C2F12003974020FA35
:1050680003F30CFA02FC1F4394404FEA1C4E1FFA4C
:105078008CF6B7FBFEF1230C0EFB117743EA0743CE
:1050880001FB06F098420AD91CEB030301F1FF3734
:1050980080F01581984240F21281023963441B1A4C
:1050A800A4B2B3FBFEF00EFB103344EA034400FB4A
:1050B80006F6A6420AD91CEB040400F1FF3380F07F
:1050C8000081A64240F2FD806444023840EA014073
:1050D800A41B00211DB1D4400023C5E90043BDE84D
:1050E800F0878B4205D90DB1C5E9000100210846BA
:1050F800F5E7B3FA83F1002946D1B34202D38242DD
:1051080000F2F580841A66EB030201201746002D91
:10511800E5D0C5E90047E2E7002A40F09380A1EB1B
:105128000C034FEA1C471FFA8CFE0121B3FBF7F66C
:1051380007FB1630230C43EA00430EFB06F09842A7
:1051480008D91CEB030306F1FF3802D2984200F29B
:10515800D08046461B1AA4B2B3FBF7F007FB103306
:1051680044EA03440EFB00FEA64508D91CEB0404E0
:1051780000F1FF3302D2A64500F2B6801846A4EB30
:105188000E0440EA0640A5E7C1F120078B4022FA49
:1051980007FC4CEA030C06FA01FE20FA07F426FA8B
:1051A80007F344EA0E0400FA01F84FEA1C404FEAFC
:1051B8001449B3FBF0FE1FFA8CF600FB1E3349EAD4
:1051C80003430EFB06F9994502FA01F20BD91CEBD1
:1051D80003030EF1FF3A80F08580994540F2828002
:1051E800AEF1020E6344A3EB0909A4B2B9FBF0F3D4
:1051F80000FB139944EA094403FB06F6A64208D9C2
:105208001CEB040403F1FF3068D2A64266D9023BC6
:10521800644443EA0E40A41BA0FB02E6B442734672
:10522800B14652D34FD05DB1B8EB030264EB090429
:1052380004FA07F722FA01F31F43CC40C5E90074CA
:1052480000214CE7C2F1200120FA01F30CFA02FC1C
:1052580026FA01F1964033434FEA1C471FFA8CFEA9
:10526800B1FBF7F007FB1016190C41EA064100FBE9
:105278000EF68E4204FA02F408D91CEB010100F183
:10528800FF382DD28E422BD902386144891B9BB23C
:10529800B1FBF7F607FB161143EA014306FB0EF1D3
:1052A800994208D91CEB030306F1FF3814D299423E
:1052B80012D9023E63445B1A46EA004136E7394692
:1052C800EDE6184602E7F045ADD2BEEB020366EB09
:1052D8000C060138B146A6E74646ECE7034698E7D0
:1052E8004046D3E7D6467EE76444023847E7084697
:1052F8000DE7023E63442DE7884210B501EB020436
:1053080002D98442234607D8431EA14208D011F887
:10531800012B03F8012FF8E7024401468A4200D125
:1053280010BD13F8014D02F8014DF7E7024403469A
:10533800934200D1704703F8011BF9E7014B186845
:10534800704700BF0C00002070B50D4D0D4C641B5C
:10535800A4100026A64209D10B4D0C4C00F018F8F9
:10536800641BA4100026A64205D170BD55F8043B65
:1053780098470136EEE755F8043B98470136F2E7BF
:1053880070560008705600087056000874560008D9
:10539800F8B500BFF8BC08BC9E467047F8B500BF1A
:0853A800F8BC08BC9E467047EA
:1053B000102840587088A0B8D8000020BC74933CD6
:1053C0008FC2753CF4FD543CA69B443CA69B443CD8
:1053D000A69B443CA69B443CA69B443CA69B443CC9
:1053E000F4FD543C8FC2753C5839343CBC74133CBA
:1053F0006F12033C4260E53B4260E53B4260E53BA7
:105400004260E53B4260E53B4260E53B6F12033C96
:10541000BC74133C0AD7A33B6F12833BA69B443B4F
:10542000A69B443BA69B443BA69B443BA69B443B7C
:10543000A69B443BA69B443BA69B443B6F12833BED
:105440006F12833BA69B443B6F12033B6F12033BDF
:105450006F12033B6F12033B6F12033B6F12033B50
:105460006F12033B6F12033BA69B443BA69B443B3E
:105470006F12033B6F12033B6F12833A6F12833A32
:105480006F12833A6F12833A6F12833A6F12833A24
:105490006F12833A6F12033B00000000CDCCCC3D6D
:1054A000CDCC4C3E9A99993ECDCCCC3E0000003FED
:1054B0009A99193F3333333FCDCC4C3F6666663FF4
:1054C0000000803F339383433393884333139543E2
:1054D00033939C433313A44300000000CDCCCC3D58
:1054E0000000803E6666E63E52B81E3F14AE473F5F
:1054F000AE47613F3333733F0000803F00004040C0
:105500009A99594066666640CDCC6C4033337340FF
:105510009A99794000008040333383406666864024
:10552000C210400039C20C20003783EC0000108309
:10553000E000001600000000000000000000F03F46
:10554000000000000000F03F00000000000000002C
:10555000000000000000000000000000000000004B
:105560000000000000000000000000000000F03F0C
:10557000000000000000000000000000000000002B
:10558000000000000000F03F0000000000000000EC
:10559000000000000000000000000000000000000B
:1055A00000000000000000000000000000000000FB
:1055B0000000000000000000000000000000F03FBC
:1055C000000000000000F03F0000000000000000AC
:1055D00000000000000000000000000000000000CB
:1055E0000000000000000000000000000000F03F8C
:1055F00000000000000000000000000000000000AB
:10560000000000000000F03F00000000000000006B
:10561000000000000000000000000000000000008A
:10562000000000000000F03F00000000000000004B
:105630000000000000000000000000000102030460
:105640000000000000000000010203040607080932
:10565000000000000000000000000000000000004A
:085660000000000000000080C2
:08566800DCF9FF7F01000000E6
:04567000590E0008C7
:04567400310E0008EB
:1056780001000000100000000024F40010000020C9
:10568800000000000804002070040020D804002056
:105698000000000000000000000000000000000002
:1056A80000000000000000000000000000000000F2
:1056B80000000000000000000000000000000000E2
:0C56C800000000000000000000000000D6
:040000050800445D4E
:00000001FF
