:020000040800F2
:10000000008001204D350008C12B0008C52B0008D9
:10001000C92B0008CD2B0008D12B000800000000E0
:10002000000000000000000000000000BD270008E4
:10003000D52B00080000000079270008B126000831
:100040009D3500089D3500089D3500089D35000848
:100050009D3500089D3500089D3500089D35000838
:100060009D3500089D3500089D3500089D35000828
:100070009D3500089D3500089D3500089D35000818
:10008000D92B00089D3500089D35000800000000B0
:100090000000000000000000000000009D35000886
:1000A0009D3500089D3500089D3500089D350008E8
:1000B0009D3500089D3500089D3500089D350008D8
:1000C0009D3500089D3500089D3500089D350008C8
:1000D0009D3500089D3500089D3500080000000092
:1000E0009D3500089D3500089D3500080000000082
:1000F0000000000000000000000000009D35000826
:10010000000000009D350008DD2B00089D3500082B
:1001100000000000000000000000000000000000DF
:100120009D3500089D3500089D3500089D35000867
:100130009D350008000000000000000000000000E5
:100140000000000000000000000000009D350008D5
:100150009D3500089D3500089D3500089D35000837
:100160009D3500089D3500080000000000000000DB
:10017000000000000000000000000000000000007F
:10018000000000009D350008000000000000000095
:040190009D35000891
:1001980081F0004102E000BF83F0004330B54FEA30
:1001A80041044FEA430594EA050F08BF90EA020F9D
:1001B8001FBF54EA000C55EA020C7FEA645C7FEA30
:1001C800655C00F0E2804FEA5454D4EB5555B8BF53
:1001D8006D420CDD2C4480EA020281EA030382EAC4
:1001E800000083EA010180EA020281EA0303362D56
:1001F80088BF30BD11F0004F4FEA01314FF4801C29
:100208004CEA113102D0404261EB410113F0004F3A
:100218004FEA03334CEA133302D0524263EB4303F1
:1002280094EA050F00F0A780A4F10104D5F1200E8F
:100238000DDB02FA0EFC22FA05F2801841F10001EA
:1002480003FA0EF2801843FA05F359410EE0A5F1BE
:1002580020050EF1200E012A03FA0EFC28BF4CF0EF
:10026800020C43FA05F3C01851EBE37101F00045A5
:1002780007D54FF0000EDCF1000C7EEB00006EEBB2
:100288000101B1F5801F1BD3B1F5001F0CD349083C
:100298005FEA30004FEA3C0C04F101044FEA445293
:1002A80012F5800F80F09A80BCF1004F08BF5FEA1A
:1002B800500C50F1000041EB045141EA050130BDFA
:1002C8005FEA4C0C404141EB0101013C28BFB1F50C
:1002D800801FE9D291F0000F04BF01460020B1FA57
:1002E80081F308BF2033A3F10B03B3F120020CDA2A
:1002F8000C3208DD02F1140CC2F10C0201FA0CF008
:1003080021FA02F10CE002F11402D8BFC2F1200C6C
:1003180001FA02F120FA0CFCDCBF41EA0C01904022
:10032800E41AA2BF01EB0451294330BD6FEA04046B
:100338001F3C1CDA0C340EDC04F11404C4F1200256
:1003480020FA04F001FA02F340EA030021FA04F368
:1003580045EA030130BDC4F10C04C4F1200220FABF
:1003680002F001FA04F340EA0300294630BD21FAFD
:1003780004F0294630BD94F0000F83F4801306BFC3
:1003880081F480110134013D4EE77FEA645C18BFB7
:100398007FEA655C29D094EA050F08BF90EA020F4E
:1003A80005D054EA000C04BF1946104630BD91EA46
:1003B800030F1EBF0021002030BD5FEA545C05D149
:1003C8004000494128BF41F0004130BD14F5800488
:1003D8003CBF01F5801130BD01F0004545F0FE41FC
:1003E80041F470014FF0000030BD7FEA645C1ABF31
:1003F800194610467FEA655C1CBF0B46024650EA68
:10040800013406BF52EA033591EA030F41F4002193
:1004180030BD00BF90F0000F04BF0021704730B519
:100428004FF4806404F132044FF000054FF00001EE
:1004380050E700BF90F0000F04BF0021704730B5AF
:100448004FF4806404F1320410F0004548BF404284
:100458004FF000013EE700BF42004FEAE2014FEAD9
:1004680031014FEA02701FBF12F07F4393F07F4FB4
:1004780081F06051704732F07F4208BF704793F0B7
:100488007F4F04BF41F40021704730B54FF46074CA
:1004980001F0004521F000411CE700BF50EA0102CD
:1004A80008BF704730B54FF000050AE050EA010276
:1004B80008BF704730B511F0004502D5404261EBE6
:1004C80041014FF4806404F132045FEA915C3FF427
:1004D800D8AE4FF003025FEADC0C18BF03325FEAC4
:1004E800DC0C18BF033202EBDC02C2F1200300FA75
:1004F80003FC20FA02F001FA03FE40EA0E0021FA9A
:1005080002F11444BDE600BF70B54FF0FF0C4CF487
:10051800E06C1CEA11541DBF1CEA135594EA0C0F39
:1005280095EA0C0F00F0DEF82C4481EA030621EA74
:100538004C5123EA4C5350EA013518BF52EA0335AF
:1005480041F4801143F4801338D0A0FB02CE4FF061
:100558000005E1FB02E506F00042E0FB03E54FF091
:100568000006E1FB03569CF0000F18BF4EF0010E89
:10057800A4F1FF04B6F5007F64F5407404D25FEA85
:100588004E0E6D4146EB060642EAC62141EA555138
:100598004FEAC52040EA5E504FEACE2EB4F1FD0C7A
:1005A80088BFBCF5E06F1ED8BEF1004F08BF5FEAF8
:1005B800500E50F1000041EB045170BD06F00046AA
:1005C80046EA010140EA020081EA0301B4EB5C0457
:1005D800C2BFD4EB0C0541EA045170BD41F480114F
:1005E8004FF0000E013C00F3AB8014F1360FDEBF74
:1005F800002001F0004170BDC4F10004203C35DA50
:100608000C341BDC04F11404C4F1200500FA05F3D2
:1006180020FA04F001FA05F240EA020001F0004273
:1006280021F0004110EBD37021FA04F642EB0601E9
:100638005EEA430E08BF20EAD37070BDC4F10C0413
:10064800C4F1200500FA04F320FA05F001FA04F2D7
:1006580040EA020001F0004110EBD37041F10001C3
:100668005EEA430E08BF20EAD37070BDC4F12005CE
:1006780000FA05F24EEA020E20FA04F301FA05F236
:1006880043EA020321FA04F001F0004121FA04F2DE
:1006980020EA020000EBD3705EEA430E08BF20EAAE
:1006A800D37070BD94F0000F0FD101F000464000E8
:1006B80041EB010111F4801F08BF013CF7D041EA6A
:1006C800060195F0000F18BF704703F0004652006E
:1006D80043EB030313F4801F08BF013DF7D043EA3F
:1006E8000603704794EA0C0F0CEA135518BF95EAF5
:1006F8000C0F0CD050EA410618BF52EA4306D1D17C
:1007080081EA030101F000414FF0000070BD50EA9A
:10071800410606BF1046194652EA430619D094EA24
:100728000C0F02D150EA013613D195EA0C0F05D10E
:1007380052EA03361CBF104619460AD181EA030162
:1007480001F0004141F0FE4141F470014FF000001A
:1007580070BD41F0FE4141F4780170BD70B54FF0B5
:10076800FF0C4CF4E06C1CEA11541DBF1CEA135535
:1007780094EA0C0F95EA0C0F00F0A7F8A4EB050417
:1007880081EA030E52EA03354FEA013100F088800E
:100798004FEA03334FF0805545EA131343EA1263D7
:1007A8004FEA022245EA111545EA10654FEA00268C
:1007B8000EF000419D4208BF964244F1FD0404F545
:1007C800407402D25B084FEA3202B61A65EB0305A1
:1007D8005B084FEA32024FF480104FF4002CB6EB5E
:1007E800020E75EB030E22BFB61A754640EA0C00DE
:1007F8005B084FEA3202B6EB020E75EB030E22BF1E
:10080800B61A754640EA5C005B084FEA3202B6EB5E
:10081800020E75EB030E22BFB61A754640EA9C001D
:100828005B084FEA3202B6EB020E75EB030E22BFED
:10083800B61A754640EADC0055EA060E18D04FEAAB
:10084800051545EA16754FEA06164FEAC30343EA4B
:1008580052734FEAC2025FEA1C1CC0D111F4801F18
:100868000BD141EA00014FF000004FF0004CB6E711
:1008780011F4801F04BF01430020B4F1FD0C88BFB0
:10088800BCF5E06F3FF6AFAEB5EB030C04BFB6EBBB
:10089800020C5FEA500C50F1000041EB045170BDAE
:1008A8000EF0004E4EEA113114EB5C04C2BFD4EBDB
:1008B8000C0541EA045170BD41F480114FF0000E5F
:1008C800013C90E645EA060E8DE60CEA135594EADB
:1008D8000C0F08BF95EA0C0F3FF43BAF94EA0C0FDE
:1008E8000AD150EA01347FF434AF95EA0C0F7FF453
:1008F80025AF104619462CE795EA0C0F06D152EAA7
:1009080003353FF4FDAE1046194622E750EA41068A
:1009180018BF52EA43067FF4C5AE50EA41047FF49B
:100928000DAF52EA43057FF4EBAE12E74FF0FF3C00
:1009380006E000BF4FF0010C02E000BF4FF0010CD1
:100948004DF804CD4FEA410C7FEA6C5C4FEA430C4A
:1009580018BF7FEA6C5C1BD001B050EA410C0CBF99
:1009680052EA430C91EA030F02BF90EA020F0020FB
:10097800704710F1000F91EA030F58BF994208BF62
:1009880090422CBFD8176FEAE37040F0010070471F
:100998004FEA410C7FEA6C5C02D150EA013C07D176
:1009A8004FEA430C7FEA6C5CD6D152EA033CD3D0C1
:1009B8005DF8040B704700BF8446104662468C46BB
:1009C8001946634600E000BF01B5FFF7B7FF0028EE
:1009D80048BF10F1000F01BD4DF808EDFFF7F4FF17
:1009E8000CBF012000205DF808FB00BF4DF808EDA2
:1009F800FFF7EAFF34BF012000205DF808FB00BFC5
:100A08004DF808EDFFF7E0FF94BF012000205DF8E6
:100A180008FB00BF4DF808EDFFF7CEFF94BF01209B
:100A280000205DF808FB00BF4DF808EDFFF7C4FF94
:100A380034BF012000205DF808FB00BF4FEA410CDD
:100A48007FEA6C5C02D150EA013C0AD14FEA430CC0
:100A58007FEA6C5C02D152EA033C02D14FF00000FD
:100A680070474FF0010070474FEA410212F500123B
:100A780015D211D56FF47873B3EB625212D94FEADD
:100A8800C12343F0004343EA505311F0004F23FAC7
:100A980002F018BF404270474FF00000704750EA1C
:100AA800013005D111F0004008BF6FF000407047D9
:100AB8004FF00000704700BF4A0011D212F5001233
:100AC80011D20DD56FF47873B3EB62520ED44FEA9E
:100AD800C12343F0004343EA505323FA02F070471E
:100AE8004FF00000704750EA013002D14FF0FF305C
:100AF80070474FF0000070474FEA4102B2F1E043FF
:100B080024BFB3F5001CDCF1FE5C0DD901F0004CEC
:100B18004FEAC0024CEA5070B2F1004F40EB83003C
:100B280008BF20F00100704711F0804F21D113F168
:100B38003872BCBF01F00040704741F480114FEAA1
:100B48005252C2F11802C2F1200C10FA0CF320FA2A
:100B580002F018BF40F001004FEAC1234FEAD32347
:100B680003FA0CFC40EA0C0023FA02F34FEA4303B1
:100B7800CCE77FEA625307D150EA01331EBF4FF03A
:100B8800FE4040F44000704701F0004040F0FE4055
:100B980040F40000704700BF80F0004002E000BF52
:100BA80081F0004142001FBF5FEA410392EA030F50
:100BB8007FEA226C7FEA236C6AD04FEA1262D2EB9A
:100BC8001363C1BFD218414048404140B8BF5B429F
:100BD800192B88BF704710F0004F40F4000020F038
:100BE8007F4018BF404211F0004F41F4000121F04E
:100BF8007F4118BF494292EA030F3FD0A2F1010298
:100C080041FA03FC10EB0C00C3F1200301FA03F1D5
:100C180000F0004302D5494260EB4000B0F5000FF8
:100C280013D3B0F1807F06D340084FEA310102F1B7
:100C38000102FE2A51D2B1F1004F40EBC25008BF69
:100C480020F0010040EA03007047490040EB000033
:100C5800013A28BFB0F5000FEDD2B0FA80FCACF134
:100C6800080CB2EB0C0200FA0CF0AABF00EBC25061
:100C780052421843BCBFD0401843704792F0000F4F
:100C880081F4000106BF80F400000132013BB5E7A2
:100C98004FEA41037FEA226C18BF7FEA236C21D018
:100CA80092EA030F04D092F0000F08BF084670477D
:100CB80090EA010F1CBF0020704712F07F4F04D14B
:100CC800400028BF40F00040704712F100723CBF5E
:100CD80000F50000704700F0004343F0FE4040F488
:100CE800000070477FEA226216BF08467FEA236346
:100CF8000146420206BF5FEA412390EA010F40F431
:100D0800800070474FF0000304E000BF10F000437C
:100D180048BF40425FEA000C08BF704743F0964363
:100D280001464FF000001CE050EA010208BF70477E
:100D38004FF000030AE000BF50EA010208BF704705
:100D480011F0004302D5404261EB41015FEA010C1A
:100D580002BF84460146002043F0B64308BFA3F112
:100D68008053A3F50003BCFA8CF2083AA3EBC253F4
:100D780010DB01FA02FC634400FA02FCC2F1200213
:100D8800BCF1004F20FA02F243EB020008BF20F04A
:100D98000100704702F1200201FA02FCC2F12002B0
:100DA80050EA4C0021FA02F243EB020008BF20EAA5
:100DB800DC70704753B94AB9002908BF00281CBF26
:100DC8004FF0FF314FF0FF3000F00CB8ADF1080CD8
:100DD8006DE904CE03F0AAF9DDF804E0DDE90223A9
:100DE80004B07047704700BF0348044B834202D0E9
:100DF800034B03B1184770476400002064000020CB
:100E0800000000000548064B1B1AD90F01EBA3018F
:100E1800491002D0034B03B1184770476400002003
:100E2800640000200000000010B5064C237843B988
:100E3800FFF7DAFF044B13B10448AFF30080012336
:100E4800237010BD680000200000000088440008DE
:100E580008B5054B1BB105490548AFF30080BDE84F
:100E68000840FFF7CFBF00BF000000006C00002063
:100E780088440008000000000346084623B119B161
:100E8800554A1968914200D070472DE9F041534AFC
:100E980093F8464092F846C092F845E011604CEA53
:100EA800040C82F846C093F8444092F844C0D061DC
:100EB8004CEA040C93F8454082F844C04EEA040E0C
:100EC80093F8464082F845E0E50738D59FED407B2A
:100ED8009D6A956200261D6A15621CF0040F82ED5A
:100EE8000C7B82F8406061D11CF0100F27D093F87A
:100EF80054703B4E16F807C05E6882F8547006EBD3
:100F08000C08384FC8F80870C8F80C50D8F80470A6
:100F1800056956606FF30F073D43C8F8045056F84B
:100F28000C5045F0100546F80C504D6845F0010589
:100F38004D6056F80C1041F0010146F80C10A1075D
:100F48000FD59FED237BD96A5C6AD1621EF0200F12
:100F58004FF0000182ED0E7B5462916182F85610C9
:100F68000ED11D4902600B6803F44443B3F5004FEA
:100F780021D0194A136843F040031360BDE8F0819B
:100F88009968174D93F8553082F85530EB5C154E3B
:100F98009160CD18EC60AE60CC5844F01004CC5091
:100FA8000D494B6843F002034B60DAE74D6845F0A2
:100FB80040054D60C3E70B6803F48273B3F5827F85
:100FC800D7D10B6823F040030B60D7E7AFF300805D
:100FD80000000000000000000030014088000020F0
:100FE800A04400080C300140002800F0B08010B484
:100FF80000680144C2F3072C91F84E401CB1B0F8C8
:101008004C409C426BD0A0F84C30426100680468A8
:10101800640616D5046814F4444F56D0046804F4E2
:101028004444B4F5806F53D0046804F44444B4F5E0
:10103800004F4DD084682406FCD4046824F0400492
:101048000460002B2ED10368DC0703D5036823F066
:101058000103036003689C0703D4036843F0020399
:101068000360036803F400639A420AD00368BCF182
:10107800080F94BF0022012223F4006343EAC2232D
:101088000360036803F44443B3F5004F2BD00368AF
:1010980043F040030360012381F84E3000205DF8DF
:1010A800044B7047012B3FD0022B036844D0DC0768
:1010B80003D4036843F00103036003689B07D0D59A
:1010C800036823F002030360CBE784682406FCD49A
:1010D800046824F040040460002BE3D1B3E74469BA
:1010E800944290D1DAE7036803F48273B3F5827F00
:1010F800CDD103685C06CED5036813F4444F22D0E3
:10110800036803F44443B3F5806F08D0036803F41D
:101118004443B3F5004F02D083681B06FCD4036830
:1011280023F040030360B6E70368DB0792D4036843
:1011380043F0010303608DE7DB07BED5036823F0A6
:1011480001030360B9E783681A06FCD4E7E791F85E
:101158004E30FFDE2DE9F04F83B0CDE90021DDF8F8
:101168003080BDF834900E9F04461E4602F05EF9AA
:10117800054604B1246823681A68B9F1000F08BF4E
:101188000027510603D41A6842F040021A6016F08C
:10119800FF066CD14FF0010BB146C145CA4654D386
:1011A80046453CD223689B680121284601F036FA5F
:1011B800B84200F2A88023689A68D00705D546454A
:1011C80003D2BBF1000F00F096800121284601F000
:1011D80025FAB8422BD8C245DFD3B0454FF00101FC
:1011E80028461CD923689B6801F018FA03469F42D9
:1011F8004FF001012846C0F0868023689A68D2071C
:1012080011D5BBF1000F0ED1009A1B7B93550E44EC
:10121800B6B2B0458B4628464FF00101E2D800200F
:1012280003B0BDE8F08F01F0F9F98742D5D2226802
:10123800136803F48273B3F5827F02D193681906A9
:10124800FCD4012003B0BDE8F08F23689A689207A8
:10125800AAD5BBF1000FA7D0019A12F809201A737A
:1012680009F101091FFA89F94FF0000BA3E7012ED4
:10127800D5D1B3460026B146C145CA4651D34645E5
:10128800CDD223689B680121284601F0C7F9B842EE
:1012980074D823689A68D00757D5464555D2BBF10C
:1012A800000F52D1009ADB6822F816300136B6B228
:1012B8004FF0010BC245DFD3B0454FF00101AED965
:1012C800236828469B6801F0A9F9874256D323680A
:1012D8009A68D2074BD5BBF1000F48D1009ADB685A
:1012E80022F816300136B6B2B0454FF0010B4FF078
:1012F8000101E5D893E7009A1B7B93550136B6B2F6
:101308004FF0010B67E72268136803F48273B3F5A3
:10131800827F96D193681C0693D593681C06F9D4EE
:101328008FE723689A689207ADD5BBF1000FAAD062
:10133800019A32F819209A819A6809F10109D007AF
:101348001FFA89F94FF0000BA7D40121284601F0B4
:1013580065F9B842AED92268136803F48273B3F50D
:10136800827F7FF46EAF93681906FCD469E7012188
:10137800284601F053F987429ED2ECE722681368A9
:1013880003F48273B3F5827F7FF45BAF93681C0626
:101398007FF557AF93681C06F8D452E7704700BF33
:1013A8000020704770B5184E96ED040A01F02CF92C
:1013B80030B306F114050224B5EC010A01F024F952
:1013C800C0B9124A052C02EB840292ED000A04F11E
:1013D80001030ED003330E4A06EB8303F3EC017AC4
:1013E800F4EE407AF1EE10FA48BFB0EE670A9A427E
:1013F800F4D170BD0134062CDED196ED040A70BD1F
:1014080096ED040A0223E5E7E0010020EC01002044
:101418000402002070B5184E96ED040A01F0F4F8A5
:1014280030B306F114050224B5EC010A01F0ECF81A
:10143800C0B9124A052C02EB840292ED000A04F1AD
:1014480001030ED003330E4A06EB8303F3EC017A53
:10145800F4EE407AF1EE10FAC8BFB0EE670A9A428D
:10146800F4D170BD0134062CDED196ED040A70BDAE
:1014780096ED040A0223E5E7E0010020EC010020D4
:101488000402002070B5144688B00368CDF81930FE
:1014980000260379E0688DF81D3001220D4631469B
:1014A8008DF81860FFF77CFFE068022331464FF49F
:1014B800E062FFF799FD38B1DDF811209DF815308D
:1014C8002A602B7108B070BD01220346E0680292C1
:1014D8000622CDE9002306A904AAFFF73BFEEBE7A5
:1014E8002DE9F84355EC114B2DED028B002200231A
:1014F8002046294657EC106BFFF76EFAC8B3002256
:10150800002330463946FFF767FA40B345EC184BDD
:10151800B0EE480AF0EE680ABDEC028BBDE8F8832D
:1015280045EC104B01F046F800284FD0002200236C
:1015380029462046FFF75AFA0023B0F100084FF079
:1015480000023046394618BF4FF00108FFF74EFA3F
:10155800031E18BF01235FFA88F89845D6D147ECD7
:10156800186BB0EE480AF0EE680ABDEC028BBDE8D5
:10157800F88347EC106B01F03BF850B14B4B93EDFF
:10158800008BB0EE480AF0EE680ABDEC028BBDE8AD
:10159800F88345EC104B01F02BF80028EED147EC0E
:1015A800106B01F007F80028E8D10022002330462C
:1015B8003946FFF711FA0028B2D000200021224650
:1015C8002B46FFF7CBF841EC180BA1E745EC114B84
:1015D80047EC106B01F0E0FF002251EC100BB0EE6D
:1015E800408AF0EE608A0023FFF7F6F9A0BB45ECCD
:1015F800104B02F07DF9224651EC100B2B46FFF7F9
:10160800F5F990B322462B4630463946FFF7A6F83F
:1016180021F00049264B002249468046FEF7BEFDD0
:1016280041EC100B02F064F9404653EC102B49468C
:10163800FEF7B2FD02460B4640464946904623F067
:10164800004900221B4BFEF75FFF02460B4640464F
:101658004946FFF7E9F940B9002200232046294608
:10166800FEF752FF41EC180B52E73046394600228C
:101678000023FFF7BBF90023061E4FF000022046A7
:10168800294618BF0126FFF7B1F9031E18BF012329
:10169800F6B29E423FF43CAF51EC180B22462B4663
:1016A800FEF77CFD41EC180B32E700BF000000207C
:1016B8000000E03F0000B03C2DE9F04F2DED068B17
:1016C800854E95B0D6E90001FFF716FADFED837A6B
:1016D80008EE100A96F8640028EE278AFEF79AFEAC
:1016E8009FED7B1B41EC100BFFF7FAFE7C4B51EC96
:1016F800100B0022FEF752FDFFF7B6F913280390EE
:1017080040F3AC80FEF796FE764BDFF80CB2002271
:10171800FEF742FD04ACCBE90201002306F1C80242
:101728000BF17B01204604938DF81430FFF7AAFED5
:10173800DBE902016C4B0022FFF776F9002800F084
:101748009C806A4BDBF87B001B7904902371684A04
:1017580068492046FFF796FE039B012B2AD00F2BE2
:1017680028DC654D654C664F0FCD0FC40FCD0FC4F7
:101778000FCD0FC495E8030084E803009BF87410AC
:101788009BF87330C90101EBC331A1FB0701FFF7D7
:10179800CBFADFED5C7A08EE900A68EEA78A34226D
:1017A800A5F12C01A5F13000CBED198A02F01CFE41
:1017B800C6ED148A544D514FD5ED096AD5ED115A2D
:1017C800D5ED104A95ED0A5A06AC07F1380AA0463D
:1017D80005F12409019419E077EEE67A35EE667A88
:1017E800042387EE876A29462B44BA4591ED007A8F
:1017F800D3ED007A77EEC77A67EE867A77EE877A46
:1018080077EEC87AE8EC017A00F08880F7EC017A84
:10181800F4EEE67AF1EE10FADED9F4EEE57AF1EEBE
:1018280010FA37D500200824042309EB830191ED31
:10183800007AF4EEC77AC11804EB030CF1EE10FA43
:10184800A3EB0002A4EB030E4FEA51014FEA5C0C34
:101858001AD5012A27D91C460B46E6E7012800F0CD
:10186800278504AC002304932371284A2849DFF80C
:10187800A8B02046FFF706FE5AE7254BDBF87600AE
:101888001B790490237162E7BEF1010F18460AD94B
:101898006346CAE777EEE47A35EEE47A1D4987EEC7
:1018A800876A2023A0E781000B1D09EB800090EDDB
:1018B800006A09EB030090ED007A77EEC67A37EEFE
:1018C800467A294487EE876A8EE700BFAFF3008027
:1018D8000000000000804040E8000020010E603851
:1018E8000000F03F00003240000033405B0200205F
:1018F8005801002051020020040100200C020020A1
:10190800DC82A5BA00008025AC44000884010020D0
:1019180056020020C8440008E0010020DBE90289E3
:10192800974B019C002240464946FFF755F878B985
:10193800944B002240464946FFF74EF840B9924B77
:10194800002240464946FFF747F8002800F0FB838D
:10195800DFF85CC28D4FBCE80F000FC7DCF8003021
:101968003B609BF87500FEF755FD0022884BFEF79B
:10197800CBFD41EC100B01F0BBFF9BF873709BF89B
:10198800743051EC100BFF0307EBC317FFF794F803
:10199800804907EB40139BB2A3FB0101FEF77EFDD4
:1019A8007D4B0022FEF7B0FD8046894642464B46F5
:1019B8007A490020FEF7F0FB02460B4640464946AE
:1019C800FEF7CCFE41EC100B01F01EFE68A3D3E934
:1019D800002351EC100BFEF797FD67A3D3E9002312
:1019E800FEF7DCFB0B4602466D490020FEF7B6FE0B
:1019F800FFF782F8F368B3603369F36073693361A2
:101A0800B369CBF82400B0617361DBED050A9BED87
:101A1800040A01F015FFDBED060A01F011FFDBED0A
:101A2800070A01F00DFFDBED080A01F009FFD5ED0B
:101A3800547AB4EEE70AF1EE10FA00F2BC8195EDA3
:101A4800557A30EE670A77EE677A0021C0EE273ABA
:101A5800DFF86091019101F1090704F1380809F1F3
:101A6800040A09F1DC0E3846D5ED495A95ED535A6A
:101A780095ED524AD5ED4A4A2EE077EEE57A34EEF6
:101A8800E57A019A87EE876A09EB8203444593ED6C
:101A9800007A0AEB8203D3ED007A424B77EEC77ADD
:101AA80003EB8203D3ED006A3F4B67EE867A03EBC4
:101AB800820237EE277AD2ED007A77EEE67A67EE81
:101AC800867A77EEA67A77EEC77A67EEA37A77EE0C
:101AD800877A44ED017A6FD0F4EC017AF4EEE57A76
:101AE800F1EE10FAC9D9F4EEC57AF1EE10FA21D563
:101AF80000220A27052302940EEB830191ED007A58
:101B0800F4EEC77AD118FC18F1EE10FAA3EB020C28
:101B1800A7EB03054FEA51014FEA540405D5BCF180
:101B2800010F0FD91F460B46E6E7012D1DD91A46AE
:101B38002346E1E777EEC47A35EE447A024687EE2B
:101B4800876AA1E7029C0EEB8203D3ED006A174B6C
:101B580003EB820393ED007A019B77EEE67A37EE8A
:101B6800667A1A4487EE876A8EE7029C1A46EAE785
:101B780081D91E7E6597303F83DBB5DCE1796B3F09
:101B880000001C400000204000002240F00100201E
:101B98000000903FDC82A5BA0000D03C0000144051
:101BA8000000F03F2045000824450008D4450008FF
:101BB800F0000020F44400089BED0B8A9DED069A86
:101BC800CF4DF0EE488A07ACF0EE490AB4EC010AB2
:101BD80001F036FEF5EC019AF0EE480AB0EE409AB4
:101BE800B0EE690A01F02CFEF0EE680AB0EE408A09
:101BF800B0EE690A01F042FE4445F0EE408AE3D1B6
:101C0800039B132B00F0DA81112B00F01181102BAC
:101C180031D19BED000B01F06BFEB0EE40AAF0EE67
:101C280060AA00F0E5FC002800F0BA829BF8750075
:101C3800FEF7F0FBB34B0022FEF766FC41EC100BFD
:101C480001F056FE9BF873309BF8744051EC100B72
:101C58001C44FEF731FF2318DBB2DB03AA49A3FBC0
:101C68000101FFF761F89FEDA97A07EE900A67EE88
:101C7800877ACBED1A7A96F86530002B40F093807E
:101C880040F201120123A6F865208BF87030346EFB
:101C980096F86750631C1CBF01343466002D00F0B1
:101CA800E68096F86830022B10D0032B00F0B5823E
:101CB800012B9BF8703000F04082002B00F0E98285
:101CC800012B40F0AE82032386F8683019EE100A23
:101CD800FEF7C2FB804618EE100A8946FEF7BCFBE9
:101CE80002460B4682A1D1E90001FEF755FA4246A9
:101CF8004B46FEF733FDFEF7FFFE09EE100A18EE1D
:101D0800900AFEF7A9FB824B0022FEF745FA4246ED
:101D18004B46FEF723FD96F86950012D01F100416D
:101D280000F00881022D15D0042C00F23282FEF753
:101D3800E3FEDBED0A9A07EE900AF4EEE79AF1EE7D
:101D480010FA07DBF4EEC99AF1EE10FA9CBF0123F2
:101D580086F8693096F86A30012B00F00181023B61
:101D6800012B00F2158196F86B30012B00F0A4804E
:101D780096F86430DBF82800013386F86430FEF703
:101D88006BFB5DA3D3E90023FEF7BEFB02460B46BF
:101D9800D6E90001FEF702FAC6E9000115B0BDEC6C
:101DA800068BBDE8F08F96F86630012B04BF02233E
:101DB80086F866306BE7D5ED587AB4EEE70AF1EEAF
:101DC80010FA6FD5DFF8648100210420022308EBA4
:101DD8008302D2ED007AB4EEE70A5A18F1EE10FA4F
:101DE800A3EB010E03EB000CA0EB03074FEA520232
:101DF80005D5BEF1010F07D918461346E7E7012FAD
:101E08004FEA5C021946F8D8424B08EB810803EB0D
:101E1800810398ED007AD3ED007A30EE470A77EE29
:101E2800C77A01EB8103C0EE273A01EB43010FE6C5
:101E38009BF874309BF873203749DB0103EBC233FE
:101E4800A3FB0101FEF770FF9FED347A07EE900ABD
:101E580067EE877A9BF87500CBED1B7AFEF7DAFA06
:101E6800284B0022FEF750FBCBE9000103E79BED6E
:101E78001B7ADBED1A7A2A4AC6F8672077EEC77A0A
:101E88000123F0EEE77AC6ED177A86F86B30FFF794
:101E9800C1FA86ED150AFFF785FA86F86C5086EDCB
:101EA800160A65E795ED577A30EE470A77EEC77A56
:101EB8002121C0EE273ACBE5DFED1A7A96ED167AA6
:101EC800B4EEE77AF1EE10FA40F25181DFED167ABE
:101ED80096ED157AB4EEE77AF1EE10FAC0F2F181D8
:101EE8004FF48173A6F86B3042E700BFAFF3008070
:101EF800CDCCCCCCCCCC10409A9999999999C93F22
:101F0800100200200000903FDC82A5BA0000802269
:101F18000000084000460008026553AE0000802714
:101F28000104010100007D430080A643FC45000830
:101F38000AD7A33CFEF7E0FDDBED0A9A07EE900A0C
:101F4800F4EEE79AF1EE10FA40F11681032386F8D1
:101F5800693096F86A300022012B32667FF4FFAEB2
:101F68005FED0D7A96ED177AB4EEE77AF1EE10FA96
:101F780080F20981F0EE087AF4EEE78AF1EE10FAC1
:101F880000F27A81042286F86A2086F86C30EAE644
:101F9800F0EE087AF4EEE78AF1EE10FA7FF7E3AE96
:101FA800DBED1A7A9BED1B7A77EEC77A0123F0EE08
:101FB800E77A86F86A30C6ED177AD4E69BF873108C
:101FC800CD4DC8074908FEF769FACC4B0022FEF749
:101FD8009BFA89469BF874108046C8074908FEF7A3
:101FE8005DFAC74B0022FEF78FFA02460B464046C1
:101FF8004946FEF7D3F880469BF875008946FEF7F8
:1020080009FAC04B0022FEF77FFA0B460246494602
:102018004046FEF7C3F841EC100B01F069FC51ECA7
:10202800100B02F04DF8A0FB0530002405FB01055C
:10203800A5424ADBDA1844EB0401D21841F1000149
:10204800C90041EA5271D200D31841F1000120467B
:102058006A194FEA816440EB0001521941F100010D
:10206800C90041EA5271D200521941F100018906B2
:1020780044EA931441EA9211920614194FEA8363D1
:1020880041F100051946FEF74FFEDFED9F7A09EE94
:10209800900A2946204679EEA79AFEF745FEFEF7F4
:1020A800DBF941EC100B402001F0F0FA51EC100B79
:1020B800FEF722FD07EE900A77EEA97A9FED937A54
:1020C80067EE877ACBED0A7AD5E55B4265EB45008A
:1020D800D91844EB0407C91847F10007FF0047EA7D
:1020E8005177C900C91847F10007021844EB0403E7
:1020F800121843F10003DB0043EA5273D2001218AE
:1021080043F10003BF069B0643EA92136FEA826815
:1021180047EA9117B8EB07006FEA030565F100037A
:1021280089060CBF01222246801843F1000350EAB9
:1021380003027FD104461D46A4E7002B71D0042377
:1021480086F86830C2E5724B002240464946FEF7E1
:1021580043FC00287FF4FCAB6E4B40464946002206
:10216800FEF73AFC00283FF450ACFFF7F1BB40F211
:102178000313A6F86B30FBE5F4EEC99AF1EE10FAFA
:102188007FF7E8ADE2E6032286F86A2086F86C302D
:10219800E9E50222012386F8692086F86C30D9E542
:1021A800B0EE4A0AF0EE6A0A00F004FA00287FF45A
:1021B8003DADB0EE4A0AF0EE6A0A9FED4D1B01F004
:1021C800EBF99BF8750059EC108BFEF723F9002208
:1021D8004C4BFEF799F941EC100B01F089FB9BF889
:1021E80074309BF8734051EC100B1C44FEF764FCF0
:1021F8000444E3B2DC030022002340464946FEF7CC
:10220800F5FB002869D0404609F10041FEF754FC6F
:1022180043429BB204EB433320E59BF87030012B1B
:102228008DD196F86C30002B3FF450AD022386F820
:1022380068304BE52046FEF777FDB7EB080707EE59
:10224800100ADFED317A65EB4501781E61F1000176
:1022580077EEC79AFEF768FDFEF7FEF841EC100B23
:10226800402001F013FA51EC100BFEF745FC07EE85
:10227800900A79EEE77A21E7DFED277AB4EEE78A6C
:10228800F1EE10FA09DB022286F86A2086F86C3033
:1022980069E5012386F8683018E5DBED1A7A9BEDCD
:1022A8001B7A77EEC77AF0EEE77AC6ED177A5AE529
:1022B8001A4B93E8030004AC04908DF81410FFF750
:1022C800D4BAFFF7A7F886ED150AFFF76BF80023D5
:1022D80086ED160A86F86C304AE540464946FEF710
:1022E800EBFB83B204EB4333B8E400BFAFF30080E9
:1022F800000000000000F040DC3941590000A03E19
:102308000000203E0000903F000000000000800A0E
:102318000000244000002A406666864010460008F7
:102328002DE9F0414A4DDFF82C8196B000240126B2
:1023380040F2012705F1D8016846CDE90844CDE906
:102348000A44CDE90144C5E9364485F8C84085F812
:10235800F06085F8D040C5F8CC60CDF800808DF8E5
:102368004640ADF84470ADF85440C5F8E04085F8F3
:10237800EC6085F8E440C5F8E860FEF77DFD0223CF
:102388004FF4E0622146C5F8D400FEF72DFE05F1B2
:10239800AC016846CDE90844CDE90A44CDE90144D9
:1023A800C5E92B4485F8D06085F89C4085F8C46061
:1023B80085F8A440C5F8A060CDF800808DF84640A7
:1023C800ADF84470ADF85440C5F8B44085F8C06025
:1023D80085F8B840C5F8BC60FEF74EFD02234FF4FF
:1023E800E0622146C5F8A800FEF7FEFD05F1800170
:1023F8006846CDE90844CDE90A44CDE90144C5E978
:102408002044CDF8008085F8A46085F8704085F8F0
:10241800986085F878406E678DF84640ADF844704E
:10242800ADF85440C5F8884085F8946085F88C402C
:10243800C5F89060FEF720FD214602234FF4E062C4
:10244800E867FEF7D1FD85F8786016B0BDE8F08141
:10245800E80000200030014010B5254C94F8C83041
:1024680082B033B9D4F8CC300122934284F8C82022
:1024780021D094F89C3033B9D4F8A030012293428B
:1024880084F89C2025D094F870302BB9636F012212
:10249800934284F8702001D002B010BD94F87830CF
:1024A800002BF9D04FF0FF33E06F00931A4619461E
:1024B800FEF774FFF0E794F8D030002BD9D04FF036
:1024C800FF330093D4F8D4001A461946FEF766FF86
:1024D800CFE794F8A430002BD5D04FF0FF3300930A
:1024E800D4F8A8001A461946FEF758FFCBE700BFF4
:1024F800E800002010B5094C23785A1C227023B13B
:10250800074A23700121116010BD62B6FFF7D4F8A5
:1025180072B62378013BDBB2237010BD6202002043
:1025280064020020F8B51F4C1F4D002727702F703C
:1025380001DF00F055FF00F069F900F06DF800F0D8
:10254800A9FA00F0C3FA00F01BFA00F0CFF9174B14
:102558001E683760FFF7E4FE72B69FED150A00F0BB
:10256800ABF83368B3FA83F35B092B7062B662B6D3
:1025780006E03368003B18BF0123237023784BB96A
:102588002B7803F0FF07002BF3D1FFF765FF72B636
:102598003846F8BD4FF0E022136923F001031361B8
:1025A800EEE700BF6102002060020020A844000896
:1025B800CDCC4C3EF8B555EC104B25F000470B4BF5
:1025C8004FF0FF3220463946FEF738FA60B9074B1C
:1025D800204639464FF0FF32FEF712FA20B9002D97
:1025E800ACBF0120FF20F8BD0020F8BDFFFFEF7F42
:1025F80008B553EC102B10461946FEF71FFA0038A1
:1026080018BF012008BD00BFB4EE400AF1EE10FA71
:102618006CBF012000207047704700BF30B50446EA
:1026280083B081B9114D6B6A019300F0FFFE0090F1
:102638006A6A019B9A4210D3009A019B4FF47A71FF
:1026480001FB023302E000F0F1FE0346181BA3422F
:1026580038BF00F1FF3003B030BD00F0E7FE6B6A11
:102668004FF47A7202FB0033F0E700BF000C004021
:1026780008B5BFF34F8FBFF36F8F094A0949136835
:1026880009688B4206D30123136072B6FFF732FF45
:1026980062B608BD591C1160002BF6D008BD00BFFA
:1026A8006C02002068020020024A536843F08053FD
:1026B8005360704700ED00E0264BD3ED007AF8EE4A
:1026C800677A30B467EE807AFCEEE77A17EE903AD4
:1026D800B3F1807F1FD3F8EE676A9FED1F7A1F4919
:1026E800C6EE877AFCEEE77A17EE902A0132B3FB42
:1026F800F2F3013BB3F1807F0A601ED3184B194CEB
:1027080019491A480860F02200252560DA7783F80D
:10271800222030BC70471149013B0022B3F1807F71
:102728000A60EBD24FF0E0210D484B61F0240723FB
:1027380080F823408A610B61E0E74FF0E022084807
:102748005361F0240021072380F82340916113612D
:10275800D4E700BF10000020FFFF7F4B6802002075
:1027680000ED00E06C0200207002002079260008CD
:10277800EFF3008001B5EFF3118003B41EF0100FE2
:1027880008BFB0EE400A0A48006803B488B004A045
:1027980006904FF0807007906FF0060086467047ED
:1027A80003BC8047BFF36F8F00DFFEE700BF000068
:1027B800700200201EF0100F08BFB0EE400A1EF095
:1027C800040F0CBFEFF30880EFF30980816911F85B
:1027D800020C10B101280DD00BE01EF0100F0CBF39
:1027E8001AB008B003BC80F3118803BC80F30088DA
:1027F8000847FEE74EF61451CEF200010A6842F08F
:1028080001020A607047F4E700BF00BF324A13684C
:1028180023F0070343F0020310B51360136803F0B5
:102828000703022BFAD12D492D4B0A6822F44042A6
:1028380042F400420A601A6822F0F80242F080026C
:102848001A601A6842F001021A601A689007FCD5EB
:1028580058682449224A014041F4A84141F0100136
:102868005960596821F4403141F480315960196840
:1028780041F08071196013689901FCD5174A5368B3
:102888005B04FCD5164CA36823F0F003A360A3688F
:1028980023F4E05343F48053A360A36823F4604314
:1028A800A360A36823F0030343F00203A360A368B3
:1028B80003F00C03082BFAD10B4800F0A5FC00200C
:1028C80000F0ACF908B172B6FEE7D4F88C3023F00A
:1028D8008073C4F88C3010BD003C0240007000408A
:1028E800003802400080BFFF00BD010530B593B03D
:1028F80000242822002108A801F090FDCDE9054414
:102908001C4B1D4D5A6C1D4842F480525A645A6C37
:1029180002F480520192019A1A6B42F001021A6382
:102928001B6B03F001030093E0220223CDE902238D
:1029380000990322052302A90492079300F036FBAD
:102948004FF482724FF40073CDE90842CDE90C438D
:1029580000220A2308A92846CDE91023CDE90A4414
:102968000E940F9400F0CEFB6B6823F010036B609D
:1029780013B030BD00380240003001400000024072
:1029880070B5002490B0CDE90844CDE90A44CDE9FA
:102998000C44CDE904443B4B0E9406941A6C3A4D12
:1029A80042F400321A641A6C02F400320192019A5D
:1029B8001A6B42F001021A631B6B0C2003F001032F
:1029C8000221CDE90201009302A907232F48009AAA
:1029D800079300F0EBFA2E4BD3F8882022F06062C0
:1029E80042F00062C3F88820D3F8882022F0C002A1
:1029F800C3F88820D3F8882022F44032C3F888200E
:102A0800D3F8882022F49072C3F88820D3F888205D
:102A180022F40072C3F88820D3F8882042F4806238
:102A2800C3F88820D3F8882022F4C052C3F888203D
:102A3800D3F8882022F4C042C3F88820D3F89C2019
:102A480022F00402C3F89C204FF4E1360C22002344
:102A580008A92846CDE90C23CDE90864CDE90A4444
:102A68000E9400F0E9FC2B6923F490432B616B6909
:102A780023F02A036B61EB6843F40053EB6010B05A
:102A880070BD00BF00380240004400400000024012
:102A9800006002400A4B0B481A6B0B4942F40012C3
:102AA8001A631B6B82B003F4001301930022019B8D
:102AB800C36881F810234FF480330B6002B070476D
:102AC8000038024000ED00E000E100E010B586B0FB
:102AD800314B3248002205921A6B42F004021A6305
:102AE800196B01F0040103910399196B41F08001FE
:102AF8001963196B01F0800102910299196B41F079
:102B080001011963196B01F0010101910199196B18
:102B180041F0020119631B6B03F002030093009B51
:102B28004369F02223F0F00392FAA2F22AB1B2FA32
:102B380082F2022101FA02F21343184A4FF40054B8
:102B4800536104A80122022304948DF814208DF8FF
:102B5800163000F05FFB94FAA4F4114BDA6834B134
:102B6800B4FA84F464000323A34022EA03020C4964
:102B7800CA604FF400530A6893FAA3F33BB1B3FA5F
:102B880083F35B00032101FA03F322EA0302044BF7
:102B98001A6006B010BD00BF00380240003801407E
:102BA80000080240034B02689A4200D0704700F0C8
:102BB80031BC00BF000C0040FEE700BFFEE700BFCD
:102BC800FEE700BFFEE700BFFEE700BF704700BF9B
:102BD800704700BF014800F049B900BF74020020E7
:102BE80082B00D4B002100915A6C42F480425A6425
:102BF8005A6C02F480420092009A01911A6C42F0D9
:102C080080521A641B6C03F080530193019B0720C8
:102C180002B000F089BB00BF0038024070B588B030
:102C2800234B002202921A6C42F008021A641B6CB1
:102C380003F008030293054601A903A8029B00F0CC
:102C480051FB069BD3B900F03DFB0346194A1A4CC9
:102C58001A49A2FB03239B0C013B0022C4E9001381
:102C6800204640F2E7332261A260A261E36000F0EF
:102C78002BF8064630B1304608B070BD00F022FB94
:102C88004300E3E7204600F0B7F806460028F2D1F3
:102C9800322000F097FB0F2D01D90126EBE73246D1
:102CA8002946322000F052FB054B1D60E3E700BFC8
:102CB8000038024083DE1B4374020020000C0040F1
:102CC8000C000020704700BF00287DD038B590F870
:102CD8003D30044603F0FF02002B5CD022684449D3
:102CE800022384F83D308A42136859D0B2F1804FEC
:102CF80020D0A1F57C418A421CD001F580618A422E
:102D080018D001F580618A4260D03A498A4215D0CC
:102D180001F580618A4211D001F580618A420DD0A7
:102D2800A5696168E06823F080032B431360D062D3
:102D3800916210E0A16823F070030B432069A16938
:102D480023F44073034323F08003E0680B43616876
:102D58001360D0629162012353611369DB0703D5C5
:102D6800136923F001031361012384F8463084F8C2
:102D78003E3084F83F3084F8403084F8413084F89D
:102D8800423084F8433084F8443084F8453084F87D
:102D98003D30002038BD80F83C20FFF793FF9DE7C9
:102DA800A068216923F07003034323F440730B43A5
:102DB800A16923F080030B431360E368D36263685F
:102DC800936263691363C6E701207047A0682169AD
:102DD80023F07003034323F440730B43A16923F0EA
:102DE80080030B431360E368D36263689362B2E7BE
:102DF800000001400040014090F83D30012B27D1F0
:102E080003681449022280F83D20DA688B4242F0B8
:102E18000102DA6011D0B3F1804F0ED00E4A93420E
:102E28000BD002F58062934207D002F5806293428C
:102E380003D002F59A32934204D19A6802F007024D
:102E4800062A03D01A6842F001021A60002070476F
:102E5800012070470000014000040040704700BF97
:102E6800704700BF704700BF704700BF036870B568
:102E7800DE681D69A907044601D5B20751D4690760
:102E880001D572073AD42B0701D5300724D4EA06B6
:102E980001D5F30610D4E80701D5F10757D42A065F
:102EA80001D533065BD4680601D571065FD4AA063E
:102EB80001D5B30642D470BD23686FF010021A61C1
:102EC80008222277DB6913F4407F204663D0FFF79E
:102ED800C7FF00232377DEE723686FF008021A6133
:102EE80004222277DB699907204651D1FFF7B6FF04
:102EF8002046FFF7B7FF00232377C8E723686FF062
:102F080004021A61022222779B6913F4407F20464B
:102F18003BD1FFF7A3FF2046FFF7A4FF0023237749
:102F2800B1E76FF002021A61012202779B699B07E1
:102F380025D0FFF795FF00232377A0E723686FF0DC
:102F4800200220461A61BDE8704000F02BB82368C3
:102F58006FF001021A612046FFF724FE9FE72368FD
:102F68006FF080021A61204600F01EF89BE7236884
:102F78006FF040021A612046FFF776FF97E7FFF7E8
:102F88006DFF2046FFF76EFFD5E7FFF769FFC5E73E
:102F9800FFF766FFAFE7FFF761FF2046FFF762FF25
:102FA80097E700BF704700BF704700BF2DE9F047A3
:102FB8000D6895FAA5F2002A7CD0B2FA82F235FAA9
:102FC80002F377D04FF0010C4FF0030E32E00F6997
:102FD800D0F80C8093FAA3F636B1B6FA86F67600E6
:102FE8000EFA06F628EA060893FAA3F6002E64D02D
:102FF800B6FA86F67600B74047EA0807022CC7609B
:1030080041D093FAA3F6076836B1B6FA86F6760089
:103018000EFA06F627EA060793FAA3F3002B4ED01A
:10302800B3FA83F35B009C403C430460013235FAF9
:1030380002F33FD00CFA02F32B40F7D04C68661E1F
:10304800012EC4D893FAA3F68F68D0F8088036B159
:10305800B6FA86F676000EFA06F628EA060893FA15
:10306800A3F6002E4AD0B6FA86F67600B74047EAAD
:10307800080787604668CF6826EA030603FB07F758
:103088003E434660A3E74F6993FAA3F6CEB1B6FA7A
:1030980086F8B8F1070F14DC4FEA880807FA08F633
:1030A8004FF00F09076A09FA08F827EA08073E43AC
:1030B8000662A6E70020BDE8F08740269BE740238C
:1030C800B1E71E0AD0F8248096FAA6F9B9F1000FE4
:1030D80009D0B9FA89F94FEA89094FF00F0A0AFAB3
:1030E80009F928EA090896FAA6F64EB1B6FA86F65C
:1030F800B600B74047EA0807476282E74026B5E7C7
:103108008026F6E703685B06024629D430B41468C3
:103118000B684D68486924F47F4C8C682B43234323
:10312800CC6823430C6923438C6903432343CC694C
:1031380023430C6A2CF0BF0C234343EA0C031360AF
:10314800536823F0040343EA1043B4F5005F536067
:103158000CD0D36923F40063002030BCD3617047DE
:10316800D36923F400630120D36170478B8C13610A
:10317800EFE700BF1F4A936803F00C03042B10B459
:1031880035D0082B31D151681B4C1C4B11F4800FE2
:10319800516808BF234601F03F01B3FBF1F35168C2
:1031A8005268C2F30142C1F38811013201FB03F3F3
:1031B8005200B3FBF2F30F4A03609168104CC1F35D
:1031C8000311615C0F4CCB4043609168C1F38221CD
:1031D800615C23FA01F181609268C2F34232A25C19
:1031E8005DF8044BD340C3607047034BE3E7034BE0
:1031F800E1E700BF003802400024F40000127A0022
:103208002046000818460008014B1860704700BFA8
:1032180010000020027901680346CAB109B3427957
:10322800012A20D0022A29D032BB254A506820EA38
:103238000100506010680843106000209B7933B18A
:10324800022B34D0032B2AD0012B1FD0012070472A
:103258001B4B1A6822EA01021A605A6822EA010224
:103268005A6000207047164A106820EA0100106072
:10327800506808435060E0E70120DFE7104A106813
:1032880008431060506808435060D6E70C4BDA6872
:1032980022EA0102DA609A680A439A607047084B8A
:1032A8009A680A439A60DA680A43DA607047044BFE
:1032B8009A6822EA01029A60DA680A43DA6070477B
:1032C800003C0140044B05499B68054A0868C3F364
:1032D8008223D35CD8407047003802401000002099
:1032E800184600080E4B0F2202609A6802F003028B
:1032F80042609A6802F0F00282609A6802F4E05232
:10330800C2609B68DB0810B403F4E053054C03610A
:1033180023685DF8044B03F007030B60704700BF98
:1033280000380240003C02400749CA6803024FF6D1
:10333800FF0003F4E0630240134343F0BF6343F428
:103348000033CB60704700BF00ED00E01B4BDB682B
:10335800C3F3022300B5C3F1070EBEF1040F03F156
:10336800040C28BF4FF0040EBCF1060F1CD9A3F1C2
:10337800030C4FF0FF3303FA0CF322EA03024FF079
:10338800FF3303FA0EF321EA030303FA0CF31343A2
:103398001B010028DBB20ADB00F1604000F5614048
:1033A80080F800335DF804FB00229446E7E7044AFE
:1033B80000F00F00024413765DF804FB00ED00E016
:1033C800FCEC00E0002807DB044A4109012300F077
:1033D8001F00834042F82130704700BF00E100E041
:1033E80008B50B4B1A6842F400721A601A6842F466
:1033F80080621A601A6842F480721A600320FFF72C
:1034080093FF0020FFF70AFCFFF7EAFB002008BD46
:10341800003C0240034A044B11681B780B441360BC
:10342800704700BFBC02002008000020014B18684C
:10343800704700BFBC020020C3689B0401D501206F
:10344800704730B54B68C2680D46C9680B43296997
:103458000B43A96922F4164222F00C020B431343D2
:10346800C3600369AA6823F44053134303614369A3
:103478006A6923F44073134385B043610446684680
:10348800FFF778FE264B9C422BD0264B9C4205D05A
:10349800254B9C4225D0012005B030BD029800285C
:1034A800F9D02B68002BF6D0AA691921B2F5004F84
:1034B800A0FB010117D09A009B0FFDF77BFC1B496D
:1034C800A1FB00325209642303FB12031B013233B0
:1034D800A1FB0313120102EB53139BB2A36000205C
:1034E800DAE70398DBE7DA184FF000035B41FDF7F2
:1034F80061FC0E4AA2FB00314909642303FB110356
:10350800DB003233A2FB0323C3F342121B0902EB95
:10351800011203F4F87313449BB2A360DFE700BF02
:103528000010014000440040001401401F85EB5189
:10353800034AD2F8883043F47003C2F888307047E1
:1035480000ED00E0DFF834D0FFF7F2FF0C480D493A
:103558000D4A002302E0D458C4500433C4188C42E6
:10356800F9D30A4A0A4C002301E013600432A2424C
:10357800FBD300F061FFFEF7D5FF70470080012004
:103588000000002064000020584600086800002061
:10359800F8030020FEE70000F8B52DED028B57EC8C
:1035A800106B55EC114B00F027FA3046394622468D
:1035B8002B46B0EE408AF0EE608AFDF73FFA30B94C
:1035C8000022002320462946FDF706FA30B9B0EE5E
:1035D800480AF0EE680ABDEC028BF8BD00F026FF41
:1035E800002200232121016010461946FDF7B6F894
:1035F80041EC180BB0EE480AF0EE680ABDEC028BFD
:10360800F8BD00BF0000000038B52DED028B55EC69
:10361800104B00F079FB22462B4620462946B0EE97
:10362800408AF0EE608AFDF709FA98B90022002373
:1036380020462946FDF7F8F960B900220023204604
:103648002946FDF7C9F960B100F0F0FE9FED0C8B3B
:1036580022230360B0EE480AF0EE680ABDEC028B44
:1036680038BD00F0E3FEBDEC028B034621221A6050
:103678000548BDE8384000F0DBB800BFAFF3008074
:10368800000000000000F0FF3046000810B52DEDE6
:10369800028BB0EE408AF0EE608A044600F030F803
:1036A80030B151EC180B00220023FDF795F930B129
:1036B800B0EE480AF0EE680ABDEC028B10BDB0EE21
:1036C800480AF0EE680A204600F026F8B0EE408A74
:1036D800F0EE608A00F014F838B151EC180B0022B3
:1036E8000023FDF779F90028E2D000F09FFEB0EE44
:1036F800480AF0EE680ABDEC028B2223036010BD75
:1037080082B08DED000B019840F0004000F580106C
:10371800C00F02B0704700BF70B555EC104BC5F331
:103728000A5206462B4672BB25F00043234329D094
:103738003B4B204629460022FCF7E6FE394B9E42C9
:1037480004460D4652DBC1F30A520B46363A4CF298
:1037580050318E4223DC164440F2FE7296421EDC43
:10376800002E34DC16F1350F38DB6FF31E53363676
:1037780043EA065520462C4B29460022FCF7C4FE96
:1037880041EC100B70BD40F2FF718A42DFD1224636
:1037980020462946FCF702FD41EC100B70BD002DB8
:1037A80017A1D1E9000107DB15A3D3E90023FCF732
:1037B800ABFE41EC100B70BD13A1D1E9000110A3C1
:1037C800D3E90023FCF7A0FE41EC100BF3E76FF3FD
:1037D8001E5343EA065545EC104B70BD002D0CA155
:1037E800D1E9000102DA0CA1D1E9000108A3D3E96B
:1037F8000023FCF789FE41EC100B70BDAFF300808D
:103808009C7500883CE4377E9C7500883CE437FE54
:1038180059F3F8C21F6EA50159F3F8C21F6EA581AE
:1038280000005043B03CFFFF0000903C0000000047
:103838009FED010B704700BF000000000000F87FFB
:1038480008B52DED028BF0EE408AB0EE608A00F0EC
:1038580033F820B9B0EE480ABDEC028B08BDB0EED3
:10386800480A00F029F820B1F4EEC88AF1EE10FAFF
:10387800F0DDB0EE680ABDEC028B08BD08B52DED91
:10388800028BF0EE408AB0EE608A00F015F820B99D
:10389800B0EE480ABDEC028B08BDB0EE480A00F055
:1038A8000BF820B1F4EEC88AF1EE10FAF0D5B0EEBC
:1038B800680ABDEC028B08BD10EE103A33F00040E8
:1038C8000ED0A0F50003B3F1FE4F0DD3074B421EF7
:1038D8009A4207D9A0F1FF40B0FA80F0400970473A
:1038E800022070470320704704207047FEFF7F00C6
:1038F80051EC100BC1F30A532DE9F041A3F2FF3547
:10390800132D0C46064632DC002D20DB384B43FADB
:1039180005F801EA080303430F462DD032A3D3E983
:103928000023FCF73BFC00220023FDF77DF840B1A3
:10393800002C03DA4FF480132B411F4427EA0804B4
:1039480000262346324643EC102BBDE8F08126A31F
:10395800D3E90023FCF722FC00220023FDF764F8DA
:103968000028EED0002C2ADB00263446E9E7332D68
:1039780006DDB5F5806F1BD041EC100BBDE8F0817A
:10398800A3F213434FF0FF37DF400742F4D016A3EA
:10399800D3E90023FCF702FC00220023FDF744F8DA
:1039A8000028CED0002C334610DB23EA0706C8E7F0
:1039B80002460B46FCF7F2FB41EC100BDEE724F065
:1039C800004426430DD14FF00044BAE7142D06D029
:1039D800C5F134050122AA401344B342E5D20134AB
:1039E800E3E7044C0026ACE79C7500883CE4377E8E
:1039F800FFFF0F000000F0BF53EC112B2DE9F0473B
:103A080023F0004852EA080155EC104B47D0B7495B
:103A180025F0004A8A45A94641D85042B44E40EAAA
:103A2800020148EAD171B142964638D8C2451F46CC
:103A3800214605F0004C3EDCC0F28480A24200F230
:103A4800818000F0B580354245D1BAF1000F34D1FC
:103A5800002C234640F32A81A64A5B00002B02F182
:103A6800FF32FADCA24B3B40002B40F09380B8F1C8
:103A7800000F40F0DF80BEF1000F73466DDC9D4EF5
:103A88009D48801A1F2800F3F08002F21E4321FA95
:103A980003F30AFA00FA43EA0A0381406AE020467F
:103AA8002946FCF731FD02460B46FCF757FE41EC70
:103AB800100BBDE8F08735420DD18F4A4FEACA2373
:103AC8005B00002B02F1FF32CCDD5B00002B02F122
:103AD800FF32F5DCC6E7864B4FEA2A523B40A2F29A
:103AE800FF3293B34FEA2850C9F31303A0F2FF360D
:103AF80043F48013A1EB0E00C7F3130545F48015BA
:103B0800921B0BD163E0013858D4A1EB0E04E30FEC
:103B1800013A03EB40034FEA440156D07145A3EB49
:103B28000500F0D30028A1EB0E0447DB50EA04039C
:103B3800EDD1724B4FEADC7C03EBCC0393ED000B29
:103B4800BDE8F08745EC104BB3E7B8F1000F71D131
:103B5800BEF1000F734640F3B480664E5B00002B45
:103B680006F1FF36FADC644B9A4289DBC9F313038A
:103B780043F48013604CA41B1F2C4CDC06F21E453A
:103B88002EFA05F508FA04F00EFA04FE0543A1EB37
:103B98000E00B5E7584CA41A4FEA28581F2CA8F273
:103BA800FF3672DD564B9B1A01FA03F30021A3E797
:103BB800524B03EB1C7393ED000B7AE7C80F013AE5
:103BC80000EB43034FEA4101A8D1A1EB0E005A1BB9
:103BD8008E4588BF02F1FF32002ABCBF08461A464C
:103BE80052EA000305D1A4E7C30F03EB42024000E9
:103BF800013EB2F5801FF7DB3F4B9E4223DBA2F567
:103C0800801242EA0C0106F2FF3641EA06530246E8
:103C180043EC102B4DE73A4D921BA5EB06050EFA27
:103C280005F518BF4FF0000E7FF478AF5A1B084611
:103C3800D2E7304A304E4FEAC8235B00002B06F12A
:103C4800FF36FADC8FE79B1B142B14DC06F21E41AF
:103C5800D84002FA01F142FA03F3014343EA0C0C9B
:103C680063460A4643EC102B23E7254B9B1A01FABF
:103C780003F300217EE71F2B13DC06F21E4120FA16
:103C880003F302FA01F11943EAE702F21E4321FAAB
:103C980003F30AFA04FA43EA0A03A140A1EB0E006F
:103CA8002AE71749891B42FA01F1D9E7104B3B4033
:103CB8007BB14FEA28500F4AA0F2FF36E30A6105AC
:103CC800ECE7C9F313030B4E43F480130B251524BB
:103CD80056E7B8F1000FACD1BEF1000F054A7346A4
:103CE8003FF73BAF15201646CFE600BFFFFFEF7F3B
:103CF8000000F07FEDFBFFFF02FCFFFF38460008E5
:103D0800E2FBFFFF000000002DE9F04F51EC100B23
:103D1800B1F5801F87B00D4680F2828021F0004304
:103D28000343024600F022810029C0F26981DA4B80
:103D38000022FCF7E9FBD94B0D469D426FF0350296
:103D480073DC2C15C5F3130505F51523A4F2FF3410
:103D580003F66473144403F4801304EB135483F0E0
:103D68007F5383F4401343EA05010022CC4BFCF750
:103D780013FAAB1CC3F31303022B82468B464FF096
:103D880000025BDC0023FCF727FE002840F0F980E6
:103D9800ADA3D3E9002350465946FCF7B5FB0246CC
:103DA8000B460020BF49FCF7F7F9524606460F4676
:103DB8005B4650465946FCF7A7FB02460B46304681
:103DC8003946FCF7A1FB06460F46002C00F00D8192
:103DD8002046FCF72FFB9EA3D3E9002380468946A3
:103DE800FCF792FB9CA3D3E9002304460D4640460A
:103DF8004946FCF789FB02460B4630463946FCF734
:103E0800CBF952465B46FCF7C7F902460B462046FB
:103E18002946FCF7C1F941EC100B07B0BDE8F08F5B
:103E28009E4B9D424FF000028BDD02460B46FCF78D
:103E3800B5F941EC100B07B0BDE8F08F4FF08043A7
:103E4800FCF7ACF902460B4650465946FCF786FC8F
:103E5800064620460F46FCF7EDFA3246CDE9040146
:103E68003B4630463946CDE90267FCF74DFB024632
:103E78000B46CDE90023FCF747FB79A3D3E90023E0
:103E880006460F46FCF740FB77A3D3E90023FCF76F
:103E980085F932463B46FCF737FB75A3D3E9002387
:103EA800FCF77CF932463B46FCF72EFB72A3D3E9BC
:103EB8000023FCF773F9DDE90023FCF725FB70A369
:103EC800D3E90023CDE9000130463946FCF71CFB55
:103ED8006DA3D3E90023FCF761F932463B46FCF7B2
:103EE80013FB6BA3D3E90023FCF758F932463B4692
:103EF800FCF70AFBA5F5C22802460B46C5F5D725EF
:103F0800DDE90001FCF74AF9A8F27A48513545EA9B
:103F18000805002D06460F4652DD624B002250462A
:103F28005946FCF7F1FA52465B46FCF7EDFA804633
:103F380089463046394642464B46FCF72FF9DDE9BB
:103F48000223FCF7E1FA06460F46002C62D102462E
:103F58000B4640464946FCF71FF902460B465046B9
:103F68005946FCF719F941EC100B64E700220023CD
:103F78004D490020FCF7F2FB41EC100B07B0BDE8FF
:103F8800F08F002C00F092802046FCF753FA30A303
:103F9800D3E9002306460F46FCF7B6FA2EA3D3E969
:103FA800002304460D4630463946FCF7ADFA024672
:103FB8000B4620462946FCF7F1F841EC100B3AE78E
:103FC80002460B4650465946FCF7E6F8DDE902235F
:103FD800FCF79AFA06460F463CB1DDE904891CA3B2
:103FE800D3E9002340464946FAE632463B46504666
:103FF8005946FCF7D1F841EC100B07B0BDE8F08F3B
:104008000B46FCF7C9F800220023FCF7A7FB41EC9C
:10401800100B10E70EA3D3E90023DDE90401FCF738
:1040280073FA0DA3D3E9002304460D46DDE9040124
:10403800FCF76AFA32463B46FCF7B0F802460B46F4
:1040480040464946DBE600BF555555555555D53FC1
:104058000000E0FE422EE63F763C7935EF39EA3D36
:1040680044523EDF12F1C23FDE03CB966446C73F9F
:10407800599322942449D23F935555555555E53FB8
:104088009FC678D0099AC33FAF788E1DC571CC3FC3
:1040980004FA97999999D93F00005043FFFFEF7FA1
:1040A8000000F03F0000E03F000050C39FED020B0E
:1040B800C1E600BFAFF30080000000000000000070
:1040C80038B50022002304460D46FCF78FFC28B9BA
:1040D80020462946BDE8384000F00AB8204605F1D8
:1040E800004100F005F8404261EB410138BD00BFD6
:1040F800D0B50C4B002206460F46FCF705FAFCF734
:10410800DBFC0446FCF786F9074B0022FCF7FCF9B8
:1041180002460B4630463946FCF73EF8FCF7CCFC25
:104128002146D0BD0000F03D0000F0412DE9F047E8
:10413800089D0E4604460F46002B4AD194468C45EE
:10414800B2FA82F260D942B1C2F12003974020FA54
:1041580003F30CFA02FC1F4394404FEA1C4E1FFA6B
:104168008CF6B7FBFEF1230C0EFB117743EA0743ED
:1041780001FB06F098420AD91CEB030301F1FF3753
:1041880080F01581984240F21281023963441B1A6B
:10419800A4B2B3FBFEF00EFB103344EA034400FB69
:1041A80006F6A6420AD91CEB040400F1FF3380F09E
:1041B8000081A64240F2FD806444023840EA014092
:1041C800A41B00211DB1D4400023C5E90043BDE86C
:1041D800F0878B4205D90DB1C5E9000100210846D9
:1041E800F5E7B3FA83F1002946D1B34202D38242FC
:1041F80000F2F580841A66EB030201201746002DB1
:10420800E5D0C5E90047E2E7002A40F09380A1EB3A
:104218000C034FEA1C471FFA8CFE0121B3FBF7F68B
:1042280007FB1630230C43EA00430EFB06F09842C6
:1042380008D91CEB030306F1FF3802D2984200F2BA
:10424800D08046461B1AA4B2B3FBF7F007FB103325
:1042580044EA03440EFB00FEA64508D91CEB0404FF
:1042680000F1FF3302D2A64500F2B6801846A4EB4F
:104278000E0440EA0640A5E7C1F120078B4022FA68
:1042880007FC4CEA030C06FA01FE20FA07F426FAAA
:1042980007F344EA0E0400FA01F84FEA1C404FEA1B
:1042A8001449B3FBF0FE1FFA8CF600FB1E3349EAF3
:1042B80003430EFB06F9994502FA01F20BD91CEBF0
:1042C80003030EF1FF3A80F08580994540F2828021
:1042D800AEF1020E6344A3EB0909A4B2B9FBF0F3F3
:1042E80000FB139944EA094403FB06F6A64208D9E1
:1042F8001CEB040403F1FF3068D2A64266D9023BE6
:10430800644443EA0E40A41BA0FB02E6B442734691
:10431800B14652D34FD05DB1B8EB030264EB090448
:1043280004FA07F722FA01F31F43CC40C5E90074E9
:1043380000214CE7C2F1200120FA01F30CFA02FC3B
:1043480026FA01F1964033434FEA1C471FFA8CFEC8
:10435800B1FBF7F007FB1016190C41EA064100FB08
:104368000EF68E4204FA02F408D91CEB010100F1A2
:10437800FF382DD28E422BD902386144891B9BB25B
:10438800B1FBF7F607FB161143EA014306FB0EF1F2
:10439800994208D91CEB030306F1FF3814D299425D
:1043A80012D9023E63445B1A46EA004136E73946B1
:1043B800EDE6184602E7F045ADD2BEEB020366EB28
:1043C8000C060138B146A6E74646ECE7034698E7EF
:1043D8004046D3E7D6467EE76444023847E70846B6
:1043E8000DE7023E63442DE7884210B501EB020455
:1043F80002D98442234607D8431EA14208D011F8A7
:10440800012B03F8012FF8E7024401468A4200D144
:1044180010BD13F8014D02F8014DF7E702440346B9
:10442800934200D1704703F8011BF9E7014B186864
:10443800704700BF1400002070B50D4D0D4C641B73
:10444800A4100026A64209D10B4D0C4C00F018F818
:10445800641BA4100026A64205D170BD55F8043B84
:1044680098470136EEE755F8043B98470136F2E7DE
:1044780050460008504600085046000854460008B8
:10448800F8B500BFF8BC08BC9E467047F8B500BF39
:08449800F8BC08BC9E46704709
:1044A000102840587088A0B8E000002000000000EC
:1044B000CDCCCC3D0000803E6666E63E52B81E3F45
:1044C00014AE473FAE47613F3333733F0000803F38
:1044D000000040409A99594066666640CDCC6C40D9
:1044E000333373409A9979400000804033338340DE
:1044F00066668640BC74933C8FC2753CF4FD543CA8
:10450000A69B443CA69B443CA69B443CA69B443CA7
:10451000A69B443CA69B443CF4FD543C8FC2753C96
:104520005839343CBC74133C6F12033C4260E53B89
:104530004260E53B4260E53B4260E53B4260E53B73
:104540004260E53B6F12033CBC74133C0AD7A33BAB
:104550006F12833BA69B443BA69B443BA69B443BDC
:10456000A69B443BA69B443BA69B443BA69B443B4B
:10457000A69B443B6F12833B6F12833BA69B443B3D
:104580006F12033B6F12033B6F12033B6F12033B2F
:104590006F12033B6F12033B6F12033B6F12033B1F
:1045A000A69B443BA69B443B6F12033B6F12033B0D
:1045B0006F12833A6F12833A6F12833A6F12833A03
:1045C0006F12833A6F12833A6F12833A6F12033B72
:1045D00000000000CDCCCC3DCDCC4C3E9A99993E0C
:1045E000CDCCCC3E0000003F9A99193F3333333F86
:1045F000CDCC4C3F6666663F0000803F33938343DB
:10460000339388433313954333939C433313A44329
:10461000A0F00000020000000000000001020304FE
:104620000000000000000000010203040607080962
:10463000000000000000000000000000000000007A
:084640000000000000000080F2
:08464800ECFAFF7F0100000005
:04465000590E0008F7
:04465400310E00081B
:10465800000000000000F8FF01000000100000004A
:104668000024F4001800002000000000C002002010
:104678002803002090030020000000000000000034
:104688000000000000000000000000000000000022
:104698000000000000000000000000000000000012
:1046A8000000000000000000000000000000000002
:0446B80000000000FE
:040000050800354D6D
:00000001FF
