:020000040800F2
:1000000000000220E1690008295100083151000870
:100010003951000841510008495100080000000012
:100020000000000000000000000000005151000826
:100030005F510008000000006D5100087B5100086E
:10004000316A0008316A0008316A0008316A000824
:10005000316A0008316A0008316A0008316A000814
:10006000316A0008316A0008316A0008316A000804
:10007000316A0008316A0008316A0008316A0008F4
:10008000953F0008316A0008316A0008316A0008AB
:10009000316A0008316A0008316A0008316A0008D4
:1000A000316A0008316A0008316A0008316A0008C4
:1000B000316A0008316A0008316A0008316A0008B4
:1000C000316A0008316A0008316A0008316A0008A4
:1000D000316A0008316A0008813F0008316A00086F
:1000E000316A0008316A0008316A0008316A000884
:1000F000316A0008316A0008316A0008316A000874
:10010000316A0008316A000889510008316A000824
:10011000316A0008316A0008316A0008316A000853
:10012000316A0008316A0008316A0008316A000843
:10013000316A00080000000000000000316A000879
:10014000316A0008316A0008316A0008316A000823
:10015000316A0008316A0008316A0008316A000813
:10016000316A0008316A0008316A0008316A000803
:10017000316A0008316A0008316A00080000000096
:1001800000000000316A00080000000000000000CC
:10019000316A00080000000000000000316A000819
:1001A000000000000000000000000000316A0008AC
:1001B000316A0008316A0008316A0008316A0008B3
:0401C000316A000898
:1001C80081F0004102E000BF83F0004330B54FEA00
:1001D80041044FEA430594EA050F08BF90EA020F6D
:1001E8001FBF54EA000C55EA020C7FEA645C7FEA00
:1001F800655C00F0E2804FEA5454D4EB5555B8BF23
:100208006D420CDD2C4480EA020281EA030382EA93
:10021800000083EA010180EA020281EA0303362D25
:1002280088BF30BD11F0004F4FEA01314FF4801CF8
:100238004CEA113102D0404261EB410113F0004F0A
:100248004FEA03334CEA133302D0524263EB4303C1
:1002580094EA050F00F0A780A4F10104D5F1200E5F
:100268000DDB02FA0EFC22FA05F2801841F10001BA
:1002780003FA0EF2801843FA05F359410EE0A5F18E
:1002880020050EF1200E012A03FA0EFC28BF4CF0BF
:10029800020C43FA05F3C01851EBE37101F0004575
:1002A80007D54FF0000EDCF1000C7EEB00006EEB82
:1002B8000101B1F5801F1BD3B1F5001F0CD349080C
:1002C8005FEA30004FEA3C0C04F101044FEA445263
:1002D80012F5800F80F09A80BCF1004F08BF5FEAEA
:1002E800500C50F1000041EB045141EA050130BDCA
:1002F8005FEA4C0C404141EB0101013C28BFB1F5DC
:10030800801FE9D291F0000F04BF01460020B1FA26
:1003180081F308BF2033A3F10B03B3F120020CDAF9
:100328000C3208DD02F1140CC2F10C0201FA0CF0D7
:1003380021FA02F10CE002F11402D8BFC2F1200C3C
:1003480001FA02F120FA0CFCDCBF41EA0C019040F2
:10035800E41AA2BF01EB0451294330BD6FEA04043B
:100368001F3C1CDA0C340EDC04F11404C4F1200226
:1003780020FA04F001FA02F340EA030021FA04F338
:1003880045EA030130BDC4F10C04C4F1200220FA8F
:1003980002F001FA04F340EA0300294630BD21FACD
:1003A80004F0294630BD94F0000F83F4801306BF93
:1003B80081F480110134013D4EE77FEA645C18BF87
:1003C8007FEA655C29D094EA050F08BF90EA020F1E
:1003D80005D054EA000C04BF1946104630BD91EA16
:1003E800030F1EBF0021002030BD5FEA545C05D119
:1003F8004000494128BF41F0004130BD14F5800458
:100408003CBF01F5801130BD01F0004545F0FE41CB
:1004180041F470014FF0000030BD7FEA645C1ABF00
:10042800194610467FEA655C1CBF0B46024650EA37
:10043800013406BF52EA033591EA030F41F4002163
:1004480030BD00BF90F0000F04BF0021704730B5E9
:100458004FF4806404F132044FF000054FF00001BE
:1004680050E700BF90F0000F04BF0021704730B57F
:100478004FF4806404F1320410F0004548BF404254
:100488004FF000013EE700BF42004FEAE2014FEAA9
:1004980031014FEA02701FBF12F07F4393F07F4F84
:1004A80081F06051704732F07F4208BF704793F087
:1004B8007F4F04BF41F40021704730B54FF460749A
:1004C80001F0004521F000411CE700BF50EA01029D
:1004D80008BF704730B54FF000050AE050EA010246
:1004E80008BF704730B511F0004502D5404261EBB6
:1004F80041014FF4806404F132045FEA915C3FF4F7
:10050800D8AE4FF003025FEADC0C18BF03325FEA93
:10051800DC0C18BF033202EBDC02C2F1200300FA44
:1005280003FC20FA02F001FA03FE40EA0E0021FA69
:1005380002F11444BDE600BF70B54FF0FF0C4CF457
:10054800E06C1CEA11541DBF1CEA135594EA0C0F09
:1005580095EA0C0F00F0DEF82C4481EA030621EA44
:100568004C5123EA4C5350EA013518BF52EA03357F
:1005780041F4801143F4801338D0A0FB02CE4FF031
:100588000005E1FB02E506F00042E0FB03E54FF061
:100598000006E1FB03569CF0000F18BF4EF0010E59
:1005A800A4F1FF04B6F5007F64F5407404D25FEA55
:1005B8004E0E6D4146EB060642EAC62141EA555108
:1005C8004FEAC52040EA5E504FEACE2EB4F1FD0C4A
:1005D80088BFBCF5E06F1ED8BEF1004F08BF5FEAC8
:1005E800500E50F1000041EB045170BD06F000467A
:1005F80046EA010140EA020081EA0301B4EB5C0427
:10060800C2BFD4EB0C0541EA045170BD41F480111E
:100618004FF0000E013C00F3AB8014F1360FDEBF43
:10062800002001F0004170BDC4F10004203C35DA1F
:100638000C341BDC04F11404C4F1200500FA05F3A2
:1006480020FA04F001FA05F240EA020001F0004243
:1006580021F0004110EBD37021FA04F642EB0601B9
:100668005EEA430E08BF20EAD37070BDC4F10C04E3
:10067800C4F1200500FA04F320FA05F001FA04F2A7
:1006880040EA020001F0004110EBD37041F1000193
:100698005EEA430E08BF20EAD37070BDC4F120059E
:1006A80000FA05F24EEA020E20FA04F301FA05F206
:1006B80043EA020321FA04F001F0004121FA04F2AE
:1006C80020EA020000EBD3705EEA430E08BF20EA7E
:1006D800D37070BD94F0000F0FD101F000464000B8
:1006E80041EB010111F4801F08BF013CF7D041EA3A
:1006F800060195F0000F18BF704703F0004652003E
:1007080043EB030313F4801F08BF013DF7D043EA0E
:100718000603704794EA0C0F0CEA135518BF95EAC4
:100728000C0F0CD050EA410618BF52EA4306D1D14B
:1007380081EA030101F000414FF0000070BD50EA6A
:10074800410606BF1046194652EA430619D094EAF4
:100758000C0F02D150EA013613D195EA0C0F05D1DE
:1007680052EA03361CBF104619460AD181EA030132
:1007780001F0004141F0FE4141F470014FF00000EA
:1007880070BD41F0FE4141F4780170BD70B54FF085
:10079800FF0C4CF4E06C1CEA11541DBF1CEA135505
:1007A80094EA0C0F95EA0C0F00F0A7F8A4EB0504E7
:1007B80081EA030E52EA03354FEA013100F08880DE
:1007C8004FEA03334FF0805545EA131343EA1263A7
:1007D8004FEA022245EA111545EA10654FEA00265C
:1007E8000EF000419D4208BF964244F1FD0404F515
:1007F800407402D25B084FEA3202B61A65EB030571
:100808005B084FEA32024FF480104FF4002CB6EB2D
:10081800020E75EB030E22BFB61A754640EA0C00AD
:100828005B084FEA3202B6EB020E75EB030E22BFED
:10083800B61A754640EA5C005B084FEA3202B6EB2E
:10084800020E75EB030E22BFB61A754640EA9C00ED
:100858005B084FEA3202B6EB020E75EB030E22BFBD
:10086800B61A754640EADC0055EA060E18D04FEA7B
:10087800051545EA16754FEA06164FEAC30343EA1B
:1008880052734FEAC2025FEA1C1CC0D111F4801FE8
:100898000BD141EA00014FF000004FF0004CB6E7E1
:1008A80011F4801F04BF01430020B4F1FD0C88BF80
:1008B800BCF5E06F3FF6AFAEB5EB030C04BFB6EB8B
:1008C800020C5FEA500C50F1000041EB045170BD7E
:1008D8000EF0004E4EEA113114EB5C04C2BFD4EBAB
:1008E8000C0541EA045170BD41F480114FF0000E2F
:1008F800013C90E645EA060E8DE60CEA135594EAAB
:100908000C0F08BF95EA0C0F3FF43BAF94EA0C0FAD
:100918000AD150EA01347FF434AF95EA0C0F7FF422
:1009280025AF104619462CE795EA0C0F06D152EA76
:1009380003353FF4FDAE1046194622E750EA41065A
:1009480018BF52EA43067FF4C5AE50EA41047FF46B
:100958000DAF52EA43057FF4EBAE12E74FF0FF3CD0
:1009680006E000BF4FF0010C02E000BF4FF0010CA1
:100978004DF804CD4FEA410C7FEA6C5C4FEA430C1A
:1009880018BF7FEA6C5C1BD001B050EA410C0CBF69
:1009980052EA430C91EA030F02BF90EA020F0020CB
:1009A800704710F1000F91EA030F58BF994208BF32
:1009B80090422CBFD8176FEAE37040F001007047EF
:1009C8004FEA410C7FEA6C5C02D150EA013C07D146
:1009D8004FEA430C7FEA6C5CD6D152EA033CD3D091
:1009E8005DF8040B704700BF8446104662468C468B
:1009F8001946634600E000BF01B5FFF7B7FF0028BE
:100A080048BF10F1000F01BD4DF808EDFFF7F4FFE6
:100A18000CBF012000205DF808FB00BF4DF808ED71
:100A2800FFF7EAFF34BF012000205DF808FB00BF94
:100A38004DF808EDFFF7E0FF94BF012000205DF8B6
:100A480008FB00BF4DF808EDFFF7CEFF94BF01206B
:100A580000205DF808FB00BF4DF808EDFFF7C4FF64
:100A680034BF012000205DF808FB00BF4FEA4102B7
:100A7800B2F1E04324BFB3F5001CDCF1FE5C0DD9F4
:100A880001F0004C4FEAC0024CEA5070B2F1004F3E
:100A980040EB830008BF20F00100704711F0804F41
:100AA80021D113F13872BCBF01F00040704741F406
:100AB80080114FEA5252C2F11802C2F1200C10FA0A
:100AC8000CF320FA02F018BF40F001004FEAC123EE
:100AD8004FEAD32303FA0CFC40EA0C0023FA02F392
:100AE8004FEA4303CCE77FEA625307D150EA013368
:100AF8001EBF4FF0FE4040F44000704701F0004038
:100B080040F0FE4040F40000704700BF53B94AB9B6
:100B1800002908BF00281CBF4FF0FF314FF0FF30FD
:100B280000F00CB8ADF1080C6DE904CE08F0A8F996
:100B3800DDF804E0DDE9022304B07047704700BF28
:100B48000348044B834202D0034B03B11847704754
:100B5800C0000020C0000020000000000548064B2F
:100B68001B1AD90F01EBA301491002D0034B03B1A3
:100B780018477047C0000020C00000200000000097
:100B880010B5064C237843B9FFF7DAFF044B13B1CD
:100B98000448AFF300800123237010BDC00000207B
:100BA80000000000B891000808B5054B1BB10549C5
:100BB8000548AFF30080BDE80840FFF7CFBF00BF8E
:100BC80000000000C4000020B891000880B400AF05
:100BD800074B1B681B68002B04D0054B1B680833A8
:100BE800034A136000BFBD465DF8047B704700BF31
:100BF800DC00002080B586B000AFF8600B467A6054
:100C0800FB7200237B61214B1B68002B36D1F97ADC
:100C18001F4B7A68F86800F0A7FF0346002B03D043
:100C280001237B6100232DE0194B1B685B68174A81
:100C38001360174B1B681B68164A13601EE0134BA2
:100C48001B68144A12681146184600F07BFDFFF72E
:100C5800BDFF0F4B1B681B68002B05D101237B616F
:100C68000A4B00221A6009E0094B1B685B68074AB7
:100C78001360074B1B681B68064A13607B69002BCF
:100C8800DDD0002318461837BD4680BDF00000208F
:100C9800DC000020F400002080B588B002AFF860C6
:100CA8007B600B46FB721346BB7201237B61B97AEA
:100CB8003B6A0193FB7A0093144B7A68F86801F059
:100CC800ADF80346002B19D000231BE00F4B1B681F
:100CD8005A680E4B1B681B681946104600F0E4FC66
:100CE8000346002B01D001230CE0FFF76FFF074BF1
:100CF8001B681B68002B01D100237B617B69002BDB
:100D0800E4D1002318461837BD4680BDDC0000201A
:100D180080B588B002AFF8607B600B46FB72134663
:100D2800BB7201237B6100233B61B97A3B69019364
:100D3800FB7A0093144B7A68F86800F0BDFF03460D
:100D4800002B19D000231BE00F4B1B685A680E4B71
:100D58001B681B681946104600F0A6FC0346002BCA
:100D680001D001230CE0FFF731FF074B1B681B681C
:100D7800002B01D100237B617B69002BE4D1002388
:100D880018461837BD4680BDDC00002080B584B009
:100D980000AF03460A46FB711346BB71FB79002B73
:100DA80019D00023FB7307F10F030121184600F047
:100DB8007BFC0346002B01D0012316E0FB79FB7373
:100DC80007F10F030121184600F06EFC0346002BC3
:100DD80001D0012309E0BB79184600F009FD03465C
:100DE800002B01D0012300E0002318461037BD4630
:100DF80080BD000080B485B000AF03460A46FB7191
:100E08001346BB7197F90730062B00F2E38001A265
:100E180052F823F0390E0008670E0008CD0E0008BE
:100E2800730F0008070F0008870F0008D70F000886
:100E3800BB790D2B0FDC0B2B07DA092B02DC002BFF
:100E480003DA08E00A2B03D005E00123FB7305E071
:100E58000123FB7302E0FF23FB7300BFBDE0BB79F6
:100E68000D2B2BD801A252F823F000BFAD0E0008BD
:100E7800B90E0008B90E0008BF0E0008B90E000828
:100E8800BF0E0008BF0E0008B30E0008B90E000818
:100E9800BF0E0008C50E0008BF0E0008B90E0008F6
:100EA800AD0E00080523FB730BE00623FB7308E077
:100EB8000423FB7305E00223FB7302E0FF23FB73AB
:100EC80000BF8AE0BB79033B082B8CBF01220022BC
:100ED800D2B2002A0FD140F24D1222FA03F303F0E6
:100EE8000103002B14BF01230023DBB2002B02D027
:100EF8000423FB7302E0FF23FB7300BF6DE0BB79A3
:100F0800013B0C2B8CBF01220022D2B2002A28D12F
:100F1800012202FA03F341F6BB421A40002A14BF29
:100F280001220022D2B2002A12D103F48072002AD0
:100F380014BF01220022D2B2002A0FD103F0040309
:100F4800002B14BF01230023DBB2002B03D108E0E0
:100F58000523FB7308E00323FB7305E00723FB73FA
:100F680002E0FF23FB7300BF37E0BB79032B02D1FC
:100F78000523FB7302E0FF23FB7300BF2DE0BB7961
:100F88000D2B8CBF01220022D2B2002A1BD10122D4
:100F98009A4043F2FE031340002B14BF01230023A1
:100FA800DBB2002B0CD140F601131340002B14BF09
:100FB80001230023DBB2002B05D00723FB7305E0D8
:100FC8000623FB7302E0FF23FB7300BF05E0072342
:100FD800FB7302E0FF23FB7300BF97F90F3018463D
:100FE8001437BD465DF8047B704700BF80B582B0FA
:100FF80000AF1D4B93F90030002B31D1FB1D0121AF
:10100800184600F09FFBFA79174B5A70164B5B781D
:101018000A2B0DD1154B01221A6001210820FFF778
:10102800B5FE0346002B1AD0114B00221A6017E0B8
:101038000D4B93F900300C4A527811461846FFF7C9
:10104800D9FE03461A46084B1A70074B93F900302D
:10105800B3F1FF3F04D1064B00221A6000E000BF45
:101068000837BD4680BD00BFE4000020E000002036
:101078000000002080B586B002AFFFF7B7FFAA4B8B
:1010880093F90030012B1AD10421A84800F05AFB2B
:10109800A54B93F90030A44A527811461846FFF739
:1010A800A9FE03461A46A04B1A709F4B93F90030CD
:1010B800B3F1FF3F03D19E4B00221A606AE29A4BBC
:1010C80093F90030022B1AD104219A4800F03AFB18
:1010D800954B93F90030944A527811461846FFF719
:1010E80089FE03461A46904B1A708F4B93F90030CD
:1010F800B3F1FF3F03D18E4B00221A604AE28A4BBC
:1011080093F90030042B37D1874B9B68864A517876
:10111800854A52681846FFF76DFD0346FB73FB7B53
:10112800012B03D1824B00221A6033E2FB7B002B98
:101138000BD001210120FFF729FE0346002B00F008
:101148000E827B4B00221A6024E2774B93F9003021
:10115800754A527811461846FFF74CFE03461A4660
:10116800714B1A70704B93F90030B3F1FF3F03D104
:101178006F4B00221A600DE26B4B93F90030032B82
:1011880037D1694B9868684B5A78674B5B6801217F
:10119800FFF7BEFD0346BB73BB7B012B03D1644B3A
:1011A80000221A60F6E1BB7B002B0BD00121022044
:1011B800FFF7ECFD0346002B00F0D3815C4B0022C7
:1011C8001A60E7E1584B93F90030574A52781146B4
:1011D8001846FFF70FFE03461A46534B1A70524B38
:1011E80093F90030B3F1FF3F03D1514B00221A604D
:1011F800D0E14D4B93F90030052B40F054814A4B18
:101208005B780D2B00F21D8101A252F823F000BF7C
:1012180051120008B312000807130008F51300085C
:10122800411300086B1300089913000853140008B1
:10123800891200084B1400084B140008C713000853
:1012480023140008DD12000801F0F6FB0346002B0A
:1012580003D0374B00221A609CE100F02CFB0346B8
:10126800002B03D0324B00221A6093E101F076FA8A
:101278000346002B00F0EB802D4B00221A6089E119
:10128800294B9B68184600F006FB0346002B00F02C
:10129800E08001210320FFF779FD0346002B00F0D1
:1012A8006281234B00221A6074E11F4B9B68184629
:1012B80000F056FB0346002B00F0CD8001210420EE
:1012C800FFF764FD0346002B00F04F81184B002206
:1012D8001A605FE1144B9B68184600F0FBFB03465D
:1012E800002B00F0BA8001210420FFF74FFD0346D0
:1012F800002B00F03C810E4B00221A604AE10A4B99
:101308009B68184600F0F8FB0346002B00F0A78006
:1013180001210520FFF73AFD0346002B00F0298143
:10132800034B00221A6035E1E4000020EC000020A5
:1013380000000020E8000020984B9B68184601F048
:10134800FDF90346002B00F08C8001210820FFF7EF
:101358001DFD0346002B00F00E81914B00221A6000
:1013680018E18E4B9B688D4A52681146184601F069
:10137800FDF90346002B76D001210920FFF706FD71
:101388000346002B00F0F980854B00221A6001E12A
:10139800824B9B68814A52681146184601F0F7F95A
:1013A8000346002B61D001210A20FFF7EFFC03461A
:1013B800002B00F0E4807A4B00221A60EAE0774BB9
:1013C8009B68764A52681146184600F015FD034698
:1013D800002B4CD001210720FFF7D8FC0346002B37
:1013E80000F0CF806E4B00221A60D3E06B4B9B68F5
:1013F8006A4A52681146184600F07CFC0346002BE6
:1014080037D001210620FFF7C1FC0346002B00F06E
:10141800BA80634B00221A60BCE0604B9B68184698
:1014280000F090FB0346002B25D001210B20FFF78D
:10143800ADFC0346002B00F0A880594B00221A602F
:10144800A8E0574B00221A60A4E000BF14E000BFD8
:1014580012E000BF10E000BF0EE000BF0CE000BFCC
:101468000AE000BF08E000BF06E000BF04E000BFDC
:1014780002E000BF00E000BF484B93F90030474A44
:10148800527811461846FFF7B5FC03461A46434BF7
:101498001A70424B93F90030B3F1FF3F03D1404B30
:1014A80000221A6076E03D4B93F90030062B3BD1C1
:1014B8000023BB60394B9868384B5A78374B5968CA
:1014C800BB6800930B460221FFF7E6FB0346FB715E
:1014D800FB79012B03D1324B00221A605AE0FB79C9
:1014E800002B0AD001210220FFF750FC0346002BF5
:1014F8004DD02B4B00221A604CE0284B93F900305A
:10150800264A527811461846FFF774FC03461A46D5
:10151800224B1A70214B93F90030B3F1FF3F03D1EE
:101528001F4B00221A6035E01C4B93F90030072B43
:101538002FD11A4B5B78092B2BD00123BB71BB79B8
:1015480019460020FFF722FC0346002B03D0144B5A
:1015580000221A601EE0114B00221A7019E000BF29
:1015680018E000BF16E000BF14E000BF12E000BFA3
:1015780010E000BF0EE000BF0CE000BF0AE000BFB3
:1015880008E000BF06E000BF04E000BF02E000BFC3
:1015980000E000BF1037BD4680BD00BFE40000205A
:1015A8000000002080B582B000AF0023FB71FFF778
:1015B80061FD0B4B1B68002B09D00A4B1B68002BE5
:1015C80002D0FF23FB7104E00023FB7101E001233B
:1015D800FB7197F9073018460837BD4680BD00BF34
:1015E80000000020E000002080B582B000AF862116
:1015F800104801F08BF90346002B01D1012314E0B8
:101608000C4B1B68184601F093F978600A4A7B680E
:1016180013607B680133094A1360094B00221A8062
:10162800054B1B6800221A70002318460837BD4670
:1016380080BD00BFF800002004010020FC0000204D
:101648000001002080B500AF01F050F903461A46AA
:1016580001239A4201D0012302E0FFF7C5FF0346A8
:10166800184680BD80B500AF0D4B1A680D4B1B881E
:1016780001339BB21946104601F068F903461A4631
:1016880000239A4201D1032307E0FFF7ADFF034689
:10169800002B01D0032300E00023184680BD00BFC3
:1016A800F80000200001002080B586B000AF786007
:1016B80039600023FB757B683B6137E01F4B1B8853
:1016C800802B08D1FFF7CEFF0346FB75FB7D002B6F
:1016D80001D0FB7D2EE0194B1B88C3F18003FB81F1
:1016E800FB893A689A4202D83B689BB200E0FB89C2
:1016F800BB60134B1B68BA683969184607F04AFD86
:101708003A68BB68D31A3B60BB689AB20B4B1B881C
:1017180013449AB2094B1A803A69BB6813443B6177
:10172800074B1A68BB681344054A13603B68002BD3
:10173800C4D1FB7D18461837BD4680BD0001002086
:10174800FC00002080B588B000AF786039600023C5
:10175800FB760023FB617B687B613DE0224B1B88A5
:10176800002B2ED0204B1B881A463B68934202D888
:101778003B689BB201E01C4B1B887B82FB697A6942
:1017880013441A4A11687A8A184607F003FD164B63
:101798001A887B8AD31A9AB2134B1A80134B1A6889
:1017A8007B8A1344114A13607B8A3A68D31A3B60D8
:1017B8003B68002B01D1FB7E12E07B8AFA69134457
:1017C800FB610949094801F053F8F860FB68B3F177
:1017D800FF3F01D1012303E03B68002BBED1FB7E14
:1017E80018462037BD4680BD080100200C010020A6
:1017F80080B582B000AF0346FB71FB79002B04D0A3
:101808000A4B1B6802221A7003E0084B1B6801226E
:101818001A70FFF727FF0346032B01D1032300E0CB
:10182800002318460837BD4680BD00BF04010020CC
:1018380080B500AF01F062F800BF80BD80B582B00E
:1018480000AF786039603968786800F0B1FF034606
:101858000122934201D001230EE0FFF7F3FE034675
:10186800002B01D0012307E001F026FC0346002BE2
:1018780001D0012300E0002318460837BD4680BD8B
:1018880080B500AFFFF7D4FF01F026FC00F0AAFFF7
:101898000023184680BD80B483B000AF78607B68B1
:1018A800002B01D0022300E0002318460C37BD4668
:1018B8005DF8047B704780B582B000AF0823FB71E8
:1018C800FB1D01211846FFF7EFFE0346002B01D050
:1018D800032340E00123FB71FB1D01211846FFF79C
:1018E800E3FE0346002B01D0032334E00423FB71FD
:1018F800FB79FB71FB1D01211846FFF7D5FE034656
:10190800002B01D0032326E00823BB71BB1D012156
:101918001846FFF7C9FE0346002B01D003231AE03F
:101928000023BB71BB1D01211846FFF7BDFE03460E
:10193800002B01D003230EE00823BB71BB79BB71D8
:10194800BB1D01211846FFF7AFFE0346002B01D04F
:10195800032300E0002318460837BD4680BD000079
:1019680080B588B000AF78600023FB77464B002233
:101978001A70464B00221A70454B00221A70454BCC
:1019880000221A70444B00221A70444B00221A702D
:101998000023BB6109E0424ABB699B0013444FF036
:1019A80000021A60BB690133BB61BB690B2BF2D91A
:1019B8003C4B4FF000021A603B4B4FF000021A609C
:1019C80000237B6109E0394A7B699B0013444FF08F
:1019D80000021A607B6901337B617B690B2BF2D9AA
:1019E80000233B6109E0324A3B699B0013444FF0F6
:1019F80000021A603B6901333B613B690B2BF2D94A
:101A08002C4B00221A702C4B4FF000021A602B4B03
:101A18004FF000021A600023FB6007E0284AFB68C9
:101A2800134400221A70FB680133FB60FB680B2B20
:101A3800F4D90023BB600CE0224ABB68DB00D11854
:101A48004FF000024FF00003C1E90023BB680133E7
:101A5800BB60BB680F2BEFD97B68002B0DD11A4BED
:101A68001B681A4A12681146184606F07DFA114B8F
:101A78001B781A46164B1A6001E00223FB77FB7F9E
:101A880018462037BD4680BDA9010020AA010020C4
:101A9800AB010020AC010020AD010020AE01002008
:101AA800B0010020E0010020E4010020E80100204E
:101AB80018020020480200204C020020500200209A
:101AC80054020020600200200400002008000020CA
:101AD8000C04002080B485B000AF78600023FB734D
:101AE8007B68002B01D00223FB73FB7B184614375D
:101AF800BD465DF8047B704780B584B000AF786060
:101B08000023FB737B68002B0AD1094A09490A485C
:101B180004F08BFF094B1B781A46094B1A6001E049
:101B28000223FB73FB7B18461037BD4680BD00BF00
:101B380070030020600200205402002048020020A8
:101B48000C04002080B485B000AF78600023FB73DC
:101B58007B68002B01D00223FB73FB7B18461437EC
:101B6800BD465DF8047B704780B48DB000AFF86067
:101B78007A603B600B46FB72002387F82F303B6886
:101B880000221A60FB68002B05D0022387F82F304B
:101B980097F82F307AE0FB7A032B71D13E4B1B6804
:101BA800002B69D10023BB623C4B7B623C4ABB6A79
:101BB800302142F83310BB6A5A1CBA62384ADB003B
:101BC80013447A6A5A60374B3B62354ABB6A302104
:101BD80042F83310BB6A5A1CBA62314ADB0013441C
:101BE8003A6A5A60304BFB612D4ABB6A042142F8BD
:101BF8003310BB6A5A1CBA62294ADB001344FA69DB
:101C08005A602A4BBB61264ABB6A302142F833101E
:101C1800BB6A5A1CBA62224ADB001344BA695A608A
:101C2800234B7B611E4ABB6A042142F83310BB6A0E
:101C38005A1CBA621A4ADB0013447A695A60184A75
:101C4800BB6A042142F83310BB6A5A1CBA62144AB0
:101C5800DB001344174A5A60114ABB6A002142F854
:101C68003310BB6A5A1CBA620D4ADB0013440022C7
:101C78005A60094B01221A603B68094A1A6003E05E
:101C8800012387F82F3000BF97F82F3018463437D4
:101C9800BD465DF8047B7047E00500201001002078
:101CA8001004002040010020700100207401002071
:101CB800A40100200804002080B487B000AFF860B9
:101CC8007A603B600B46FB720023FB753B68002281
:101CD8001A60FB68002B03D00223FB75FB7D02E032
:101CE8000123FB75FB7D18461C37BD465DF8047B58
:101CF8007047000080B596B014AF786039607B6893
:101D0800002B01D002233EE03B68012B3AD1204B47
:101D18001B68DAB21F4B1A701F4B13931F4B129399
:101D28001F4B11931F4B10931F4B0F931F4B0E9379
:101D38001F4B0D931F4B0C931F4B0B931F4B0A9379
:101D48001F4B09931F4B08931F4B07931F4B069379
:101D58001F4B05931F4B04931F4B03931F4B029379
:101D68000C4B01931E4B00931E4B1F4A1F492048E2
:101D780004F07EFE0E4B1B781A461E4B1A6000BFFD
:101D8800002300E0012318460837BD4680BD00BF88
:101D980008040020A801002070030020E8020020A9
:101DA8006002002054020020500200204C02002053
:101DB8004802002018020020E8010020E401002069
:101DC800E0010020B0010020AE010020AD0100209C
:101DD800AC010020AB010020AA010020A9010020CD
:101DE800A40100207401002070010020400100209F
:101DF800100100200C04002080B483B000AF78608C
:101E080039607B68002B01D0022300E000231846CC
:101E18000C37BD465DF8047B7047000080B5B6B04E
:101E280000AFF8607A603B600B46FB72002387F8CE
:101E3800D7303B6800221A60FB68002B06D00223CB
:101E480087F8D73097F8D73000F050BCFB7A032BCF
:101E580000F05081032B00F34384012B04D0022BA4
:101E680000F0E08200F03CBC904B1B68002B40F077
:101E7800008100233B658E4BFB648E4A3B6D01213C
:101E880042F833103B6D5A1C3A658A4ADB0013440A
:101E9800FA6C5A60884BBB64864A3B6D012142F854
:101EA80033103B6D5A1C3A65824ADB001344BA6C06
:101EB8005A60824B7B647F4A3B6D012142F83310A4
:101EC8003B6D5A1C3A657B4ADB0013447A6C5A60B6
:101ED8007B4B3B64774A3B6D012142F833103B6DE5
:101EE8005A1C3A65734ADB0013443A6C5A60754BC6
:101EF800FB63704A3B6D012142F833103B6D5A1C5D
:101F08003A656C4ADB001344FA6B5A606E4BBB634C
:101F1800684A3B6D012142F833103B6D5A1C3A6503
:101F2800644ADB001344BA6B5A60684B7B63614AAE
:101F38003B6D302142F833103B6D5A1C3A655D4ABF
:101F4800DB0013447A6B5A60614B3B63594A3B6D23
:101F5800042142F833103B6D5A1C3A65554ADB00A0
:101F680013443A6B5A605B4BFB62524A3B6D042147
:101F780042F833103B6D5A1C3A654E4ADB00134455
:101F8800FA6A5A60544BBB624A4A3B6D302142F8A8
:101F980033103B6D5A1C3A65464ADB001344BA6A53
:101FA8005A604E4B7B62434A3B6D302142F83310F6
:101FB8003B6D5A1C3A653F4ADB0013447A6A5A6003
:101FC8003C4A3B6D042142F833103B6D5A1C3A657C
:101FD800384ADB001344424A5A60424B3B62354A56
:101FE8003B6D042142F833103B6D5A1C3A65314A67
:101FF800DB0013443A6A5A603B4BFB612D4A3B6D48
:10200800042142F833103B6D5A1C3A65294ADB001B
:102018001344FA695A60354BBB61264A3B6D0C2163
:1020280042F833103B6D5A1C3A65224ADB001344D0
:10203800BA695A602E4B7B611E4A3B6D802142F87B
:1020480033103B6D5A1C3A651A4ADB0013447A690F
:102058005A60184A3B6D002142F833103B6D5A1CF8
:102068003A65144ADB00134400225A600F4B0122E0
:102078001A60012107F1E000FFF716FB0346002B69
:1020880001D0032332E397F8E030092B0AD107F196
:10209800E40304211846FFF707FB0346002B01D091
:1020A800032323E33B68034A1A601DE3E405002089
:1020B800A9010020D0040020AA010020AB010020C3
:1020C800AC010020AD010020AE010020B0010020CD
:1020D800E0010020E4010020E801002018020020AF
:1020E8000C0400204C020020500200205402002062
:1020F80060020020B94B1B68002B40F0528100237E
:10210800C7F8D030B64BC7F8CC30B64AD7F8D0307D
:10211800012142F83310D7F8D0305A1CC7F8D02024
:10212800B04ADB001344D7F8CC205A60AE4BC7F84E
:10213800C830AC4AD7F8D030012142F83310D7F86C
:10214800D0305A1CC7F8D020A64ADB001344D7F871
:10215800C8205A60A54BC7F8C430A24AD7F8D03077
:10216800012142F83310D7F8D0305A1CC7F8D020D4
:102178009C4ADB001344D7F8C4205A609C4BC7F82C
:10218800C030984AD7F8D030012142F83310D7F838
:10219800D0305A1CC7F8D020924ADB001344D7F835
:1021A800C0205A60934BC7F8BC308E4AD7F8D0305D
:1021B800012142F83310D7F8D0305A1CC7F8D02084
:1021C800884ADB001344D7F8BC205A608A4BC7F80A
:1021D800B830844AD7F8D030012142F83310D7F804
:1021E800D0305A1CC7F8D0207E4ADB001344D7F8F9
:1021F800B8205A60814BC7F8B4307A4AD7F8D03043
:10220800302142F83310D7F8D0305A1CC7F8D02004
:10221800744ADB001344D7F8B4205A60784BC7F8E7
:10222800B030704AD7F8D030042142F83310D7F8CC
:10223800D0305A1CC7F8D0206A4ADB001344D7F8BC
:10224800B0205A606F4BC7F8AC30664AD7F8D03028
:10225800042142F83310D7F8D0305A1CC7F8D020E0
:10226800604ADB001344D7F8AC205A60664BC7F8C5
:10227800A8305C4AD7F8D030302142F83310D7F86C
:10228800D0305A1CC7F8D020564ADB001344D7F880
:10229800A8205A605D4BC7F8A430524AD7F8D0300E
:1022A800302142F83310D7F8D0305A1CC7F8D02064
:1022B8004C4ADB001344D7F8A4205A60494AD7F89F
:1022C800D030042142F83310D7F8D0305A1CC7F860
:1022D800D020444ADB0013444D4A5A604D4BC7F89E
:1022E800A030404AD7F8D030042142F83310D7F84C
:1022F800D0305A1CC7F8D0203A4ADB001344D7F82C
:10230800A0205A60444BC7F89C30364AD7F8D030E2
:10231800042142F83310D7F8D0305A1CC7F8D0201F
:10232800304ADB001344D7F89C205A603B4BC7F86F
:1023380098302C4AD7F8D0300C2142F83310D7F80F
:10234800D0305A1CC7F8D020264ADB001344D7F8EF
:1023580098205A60324BC7F89430224AD7F8D030C8
:10236800802142F83310D7F8D0305A1CC7F8D02053
:102378001C4ADB001344D7F894205A60194AD7F84E
:10238800D030002142F83310D7F8D0305A1CC7F8A3
:10239800D020144ADB00134400225A600F4B01225C
:1023A8001A60012107F1E000FFF77EF90346002BD0
:1023B80001D003239AE197F8E030092B0AD107F1FD
:1023C800E40304211846FFF76FF90346002B01D0F8
:1023D80003238BE13B68034A1A6085E1E805002086
:1023E800A901002048040020AA010020AB01002018
:1023F800AC010020AD010020AE010020B00100209A
:10240800E0010020E4010020E8010020180200207B
:102418000C0400204C02002050020020540200202E
:1024280060020020B34B1B68002B40F03C81002366
:10243800C7F89030B04BC7F88C30B04AD7F8903016
:10244800012142F83310D7F890305A1CC7F8902071
:10245800AA4ADB001344D7F88C205A60A84BC7F867
:102468008830A64AD7F89030012142F83310D7F8BF
:1024780090305A1CC7F89020A04ADB001344D7F8C4
:1024880088205A609F4BC7F884309C4AD7F8903010
:10249800012142F83310D7F890305A1CC7F8902021
:1024A800964ADB001344D7F884205A60964BC7F845
:1024B8008030924AD7F89030012142F83310D7F88B
:1024C80090305A1CC7F890208C4ADB001344D7F888
:1024D80080205A608D4BFB67884AD7F890300121DD
:1024E80042F83310D7F890305A1CC7F89020834A26
:1024F800DB001344FA6F5A60854BBB677F4AD7F8F5
:102508009030012142F83310D7F890305A1CC7F8A0
:1025180090207A4ADB001344BA6F5A607D4B7B6780
:10252800764AD7F89030302142F83310D7F89030F7
:102538005A1CC7F89020714ADB0013447A6F5A601E
:10254800754B3B676D4AD7F89030042142F8331039
:10255800D7F890305A1CC7F89020684ADB0013441B
:102568003A6F5A606D4BFB66644AD7F89030042185
:1025780042F83310D7F890305A1CC7F890205F4AB9
:10258800DB001344FA6E5A60654BBB665B4AD7F8AA
:102598009030302142F83310D7F890305A1CC7F8E1
:1025A8009020564ADB001344BA6E5A605D4B7B6636
:1025B800524AD7F89030302142F83310D7F890308B
:1025C8005A1CC7F890204D4ADB0013447A6E5A60B3
:1025D8004A4AD7F89030042142F83310D7F890309F
:1025E8005A1CC7F89020454ADB0013444E4A5A60EB
:1025F8004E4B3B66414AD7F89030042142F83310DD
:10260800D7F890305A1CC7F890203C4ADB00134496
:102618003A6E5A60464BFB65384AD7F89030042129
:1026280042F83310D7F890305A1CC7F89020334A34
:10263800DB001344FA6D5A603E4BBB652F4AD7F84E
:1026480090300C2142F83310D7F890305A1CC7F854
:1026580090202A4ADB001344BA6D5A60364B7B65DA
:10266800264AD7F89030802142F83310D7F89030B6
:102678005A1CC7F89020214ADB0013447A6D5A602F
:102688001E4AD7F89030002142F83310D7F890301E
:102698005A1CC7F89020194ADB00134400225A60DC
:1026A800144B01221A60012107F1E000FEF7FCFF3C
:1026B8000346002B01D0032318E097F8E030092BDC
:1026C8000AD107F1E40304211846FEF7EDFF03469B
:1026D800002B01D0032309E03B68084A1A6003E095
:1026E800012387F8D73000BF97F8D7301846D83776
:1026F800BD4680BDEC050020A9010020580500203A
:10270800AA010020AB010020AC010020AD0100208F
:10271800AE010020B0010020E0010020E40100200B
:10272800E8010020180200200C0400204C020020C0
:1027380050020020540200206002002080B483B0C0
:1027480000AF78607B68002B01D0022300E00023F3
:1027580018460C37BD465DF8047B704780B400AF5F
:1027680000231846BD465DF8047B704780B483B0EB
:1027780000AF786039607B68002B01D0022300E04D
:10278800012318460C37BD465DF8047B704780B4BA
:1027980083B000AF786039607B68002B01D00223DA
:1027A80000E0012318460C37BD465DF8047B7047EE
:1027B80080B582B000AF786039603968786800F019
:1027C80033FD0346064A1360054B1B68B3F1FF3F10
:1027D80001D1002300E0012318460837BD4680BD1B
:1027E800F005002080B500AF064B1B68184600F0C6
:1027F8007DFD0346002B01D1012300E0002318468C
:1028080080BD00BFF005002080B588B000AF7860BB
:102818000B46FB7013463B80FB78FB733B88FB61E0
:10282800FB690533BB61FB69BB607B687B617B69C6
:10283800002B01D1002315E0FA7B7B691A707B69B4
:102848000133BA681A60094B1B68BA697969184676
:1028580000F08EF838613B69B3F1FF3F01D10023E6
:1028680000E0012318462037BD4680BDF005002052
:1028780080B586B000AF7860396000233B61194BA2
:102888001B6807F10F010122184600F0A3F87861D0
:102898007B69B3F1FF3F01D100231EE0114B1B6898
:1028A80007F110010422184600F094F878617B695A
:1028B800B3F1FF3F01D100230FE00A4B1B683A69CF
:1028C8000949184600F086F878617B68064A1A605C
:1028D8003B699AB23B681A80012318461837BD46EF
:1028E80080BD00BFF0050020F405002080B400AFD3
:1028F80001231846BD465DF8047B704780B400AFDD
:1029080000BFBD465DF8047B7047000080B483B00B
:1029180000AF78600B467B807B68044A1A6001230D
:1029280018460C37BD465DF8047B70477C060020CE
:1029380080B483B000AF7860034B18460C37BD46AF
:102948005DF8047B704700BF8106002080B582B027
:1029580000AF78600B467B807B881A460121786837
:10296800FFF752FF0346DBB218460837BD4680BD65
:1029780080B58AB000AFF860B9607A6000237B62E6
:10298800BB683B624FF0FF33FB611BE07A68FB6971
:10299800934228BF1346BB6107F11403BA69396A29
:1029A800F86800F063FC78627B6AB3F1FF3F01D1FD
:1029B8007B6A0BE07B697A68D31A7B607B693A6A29
:1029C80013443B627B68002BE0D17B6A18462837AA
:1029D800BD4680BD80B58AB000AFF860B9607A6046
:1029E80000237B62BB683B624FF0FF33FB611BE057
:1029F8007A68FB69934228BF1346BB6107F1140349
:102A0800BA69396AF86800F04DFC78627B6AB3F1FC
:102A1800FF3F01D17B6A0BE07B697A68D31A7B6040
:102A28007B693A6A13443B627B68002BE0D17B6A7E
:102A380018462837BD4680BD80B500AF00F008F8BD
:102A48000346002B01D0012300E00023184680BD77
:102A580080B582B000AF0323BB7105F089FD00F09B
:102A68002EF80346FB71FB79002B01D0FB7922E09D
:102A780000F044F80346FB71FB79002B01D0FB7989
:102A880019E000F09FF80346FB71FB79002B01D099
:102A9800FB7910E0BB1D0121184600F097FA0346A8
:102AA800FB71FB79002B01D0FB7904E000F0E4FA1C
:102AB8000346FB71FB7918460837BD4680BD80B5D3
:102AC80082B000AF0123BB71BB1D0121184600F085
:102AD8007DFA0346FB71FB79002B01D0FB7909E0F5
:102AE80000F0CAFA0346FB71FB79002B01D0FB7991
:102AF80000E0FB7918460837BD4680BD90B583B025
:102B080000AF0223BB71BB1D0121184600F05EFA1D
:102B18000346FB71FB79002B01D0FB7945E00023CC
:102B2800BB71BB1D0121184600F050FA0346FB712A
:102B3800FB79002B01D0FB7937E01E4B5B6BDAB2D7
:102B48001D4B1A7001211C4800F040FA0346FB7126
:102B5800FB79002B01D0FB7927E0174B1B78002B62
:102B680019D0144B5B6BD9B2144B5B6BDCB2144BB2
:102B78001A785B781B021343002063F30F00234687
:102B88000A46012100F0CEF90346FB71FB79002BC0
:102B980001D0FB7909E000F06FFA0346FB71FB797D
:102BA800002B01D0FB7900E0FB7918460C37BD46B5
:102BB80090BD00BF5C00002002070020D0930008F1
:102BC800EC0B002080B582B000AF0023FB7000231F
:102BD800BB70BB1C0121184600F0F8F90346FB70D6
:102BE800FB78002B01D0FB7835E000237B6025E0E3
:102BF8001B4B1B885A1D1B4B1B689A420FD900F0B0
:102C08003BFA0346FB70FB78002B01D0FB7822E0EF
:102C1800BB1C0121184600F0D9F90346FB707B68FC
:102C2800DBB2184600F020F80346FB70FB78002B57
:102C380001D0FB780FE07B6801337B607B68112B48
:102C4800D6DD00F019FA0346FB70FB78002B01D0A3
:102C5800FB7800E0FB7818460837BD4680BD00BF0A
:102C68000C0700200C00002080B584B000AF03469C
:102C7800FB71FB79112B00F2478101A252F823F076
:102C8800D12C0008ED2C0008112D00082D2D00086E
:102C9800FD2D0008752D0008992D0008B52D000898
:102CA800192E0008D92D0008512D0008592E0008AA
:102CB800352E0008752E0008912E0008AD2E00084C
:102CC800D12E0008ED2E0008934B1B68DAB2934B07
:102CD8001B68DBB292480021006800F023F9034624
:102CE800FB7314E18C4B5B68DAB28C4B5B68D9B22E
:102CF8008B4B5B88002063F30F000B46012100F02B
:102D080011F90346FB7302E1834B9B68DAB2834BEC
:102D18009B68DBB282480221406800F003F9034651
:102D2800FB73F4E07C4BDB68DAB27C4BDB68D9B22E
:102D38007B4BDB88002063F30F000B46032100F078
:102D4800F1F80346FB73E2E0734B1B6BDAB2734B8B
:102D58001B6BD9B2724B5B8B002063F30F000B46E1
:102D68000A2100F0DFF80346FB73D0E06A4B5B6989
:102D7800DAB26A4B5B69D9B2694B5B89002063F3AD
:102D88000F000B46052100F0CDF80346FB73BEE0AB
:102D9800614B9B69DAB2614B9B69DBB260480621E3
:102DA800C06800F0BFF80346FB73B0E05A4BDB691C
:102DB800DAB25A4BDB69D9B2594BDB89002063F38D
:102DC8000F000B46072100F0ADF80346FB739EE0A9
:102DD800514B5B6ADAB2514B5B6AD9B2504B5B8A92
:102DE800002063F30F000B46092100F09BF803460F
:102DF800FB738CE0484B1B69DAB2484B1B69DBB2AA
:102E080047480421806800F08DF80346FB737EE094
:102E1800414B1B6ADAB2414B1B6ADBB240480821BE
:102E2800006900F07FF80346FB7370E03A4B93F8B3
:102E380029203A4B93F82910394BDB8A002063F399
:102E48000F000B460C2100F06DF80346FB735EE0A3
:102E5800314BDB6ADAB2314BDB6ADBB230480B212B
:102E6800806900F05FF80346FB7350E02A4B93F843
:102E780028202A4B93F8283029480D21406900F072
:102E880051F80346FB7342E0234BDB6BDAB2234B6A
:102E9800DB6BDBB222480E21C06900F043F8034621
:102EA800FB7334E01C4B1B6CDAB21C4B1B6CD9B2A5
:102EB8001B4BDB8B002063F30F000B460F2100F048
:102EC80031F80346FB7322E0134B5B6CDAB2134B09
:102ED8005B6CDBB212481021006A00F023F803464D
:102EE800FB7314E00C4B9B6CDAB20C4B9B6CD9B2A5
:102EF8000B4B5B8C002063F30F000B46112100F095
:102F080011F80346FB7302E00223FB7300BFFB7B4F
:102F180018461037BD4680BD5C000020D0930008DD
:102F2800C40B002080B584B000AFB88008461146B5
:102F38001A460346FB700B46BB7013467B70FB1C9E
:102F48000121184600F042F80346FB73FB7B002B77
:102F580001D0FB7B36E03B79BB7307F10E030121FF
:102F6800184600F033F80346FB73FB7B002B01D0B7
:102F7800FB7B27E07B79BB7307F10E030121184621
:102F880000F024F80346FB73FB7B002B01D0FB7B8E
:102F980018E0BB1C0121184600F018F80346FB7323
:102FA800FB7B002B01D0FB7B0CE07B1C012118462E
:102FB80000F00CF80346FB73FB7B002B01D0FB7B76
:102FC80000E0FB7B18461037BD4680BD80B584B055
:102FD80000AF786039600023FB733B68BB60134B1C
:102FE8001B881A46BB681A44114B1B689A4203D9BE
:102FF8000223FB73FB7B15E00E4B1B68BA687968EC
:10300800184606F0C7F8BB689AB2084B1B881344E9
:103018009AB2064B1A80074B1A68BB681344054AD4
:103028001360FB7B18461037BD4680BD0C07002097
:103038000C0000200807002080B500AF20210B48B5
:1030480000F060F80346002B01D101230BE0074B89
:103058001B68184600F068F80346054A1360054BDC
:1030680000221A800023184680BD00BF04070020F4
:10307800080700200C07002080B500AF0C4B1B6828
:103088000C4A12881146184600F05CF803461A46A6
:1030980000239A4201D1022307E0FFF7CDFF034640
:1030A800002B01D0022300E00023184680BD00BF9A
:1030B800040700200C07002080B500AF00F012F8CC
:1030C80003461A4601239A4201D0012302E0FFF782
:1030D800B3FF0346184680BD80B500AF00F00AF87C
:1030E80000BF80BD80B400AF01231846BD465DF81F
:1030F800047B704780B400AF00BFBD465DF8047B19
:103108007047000080B483B000AF78600B467B80C6
:103118007B68044A1A60012318460C37BD465DF8DF
:10312800047B70471007002080B483B000AF78603C
:10313800034B18460C37BD465DF8047B704700BF4B
:103148001507002080B582B000AF78600B467B8001
:103158007B881A4603217868FFF756FB0346DBB2E3
:1031680018460837BD4680BD80B586B000AF00233D
:10317800FB7500233B6101237B600023FB60002378
:10318800BB60B968F868FEF759FB0346FB7597F909
:103198001730002B14BF01230023DBB23B6118E07A
:1031A800FEF700FA0346FB7597F91730002B10D08D
:1031B80097F91730B3F1FF3F09D1FEF761FB0346DA
:1031C800002B14BF01230023DBB23B6101E0012384
:1031D8003B617B68002B02D03B69002BE0D03B6948
:1031E800002B03D000BF7B68002BFCD197F9173068
:1031F80018461837BD4680BD80B582B000AF03F0D1
:1032080097FB01F02DFE01F0B5F901F001FF01F087
:1032180017FF01F07DFEFFF7A7FF78607B6818466F
:103228000837BD4680BD000080B584B000AF786027
:1032380039600023FB60094B094A1A60074B1B6879
:10324800084AD361074800F083FF0346064A136023
:10325800FB6818461037BD4680BD00BF3407002004
:1032680078070020100000203007002080B586B0C5
:1032780002AFF860B9607A603B603B6800221A6070
:10328800074B18683B6800934FF47A737A68B968FB
:1032980001F058F8002318461037BD4680BD00BF1E
:1032A8003007002080B586B000AFF860B9607A605A
:1032B8003B603B6800221A600B4B1B680022796850
:1032C800184600F0E1FC78617B69002B06D0064BBC
:1032D80018683B687A69B96801F006F8002318464F
:1032E8001837BD4680BD00BF3007002080B582B0CA
:1032F80000AF7860044B1B68184601F0E5F800231E
:1033080018460837BD4680BD3007002080B400AF9E
:10331800044BDB681B0A03F007031846BD465DF83B
:10332800047B704700ED00E080B483B000AF034633
:10333800FB7197F90730002B0BDBFB7903F01F02B9
:10334800074997F907305B09012000FA02F241F8B2
:10335800232000BF0C37BD465DF8047B704700BFD3
:1033680000E100E080B483B000AF03463960FB7130
:1033780097F90730002B0ADB3B68DAB20C4997F95A
:1033880007301201D2B20B4483F800230AE03B68ED
:10339800DAB20849FB7903F00F03043B1201D2B2F9
:1033A8000B441A7600BF0C37BD465DF8047B7047A6
:1033B80000E100E000ED00E080B489B000AFF86003
:1033C800B9607A60FB6803F00703FB61FB69C3F12E
:1033D8000703042B28BF0423BB61FB690433062BB6
:1033E80002D9FB69033B00E000237B614FF0FF3209
:1033F800BB6902FA03F3DA43BB681A407B699A4057
:103408004FF0FF317B6901FA03F3D9437B680B4026
:10341800134318462437BD465DF8047B7047000007
:1034280080B483B000AF786039600C4A3B681344BD
:103438001B781A467B6813441B6808493A680A4493
:10344800127811467A680A4443F00103136000BFFA
:103458000C37BD465DF8047B704700BFF491000847
:1034680080B483B000AF786039600C4A3B6813447D
:103478001B781A467B6813441B6808493A680A4453
:10348800127811467A680A4423F00103136000BFDA
:103498000C37BD465DF8047B704700BFF491000807
:1034A80080B483B000AF78603960084A3B68134441
:1034B8001B781A467B6813441B6803F490731846FC
:1034C8000C37BD465DF8047B704700BFF4910008D7
:1034D80080B485B000AFF860B9607A600D4ABB6807
:1034E80013441B781A46FB6813445B681B0C1B04C7
:1034F8000849BA680A4412781146FA680A4411461B
:103508007A6813434B6000BF1437BD465DF8047BEF
:10351800704700BFF491000880B483B000AF7860B2
:103528003960074A3B6813441B781A467B68134482
:103538005B689BB218460C37BD465DF8047B704744
:10354800F491000880B485B000AFF860B9607A6083
:103558003B60BB69402B14D1174ABB6813441B78E6
:103568001A46FB6813441A467B68D360124ABB6844
:1035780013441B781A46FB6813441A463B68936049
:1035880013E00D4ABB6813441B781A46FB681344C2
:103598001A467B689360084ABB6813441B781A462E
:1035A800FB6813441A463B68D36000BF1437BD4616
:1035B8005DF8047B704700BFF491000880B483B0C5
:1035C80000AF78607B685B6803F40063B3F5006F55
:1035D8000CBF01230023DBB218460C37BD465DF84B
:1035E800047B704780B483B000AF78607B684FF489
:1035F8000062DA6000BF0C37BD465DF8047B704797
:1036080080B483B000AF786039600C4A3B681344DB
:103618001B781A467B6813441B6808493A680A44B1
:10362800127811467A680A4443F01003136000BF09
:103638000C37BD465DF8047B704700BFF491000865
:1036480080B483B000AF786039600C4A3B6813449B
:103658001B781A467B6813441B6808493A680A4471
:10366800127811467A680A4423F01003136000BFE9
:103678000C37BD465DF8047B704700BFF491000825
:1036880080B483B000AF786039600A4A3B6813445D
:103698001B781A467B6813441B6803F01003102B31
:1036A8000CBF01230023DBB218460C37BD465DF87A
:1036B800047B7047F491000880B483B000AF786051
:1036C8007B68DB6843F400527B68DA6000BF0C3724
:1036D800BD465DF8047B704780B483B000AF786066
:1036E8007B68DB6823F400527B68DA6000BF0C3724
:1036F800BD465DF8047B704780B483B000AF786046
:103708007B681B6803F00103012B0CBF0123002316
:10371800DBB218460C37BD465DF8047B704780B4B1
:1037280083B000AF78607B681B6803F00203022B4C
:103738000CBF01230023DBB218460C37BD465DF8E9
:10374800047B704780B483B000AF78607B681B68E7
:1037580003F00403042B0CBF01230023DBB218463B
:103768000C37BD465DF8047B704780B483B000AF6A
:1037780078607B681B6803F00803082B0CBF0123E3
:103788000023DBB218460C37BD465DF8047B704752
:1037980080B483B000AF78607B681B6803F0400397
:1037A800402B0CBF01230023DBB218460C37BD4663
:1037B8005DF8047B704780B483B000AF78607B68A5
:1037C8001B6803F08003802B0CBF01230023DBB2AE
:1037D80018460C37BD465DF8047B704780B485B049
:1037E80000AF78607B681B68FB60FB687B685B6880
:1037F800FB60FB6800BF1437BD465DF8047B70476B
:1038080080B485B000AF78607B681B68FB60FB689C
:103818007B685B68FB60FB6800BF1437BD465DF8DA
:10382800047B704780B489B000AF78607B680C3344
:10383800FB60FB6853E8003FBB60BB6843F02003B4
:10384800FB617B680C33FA69BA617B617969BA6993
:1038580041E800233B613B69002BE7D100BF00BF73
:103868002437BD465DF8047B704780B489B000AF4B
:1038780078607B680C33FB60FB6853E8003FBB60F3
:10388800BB6843F48073FB617B680C33FA69BA61E7
:103898007B617969BA6941E800233B613B69002B88
:1038A800E7D100BF00BF2437BD465DF8047B7047F1
:1038B80080B489B000AF78607B681433FB60FB6824
:1038C80053E8003FBB60BB6843F00103FB617B68C2
:1038D8001433FA69BA617B617969BA6941E80023EE
:1038E8003B613B69002BE7D100BF00BF2437BD46D1
:1038F8005DF8047B704780B489B000AF78607B685E
:103908000C33FB60FB6853E8003FBB60BB6823F0E7
:103918001003FB617B680C33FA69BA617B617969D2
:10392800BA6941E800233B613B69002BE7D100BF3E
:1039380000BF2437BD465DF8047B704780B489B06A
:1039480000AF78607B680C33FB60FB6853E8003F8E
:10395800BB60BB6823F02003FB617B680C33FA690A
:10396800BA617B617969BA6941E800233B613B69C7
:10397800002BE7D100BF00BF2437BD465DF8047BAC
:10398800704780B489B000AF78607B680C33FB6007
:10399800FB6853E8003FBB60BB6823F08003FB6112
:1039A8007B680C33FA69BA617B617969BA6941E865
:1039B80000233B613B69002BE7D100BF00BF2437E0
:1039C800BD465DF8047B704780B489B000AF78606D
:1039D8007B680C33FB60FB6853E8003FBB60BB6847
:1039E80023F48073FB617B680C33FA69BA617B61ED
:1039F8007969BA6941E800233B613B69002BE7D14B
:103A080000BF00BF2437BD465DF8047B704780B413
:103A180089B000AF78607B681433FB60FB6853E8BB
:103A2800003FBB60BB6823F00103FB617B68143374
:103A3800FA69BA617B617969BA6941E800233B6137
:103A48003B69002BE7D100BF00BF2437BD465DF8B6
:103A5800047B704780B489B000AF78607B6814330A
:103A6800FB60FB6853E8003FBB60BB6843F0400362
:103A7800FB617B681433FA69BA617B617969BA6959
:103A880041E800233B613B69002BE7D100BF00BF41
:103A98002437BD465DF8047B704780B489B000AF19
:103AA80078607B681433FB60FB6853E8003FBB60B9
:103AB800BB6823F04003FB617B681433FA69BA6181
:103AC8007B617969BA6941E800233B613B69002B56
:103AD800E7D100BF00BF2437BD465DF8047B7047BF
:103AE80080B489B000AF78607B681433FB60FB68F2
:103AF80053E8003FBB60BB6843F08003FB617B6811
:103B08001433FA69BA617B617969BA6941E80023BB
:103B18003B613B69002BE7D100BF00BF2437BD469E
:103B28005DF8047B704780B489B000AF78607B682B
:103B38001433FB60FB6853E8003FBB60BB6823F0AD
:103B48008003FB617B681433FA69BA617B61796928
:103B5800BA6941E800233B613B69002BE7D100BF0C
:103B680000BF2437BD465DF8047B704780B483B03E
:103B780000AF78607B68043318460C37BD465DF8A3
:103B8800047B704780B483B000AF78607B685B6863
:103B9800DBB218460C37BD465DF8047B704780B42D
:103BA80083B000AF78600B46FB70FA787B685A6088
:103BB80000BF0C37BD465DF8047B704780B586B002
:103BC80000AF78607B6893F83C30FB737B689B7D23
:103BD80003F00403002B03D07B681B6B7B610DE0B3
:103BE8007B685A687B681B7C19461046FFF794FC73
:103BF800B8607B685A6ABB68D31A7B617B685B6A6A
:103C08007A699A4201D100237B61FB7B012B14D195
:103C18007B689B7D03F01003002B0ED07B68DB6A6A
:103C28007A699A4209D97B681B8B43F020039AB2C0
:103C38007B681A837B687A69DA627B68DB6A7A69EF
:103C48009A4205D97B68DB6A7A69D31A3B6116E028
:103C58007B68DB6A7A699A4208D27B685A6A7B6811
:103C6800DB6AD31A7A6913443B6108E0FB7B012BBA
:103C780003D17B685B6A3B6101E000233B613B69E0
:103C880018461837BD4680BD80B588B000AFF860CB
:103C9800B9607A600023BB61F868FFF78FFF0246BE
:103CA800BB68934215D97B68002B12D002F076FED0
:103CB800786100BFF868FFF781FF0246BB6893424E
:103CC80007D90121786900F07DFC02467B689342A0
:103CD800F0D2F868FFF772FFB861BA69BB689A4218
:103CE80002D2BB69FB6101E0BB68FB61FB69184656
:103CF8002037BD4680BD80B586B000AFF860B9609A
:103D08007A603B603B6800221A600023FB82FB68F4
:103D1800DA6A7B681A44FB685B6A9A4227D9FB68AF
:103D28005A6AFB68DB6AD31A3B61FB68DA69FB688D
:103D3800DB6A13443A691946B86805F02BFAFB6840
:103D4800DA6A7B681A44FB685B6AD21AFB68DA6233
:103D58003B69BA68D018FB68D969FB68DB6A1A4600
:103D680005F018FAFB68002283F83C200FE0FB6896
:103D7800DA69FB68DB6A13447A681946B86805F0A3
:103D880009FAFB68DA6A7B681A44FB68DA62FB683E
:103D9800DA6AFB685B6A9A4206D1FB680022DA623B
:103DA800FB68002283F83C20F86800F06DF90346B0
:103DB800FB823B687A681A60FB8A18461837BD464A
:103DC80080BD80B584B000AFF860B9607A60FB68E8
:103DD8005A68FB681B7C19461046FFF751FC0346DE
:103DE800002B54D0FB685A68BB68104698470346B6
:103DF800002B4CD0FB685A687B6810469847FB68D4
:103E080093F83C30012B09D1FB681B8B43F020034E
:103E18009AB2FB681A83FB680022DA62FB68012207
:103E280083F83C20FB685A68FB681B7C19461046DF
:103E3800FFF736FB0346002B29D1FB681B7D002BBF
:103E48000BD0FB681B7D012B21D1FB681B8B002B42
:103E580003D0FB681B8B202B19D1FB685A68FB68C1
:103E68001B7C19461046FFF7FBFAFB685868FB688D
:103E78001B7C1946FB685B6A1A46FFF729FBFB683F
:103E88005A68FB681B7C19461046FFF7C9FA00BF41
:103E98001037BD4680BD80B584B000AF7860002380
:103EA800FB737B681B681846FFF75FFC0346012B12
:103EB80008D17B681B8B43F002039AB27B681A8394
:103EC8000123FB737B681B681846FFF728FC034631
:103ED800012B08D17B681B8B43F008039AB27B68DF
:103EE8001A830123FB737B681B681846FFF72AFCBB
:103EF8000346012B08D17B681B8B43F010039AB251
:103F08007B681A830123FB737B681B681846FFF7DD
:103F1800F3FB0346012B08D17B681B8B43F004039A
:103F28009AB27B681A830123FB73FB7B012B1ED19A
:103F38007B681B7D012B15D17B689B7D03F00403F7
:103F4800002B0AD07B681B681846FFF7F7FC7B68D4
:103F58001B681846FFF7CFFC04E07B681B6818460F
:103F6800FFF79BFD7B681B681846FFF737FC00BF0F
:103F78001037BD4680BD000080B500AF0248FFF78E
:103F88008AFF00BF80BD00BF3807002080B500AFA2
:103F9800034A04490448FFF714FF00BF80BD00BF6F
:103FA800ED350008C535000838070020B0B584B0E5
:103FB80002AF78607B685C687B681B7C1D467B6809
:103FC8001B681846FFF7D2FD02467B68DB69194675
:103FD800002300930B4629462046FFF7B3FA7B6877
:103FE80058687B681B7C19467B685B6A1A46FFF732
:103FF8006FFA7B685A687B681B7C19461046FFF786
:10400800FFFA7B681B681846FFF724FD7B681B686E
:104018005A697B681B6842F040025A617B685A689B
:104028007B681B7C19461046FFF7FAF900BF083772
:10403800BD46B0BDF0B585B002AF78607B689C68BE
:104048007B685B7C1D467B681B6A1E467B681B6819
:104058001846FFF78BFD0346402200923246294658
:104068002046FFF76FFA7B689A687B685B7C194685
:104078001046FFF7C5FA7B681B681846FFF730FD46
:1040880000BF0C37BD46F0BD80B584B000AF786086
:104098000023FB817B681B8B03F02003002B0AD0D5
:1040A800FB8943F02003FB817B681B8B23F02003F3
:1040B8009AB27B681A837B681B7D002B08D17B68CA
:1040C8001A8BFB891343FB817B6800221A833AE031
:1040D8007B681B7D012B36D17868FFF76FFD03469F
:1040E800002B30D17B681B8B002B2CD07B681A8B64
:1040F800FB891343FB817B6800221A837B689B7DC5
:1041080003F00403002B0FD07B681B681846FFF7E9
:1041180039FD7B681B681846FFF772FB7B681B68D4
:104128001846FFF77FFB0EE07B681B681846FFF711
:1041380029FD7B681B681846FFF762FB7B681B68D4
:104148001846FFF787FCFB8918461037BD4680BD27
:1041580080B584B000AF78607B681B681A46604BF6
:104168009A4202D15F4BFB6002E00023FB6000BF74
:10417800FB68002B00F0AF80FB685A7D7B685B7D95
:104188001343DAB2FB685A75FB689A7D7B689B7D9E
:104198001343DAB2FB689A757B681A68FB681A6081
:1041A800FB6800221A83FB6800225A83FB681B689D
:1041B8001846FFF791FA7B685B7D03F00103002B3B
:1041C8003CD07B685A6AFB685A627B68DA69FB688C
:1041D800DA61FB680022DA62FB6800221A637B68F6
:1041E8001A7DFB681A75FB68002283F83C20FB687F
:1041F8009B7D03F01003002B15D07B685A68FB6881
:104208005A607B681A7CFB681A74F868FFF7CEFE60
:10421800FB681B681846FFF74BFBFB681B681846D2
:10422800FFF723FB0AE0FB689B7D03F00403002BE8
:1042380004D0FB681B681846FFF7F4FA7B685B7DBF
:1042480003F00203002B27D07B689A6AFB689A6206
:104258007B681A6AFB681A62FB6800225A63FB686B
:1042680000229A63FB6800229A74FB680022DA74C1
:10427800FB689B7D03F02003002B0DD07B689A68B8
:10428800FB689A607B685A7CFB685A74FB6800225A
:10429800DA60F868FFF7CEFEFB681B681846FFF780
:1042A8000BFA7B681B681A460D4B9A4210D1FFF730
:1042B8002DF80346002200211846FFF77DF8034633
:1042C80019462620FFF74EF82620FFF72DF802E0C2
:1042D8000023FB6000BFFB6818461037BD4680BD51
:1042E800004400403807002080B586B000AFF86071
:1042F800B9607A603B603B6800221A60FB685B8BA0
:1043080003F48073002B02D04FF4807316E0FB682F
:104318005B8B43F480739AB2FB685A833B687A6874
:10432800B968F868FFF7E7FC0346FB82FB685B8B1C
:1043380023F480739AB2FB685A83FB8A18461837AD
:10434800BD4680BD80B588B000AFF860B9607A60BE
:104358003B60BB6A00221A60BB68BB61FB685B8B71
:1043680003F08003002B01D08023A9E0FB685B8B5E
:1043780043F080039AB2FB685A830023FB61002351
:104388007B610023FB614AE0FB681B681846FFF766
:1043980012FA0346002B36D13B68002B27D002F0D7
:1043A800FDFA786100BFFB681B681846FFF703FA3F
:1043B8000346002B07D10121786900F003F9024672
:1043C8003B689342EFD20121786900F0FBF802467E
:1043D8003B68934217D2BB6AFA691A60FB685B8B29
:1043E80023F080039AB2FB685A83402368E0BB6AD3
:1043F800FA691A60FB685B8B23F080039AB2FB684A
:104408005A8340235CE0FB681868BA69FB69134467
:104418001B781946FFF7C3FBFB690133FB61FA6997
:104428007B689A42B0D3FB681B681846FFF7B0F95F
:104438000346002B39D13B68002B29D002F0AEFA95
:10444800786114E00121786900F0BCF802463B6805
:1044580093420CD27B685A1EBB6A1A60FB685B8B5E
:1044680023F080039AB2FB685A83402328E0FB6854
:104478001B681846FFF78CF90346002B15D101215C
:10448800786900F09FF802463B689342DAD20CE064
:104498007B685A1EBB6A1A60FB685B8B23F080033B
:1044A8009AB2FB685A8340230AE0BB6A7A681A60AA
:1044B800FB685B8B23F080039AB2FB685A83002366
:1044C80018462037BD4680BD80B582B000AF786001
:1044D8007B681B681846FFF7FFF87B689B7D03F035
:1044E8002003002B0DD07B689A687B685B7C19469B
:1044F8001046FFF7A5F87B681B681846FFF713FB03
:104508000AE07B689B7D03F00803002B04D07B68DE
:104518001B681846FFF735FA7B689B7D03F010038C
:10452800002B17D07B681B681846FFF770FA7B686A
:104538001B681846FFF748FA7B685A687B681B7C3B
:1045480019461046FFF77CF87B681B681846FFF78A
:10455800A4FA0AE07B689B7D03F00403002B04D0D7
:104568007B681B681846FFF7E9F900BF0837BD46A6
:1045780080BD000080B400AF00BFBD465DF8047B7D
:10458800704700BF10B50E4C82B0636A019302F009
:1045980005FA0090626A019B9A4207D3009B019832
:1045A8004FF47A7202FB030002B010BD02F0F6F974
:1045B800636A4FF47A7202FB003002B010BD00BF8C
:1045C800000C004010B5044641B9FFF7DBFF034675
:1045D800181BA34238BF00F1FF3010BD02F0DEF90E
:1045E8000346181BA34238BF00F1FF3010BD00BFBF
:1045F80080B400AF044BDB681B0A03F007031846BE
:10460800BD465DF8047B704700ED00E080B483B0E0
:1046180000AF0346FB7197F90730002B0BDBFB79E2
:1046280003F01F02074997F907305B09012000FAD8
:1046380002F241F8232000BF0C37BD465DF8047B29
:10464800704700BF00E100E080B483B000AF0346CC
:104658003960FB7197F90730002B0ADB3B68DAB247
:104668000C4997F907301201D2B20B4483F80023A2
:104678000AE03B68DAB20849FB7903F00F03043B10
:104688001201D2B20B441A7600BF0C37BD465DF852
:10469800047B704700E100E000ED00E080B489B0E1
:1046A80000AFF860B9607A60FB6803F00703FB614C
:1046B800FB69C3F10703042B28BF0423BB61FB6913
:1046C8000433062B02D9FB69033B00E000237B611E
:1046D8004FF0FF32BB6902FA03F3DA43BB681A40B2
:1046E8007B699A404FF0FF317B6901FA03F3D943A4
:1046F8007B680B40134318462437BD465DF8047B9E
:104708007047000080B485B000AFF860B9607A6087
:104718000D4ABB6813441B781A46FB6813441B6890
:1047280023F0C0020849BB680B441B781946FB6894
:104738000B4419467B6813430B6000BF1437BD4612
:104748005DF8047B704700BFFC91000880B485B019
:1047580000AFF860B9607A600D4ABB6813441B78F3
:104768001A46FB6813441B6823F490720849BB6817
:104778000B441B781946FB680B4419467B681343A6
:104788000B6000BF1437BD465DF8047B704700BF5F
:10479800FC91000880B485B000AFF860B9607A6019
:1047A8000D4ABB6813441B781A46FB6813441B6800
:1047B80023F400720849BB680B441B781946FB6850
:1047C8000B4419467B6813430B6000BF1437BD4682
:1047D8005DF8047B704700BFFC91000880B485B089
:1047E80000AFF860B9607A600D4ABB6813441B7863
:1047F8001A46FB6813441B6823F480620849BB68A7
:104808000B441B781946FB680B4419467B68134315
:104818000B6000BF1437BD465DF8047B704700BFCE
:10482800FC91000880B485B000AFF860B9607A6088
:104838000D4ABB6813441B781A46FB6813441B686F
:1048480023F4C0520849BB680B441B781946FB681F
:104858000B4419467B6813430B6000BF1437BD46F1
:104868005DF8047B704700BFFC91000880B485B0F8
:1048780000AFF860B9607A600D4ABB6813441B78D2
:104888001A46FB6813441B6823F4C0420849BB68F6
:104898000B441B781946FB680B4419467B68134385
:1048A8000B6000BF1437BD465DF8047B704700BF3E
:1048B800FC91000880B485B000AFF860B9607A60F8
:1048C8000D4ABB6813441B781A46FB6813441B68DF
:1048D80023F440320849BB680B441B781946FB682F
:1048E8000B4419467B6813430B6000BF1437BD4661
:1048F8005DF8047B704700BFFC91000880B485B068
:1049080000AFF860B9607A600D4ABB6813441B7841
:104918001A46FB6813441B6823F060620849BB68A9
:104928000B441B781946FB680B4419467B681343F4
:104938000B6000BF1437BD465DF8047B704700BFAD
:10494800FC91000880B483B000AF786039600C4AED
:104958003B6813441B781A467B6813445B69084913
:104968003A680A44127811467A680A4423F0040324
:10497800536100BF0C37BD465DF8047B704700BF2C
:10498800FC91000880B400AF054B1B68044A43F053
:104998000103136000BFBD465DF8047B704700BF8C
:1049A8000038024080B400AF064B1B6803F00203D6
:1049B800022B0CBF01230023DBB21846BD465DF86D
:1049C800047B70470038024080B483B000AF786041
:1049D800074B1B6823F0F8027B68DB00044913438C
:1049E8000B6000BF0C37BD465DF8047B704700BF05
:1049F8000038024080B483B000AF7860064B9B68F3
:104A080023F0030204497B6813438B6000BF0C3713
:104A1800BD465DF8047B70470038024080B400AFA3
:104A2800044B9B6803F00C031846BD465DF8047BF5
:104A3800704700BF0038024080B483B000AF786090
:104A4800064B9B6823F0F00204497B6813438B6094
:104A580000BF0C37BD465DF8047B70470038024044
:104A680080B483B000AF7860064B9B6823F4E052B3
:104A780004497B6813438B6000BF0C37BD465DF863
:104A8800047B70470038024080B483B000AF786080
:104A9800064B9B6823F4604204497B6813438B6090
:104AA80000BF0C37BD465DF8047B704700380240F4
:104AB80080B483B000AF7860074BD3F88C3023F014
:104AC800807205497B681343C1F88C3000BF0C37EE
:104AD800BD465DF8047B70470038024080B400AFE3
:104AE800054B1B68044A43F08073136000BFBD4642
:104AF8005DF8047B704700BF0038024080B400AF07
:104B0800074B1B6803F00073B3F1007F0CBF012350
:104B18000023DBB21846BD465DF8047B704700BF32
:104B28000038024080B485B000AFF860B9607A60A0
:104B38003B60114B5A68114B1340F968BA6811432E
:104B48007A6892010A430C4913434B600A4B5B682D
:104B580023F4403208493B6813434B60064B5B68BB
:104B680023F0E04204493B6813434B6000BF14370D
:104B7800BD465DF8047B7047003802400080BFFFE7
:104B880080B485B000AF7860084B1A6B07497B6822
:104B980013430B63054B1A6B7B681340FB60FB6880
:104BA80000BF1437BD465DF8047B704700380240EB
:104BB80080B485B000AF7860084B1A6C07497B68F1
:104BC80013430B64054B1A6C7B681340FB60FB684E
:104BD80000BF1437BD465DF8047B704700380240BB
:104BE80080B487B000AF78603960174A3B68DBB2A1
:104BF800023352F823203B681B0CDB4302EA030113
:104C08003B681B0C3B613B6993FAA3F3FB60FB68B1
:104C18007B617B69002B01D1202303E07B69B3FA18
:104C280083F3DBB21A467B6803FA02F206483B6854
:104C3800DBB20A43023340F8232000BF1C37BD46CD
:104C48005DF8047B704700BF0038014080B483B032
:104C580000AF7860064B1B6823F00F0204497B689D
:104C680013430B6000BF0C37BD465DF8047B7047EB
:104C7800003C024080B400AF044B1B6803F00F03F4
:104C88001846BD465DF8047B704700BF003C0240F3
:104C980080B400AF054B1B68044A23F480331360CB
:104CA80000BFBD465DF8047B704700BF0070004040
:104CB80080B483B000AF7860064B1B6823F4404291
:104CC80004497B6813430B6000BF0C37BD465DF891
:104CD800047B70470070004080B400AF074B5B68EE
:104CE80003F48043B3F5804F0CBF01230023DBB2EC
:104CF8001846BD465DF8047B704700BF0070004051
:104D080080B483B000AF78607B68DB6843F40052FE
:104D18007B68DA6000BF0C37BD465DF8047B7047DE
:104D280080B483B000AF78607B681B6923F490423D
:104D38007B681A617B685B6923F02A027B685A6189
:104D480000BF0C37BD465DF8047B704780B48BB05C
:104D580000AFF860B9607A60FB681A68BB687B616D
:104D68007B6993FAA3F33B613B69BB61BB69002B89
:104D780001D1202303E0BB69B3FA83F3DBB25B0004
:104D8800032101FA03F3DB431A40BB683B623B6A29
:104D980093FAA3F3FB61FB697B627B6A002B01D169
:104DA800202303E07B6AB3FA83F3DBB25B00796804
:104DB80001FA03F31A43FB681A6000BF2C37BD469B
:104DC8005DF8047B704780B48BB000AFF860B960C1
:104DD8007A60FB68DA68BB687B617B6993FAA3F346
:104DE8003B613B69BB61BB69002B01D1202303E018
:104DF800BB69B3FA83F3DBB25B00032101FA03F367
:104E0800DB431A40BB683B623B6A93FAA3F3FB613E
:104E1800FB697B627B6A002B01D1202303E07B6A5C
:104E2800B3FA83F3DBB25B00796801FA03F31A4340
:104E3800FB68DA6000BF2C37BD465DF8047B70471D
:104E480080B483B000AF786039603B681A047B682F
:104E58009A6100BF0C37BD465DF8047B70470000BF
:104E680080B500AF0220FFF7F1FE00BFFFF702FF99
:104E78000346022BFAD14FF48040FFF719FFFFF7E2
:104E880007FF1020FFF7A0FDFFF77CFD00BFFFF72D
:104E980089FD0346012BFAD14FF480334FF4A872F1
:104EA80010210020FFF73EFEFFF718FE00BFFFF7B6
:104EB80025FE0346012BFAD100BFFFF70DFF03467D
:104EC800002BFAD00020FFF7B7FD4FF48050FFF712
:104ED800C7FD0020FFF7D8FD0220FFF78BFD00BFBC
:104EE800FFF79CFD0346082BFAD1084801F0C4FAE5
:104EF800002000F077F90346002B01D000F00AF9F2
:104F08000020FFF7D5FD00BF80BD00BF00BD010533
:104F180080B58EB000AF07F11C0300221A605A60FA
:104F28009A60DA601A615A619A613B1D00221A6020
:104F38005A609A60DA601A615A614FF40030FFF7DC
:104F480037FE0120FFF71CFE0C237B600223BB60A9
:104F58000323FB6000233B6100237B610723BB61C4
:104F68003B1D1946274800F0A6FD4FF000620521B9
:104F78002548FFF7C3FC002205212348FFF7C2FBA1
:104F8800002205212048FFF795FC002205211E4834
:104F9800FFF7DCFB002205211B48FFF7FBFB4FF462
:104FA800806205211848FFF719FC002205211648E0
:104FB800FFF738FC002205211348FFF757FC0521AD
:104FC8001148FFF7BFFC4FF46123FB6100233B62EC
:104FD80000237B620023BB620C23FB6200233B633C
:104FE80000237B6307F11C031946084801F04CF8BD
:104FF8000648FFF795FE0548FFF782FE00BF3837E1
:10500800BD4680BD000002400060024000440040F0
:1050180080B500AF4FF40010FFF7B2FDFFF7E8FAD4
:105028000346002200211846FFF738FB03461946BD
:105038001020FFF709FB1020FFF7E8FA00BF80BD3A
:1050480080B588B000AF07F1180300221A605A60D3
:105058003B4600221A605A609A60DA601A615A6107
:105068000420FFF78DFD8020FFF78AFD0120FFF760
:1050780087FD0220FFF784FD20211A48FFF7E0FE94
:1050880019490220FFF7ACFD4FF40053BB6101231F
:105098003B7700237B770223BB7707F11803184679
:1050A80001F092FA00224FF400511048FFF78BFEEE
:1050B80000224FF400510D48FFF748FE20233B60C3
:1050C80001237B600023BB600023FB6000233B615E
:1050D8003B461946034800F0EEFC00BF2037BD46AA
:1050E80080BD00BF000002400300F000000802403D
:1050F80080B582B000AF78607B681B68044A934231
:1051080001D101F037FC00BF0837BD4680BD00BFA4
:10511800000C004080B400AF72B600BF00BFFDE7CE
:1051280080B400AF00BFFDE780B400AF00BFFDE76B
:1051380080B400AF00BFFDE780B400AF00BFFDE75B
:1051480080B400AF00BFFDE780B400AF00BFBD462C
:105158005DF8047B704780B400AF00BFBD465DF8C2
:10516800047B704780B400AF00BFBD465DF8047B88
:10517800704780B400AF00BFBD465DF8047B704740
:1051880080B500AF024800F073F900BF80BD00BFD2
:10519800780B002080B582B000AF00237B60104BF5
:1051A8005B6C0F4A43F4804353640D4B5B6C03F410
:1051B80080437B607B6800233B60094B1B6C084A7B
:1051C80043F080531364064B1B6C03F080533B6021
:1051D8003B68072001F077FB00BF0837BD4680BD5C
:1051E8000038024080B58EB000AF78600023FB62C3
:1051F8000023BB620023FB60334B1B6C324A43F035
:1052080008031364304B1B6C03F00803FB60FB6856
:1052180007F1100207F114031146184601F074FA59
:105228003B6AFB62FB6A002B03D101F059FA7863F1
:1052380004E001F055FA03465B007B637B6B234A6D
:10524800A2FB03239B0C013BBB62214B214A1A6042
:105258001F4B40F2E732DA601D4ABB6A53601C4BB1
:1052680000221A611A4B00229A60194B00229A6197
:10527800174800F033F8034687F8333097F833308F
:10528800002B1BD1124800F083F8034687F833300F
:1052980097F83330002B11D1322001F03BFB7B68AB
:1052A8000F2B08D800227968322001F017FB0A4A30
:1052B8007B68136002E0012387F8333097F83330B6
:1052C80018463837BD4680BD0038024083DE1B4390
:1052D800780B0020000C00405000002080B582B000
:1052E80000AF78607B68002B01D1012341E07B6827
:1052F80093F83D30DBB2002B06D17B68002283F89F
:105308003C20786800F039F87B68022283F83D2059
:105318007B681A687B6804331946104600F0C0F9A8
:105328007B68012283F846207B68012283F83E20AF
:105338007B68012283F83F207B68012283F84020A4
:105348007B68012283F841207B68012283F8422090
:105358007B68012283F843207B68012283F844207C
:105368007B68012283F845207B68012283F83D2071
:10537800002318460837BD4680BD80B483B000AF0F
:10538800786000BF0C37BD465DF8047B70470000AD
:1053980080B485B000AF78607B6893F83D30DBB2AD
:1053A800012B01D001234EE07B68022283F83D20C7
:1053B8007B681B68DA687B681B6842F00102DA6068
:1053C8007B681B68234A934222D07B681B68B3F131
:1053D800804F1DD07B681B681F4A934218D07B689A
:1053E8001B681E4A934213D07B681B681C4A934271
:1053F8000ED07B681B681B4A934209D07B681B68E8
:10540800194A934204D07B681B68184A934211D109
:105418007B681B689B6803F00703FB60FB68062B2F
:1054280010D07B681B681A687B681B6842F0010211
:105438001A6007E07B681B681A687B681B6842F083
:1054480001021A60002318461437BD465DF8047B34
:10545800704700BF00000140000400400008004001
:10546800000C0040000401400040014000180040CA
:1054780080B584B000AF78607B681B68DB68FB6030
:105488007B681B681B69BB60BB6803F00203002BC9
:1054980020D0FB6803F00203002B1BD07B681B683D
:1054A8006FF002021A617B6801221A777B681B6819
:1054B8009B6903F00303002B03D0786800F0D2F84F
:1054C80005E0786800F0C4F8786800F0D5F87B68E3
:1054D80000221A77BB6803F00403002B20D0FB6876
:1054E80003F00403002B1BD07B681B686FF00402D9
:1054F8001A617B6802221A777B681B689B6903F430
:105508004073002B03D0786800F0ACF805E07868A9
:1055180000F09EF8786800F0AFF87B6800221A77F0
:10552800BB6803F00803002B20D0FB6803F00803D6
:10553800002B1BD07B681B686FF008021A617B6820
:1055480004221A777B681B68DB6903F00303002BCE
:1055580003D0786800F086F805E0786800F078F8FD
:10556800786800F089F87B6800221A77BB6803F036
:105578001003002B20D0FB6803F01003002B1BD076
:105588007B681B686FF010021A617B6808221A7723
:105598007B681B68DB6903F44073002B03D07868D1
:1055A80000F060F805E0786800F052F8786800F0DC
:1055B80063F87B6800221A77BB6803F00103002BAD
:1055C8000CD0FB6803F00103002B07D07B681B6835
:1055D8006FF001021A617868FFF78AFDBB6803F073
:1055E8008003002B0CD0FB6803F08003002B07D04E
:1055F8007B681B686FF080021A61786800F006F912
:10560800BB6803F04003002B0CD0FB6803F0400399
:10561800002B07D07B681B686FF040021A6178681E
:1056280000F034F8BB6803F02003002B0CD0FB68B3
:1056380003F02003002B07D07B681B686FF0200263
:105648001A61786800F0D8F800BF1037BD4680BDF1
:1056580080B483B000AF786000BF0C37BD465DF8FA
:10566800047B704780B483B000AF786000BF0C370C
:10567800BD465DF8047B704780B483B000AF7860A6
:1056880000BF0C37BD465DF8047B704780B483B01B
:1056980000AF786000BF0C37BD465DF8047B7047EB
:1056A80080B485B000AF786039607B681B68FB60A8
:1056B8007B68464A934213D07B68B3F1804F0FD082
:1056C8007B68434A93420BD07B68424A934207D097
:1056D8007B68414A934203D07B68404A934208D191
:1056E800FB6823F07003FB603B685B68FA68134350
:1056F800FB607B68354A93422BD07B68B3F1804FBF
:1057080027D07B68324A934223D07B68314A934240
:105718001FD07B68304A93421BD07B682F4A934244
:1057280017D07B682E4A934213D07B682D4A934248
:105738000FD07B682C4A93420BD07B682B4A93424C
:1057480007D07B682A4A934203D07B68294A934250
:1057580008D1FB6823F44073FB603B68DB68FA6898
:105768001343FB60FB6823F080023B685B691343CB
:10577800FB607B68FA681A603B689A687B68DA6243
:105788003B681A687B689A627B68104A934203D028
:105798007B68124A934203D13B681A697B681A6393
:1057A8007B6801225A617B681B6903F00103012BA6
:1057B80005D17B681B6923F001027B681A6100BF71
:1057C8001437BD465DF8047B704700BF00000140F8
:1057D8000004004000080040000C004000040140A4
:1057E80000400140004401400048014000180040CA
:1057F800001C00400020004080B483B000AF7860F7
:1058080000BF0C37BD465DF8047B704780B483B099
:1058180000AF786000BF0C37BD465DF8047B704769
:1058280080B48BB000AFF860B9607A60FB681A6822
:10583800BB687B617B6993FAA3F33B613B69BB61FE
:10584800BB69002B01D1202303E0BB69B3FA83F3C2
:10585800DBB25B00032101FA03F3DB431A40BB68A8
:105868003B623B6A93FAA3F3FB61FB697B627B6A49
:10587800002B01D1202303E07B6AB3FA83F3DBB268
:105888005B00796801FA03F31A43FB681A6000BFEA
:105898002C37BD465DF8047B704780B485B000AFF7
:1058A800F860B9607A60FB685A68BB68DB431A40E5
:1058B800BB68796801FB03F31A43FB685A6000BFB1
:1058C8001437BD465DF8047B704780B48BB000AFD9
:1058D800F860B9607A60FB689A68BB687B617B692D
:1058E80093FAA3F33B613B69BB61BB69002B01D110
:1058F800202303E0BB69B3FA83F3DBB25B00032127
:1059080001FA03F3DB431A40BB683B623B6A93FA34
:10591800A3F3FB61FB697B627B6A002B01D1202327
:1059280003E07B6AB3FA83F3DBB25B00796801FAC0
:1059380003F31A43FB689A6000BF2C37BD465DF835
:10594800047B704780B48BB000AFF860B9607A60B0
:10595800FB68DA68BB687B617B6993FAA3F33B61F8
:105968003B69BB61BB69002B01D1202303E0BB6904
:10597800B3FA83F3DBB25B00032101FA03F3DB43E1
:105988001A40BB683B623B6A93FAA3F3FB61FB696D
:105998007B627B6A002B01D1202303E07B6AB3FA88
:1059A80083F3DBB25B00796801FA03F31A43FB68FF
:1059B800DA6000BF2C37BD465DF8047B704780B4C1
:1059C8008BB000AFF860B9607A60FB681A6ABB6890
:1059D8007B617B6993FAA3F33B613B69BB61BB695C
:1059E800002B01D1202303E0BB69B3FA83F3DBB2B8
:1059F8009B000F2101FA03F3DB431A40BB683B62AB
:105A08003B6A93FAA3F3FB61FB697B627B6A002B19
:105A180001D1202303E07B6AB3FA83F3DBB29B0056
:105A2800796801FA03F31A43FB681A6200BF2C373E
:105A3800BD465DF8047B704780B48BB000AFF8605A
:105A4800B9607A60FB685A6ABB681B0A7B617B692C
:105A580093FAA3F33B613B69BB61BB69002B01D19E
:105A6800202303E0BB69B3FA83F3DBB29B000F2169
:105A780001FA03F3DB431A40BB681B0A3B623B6A2B
:105A880093FAA3F3FB61FB697B627B6A002B01D16C
:105A9800202303E07B6AB3FA83F3DBB29B007968C7
:105AA80001FA03F31A43FB685A6200BF2C37BD465C
:105AB8005DF8047B704780B58AB000AF78603960C4
:105AC80000237B6200233B623B681B68BB61BB69A8
